{
  "address": "0xA849cFd98E7a993332753b317ad7bDA9E30A5308",
  "abi": [
    {
      "inputs": [],
      "stateMutability": "nonpayable",
      "type": "constructor"
    },
    {
      "anonymous": false,
      "inputs": [
        {
          "indexed": true,
          "internalType": "address",
          "name": "contributor",
          "type": "address"
        },
        {
          "indexed": true,
          "internalType": "uint256",
          "name": "roundId",
          "type": "uint256"
        },
        {
          "indexed": false,
          "internalType": "uint256",
          "name": "amount",
          "type": "uint256"
        }
      ],
      "name": "ContributionReceived",
      "type": "event"
    },
    {
      "anonymous": false,
      "inputs": [
        {
          "indexed": true,
          "internalType": "uint256",
          "name": "roundId",
          "type": "uint256"
        }
      ],
      "name": "RoundClosed",
      "type": "event"
    },
    {
      "anonymous": false,
      "inputs": [
        {
          "indexed": true,
          "internalType": "uint256",
          "name": "roundId",
          "type": "uint256"
        },
        {
          "indexed": false,
          "internalType": "string",
          "name": "name",
          "type": "string"
        },
        {
          "indexed": false,
          "internalType": "uint256[]",
          "name": "projectIds",
          "type": "uint256[]"
        }
      ],
      "name": "RoundCreated",
      "type": "event"
    },
    {
      "inputs": [
        {
          "internalType": "uint256",
          "name": "roundId",
          "type": "uint256"
        }
      ],
      "name": "closeFundingRound",
      "outputs": [],
      "stateMutability": "nonpayable",
      "type": "function"
    },
    {
      "inputs": [
        {
          "internalType": "uint256",
          "name": "roundId",
          "type": "uint256"
        },
        {
          "internalType": "uint256[]",
          "name": "projectIds",
          "type": "uint256[]"
        },
        {
          "internalType": "uint256[]",
          "name": "amounts",
          "type": "uint256[]"
        },
        {
          "internalType": "bytes32",
          "name": "payloadHash",
          "type": "bytes32"
        },
        {
          "internalType": "string",
          "name": "routingInfo",
          "type": "string"
        },
        {
          "components": [
            {
              "internalType": "bytes",
              "name": "user_key",
              "type": "bytes"
            },
            {
              "internalType": "bytes",
              "name": "user_pubkey",
              "type": "bytes"
            },
            {
              "internalType": "string",
              "name": "routing_code_hash",
              "type": "string"
            },
            {
              "internalType": "string",
              "name": "task_destination_network",
              "type": "string"
            },
            {
              "internalType": "string",
              "name": "handle",
              "type": "string"
            },
            {
              "internalType": "bytes12",
              "name": "nonce",
              "type": "bytes12"
            },
            {
              "internalType": "uint32",
              "name": "callback_gas_limit",
              "type": "uint32"
            },
            {
              "internalType": "bytes",
              "name": "payload",
              "type": "bytes"
            },
            {
              "internalType": "bytes",
              "name": "payload_signature",
              "type": "bytes"
            }
          ],
          "internalType": "struct IGateway.ExecutionInfo",
          "name": "info",
          "type": "tuple"
        }
      ],
      "name": "contribute",
      "outputs": [],
      "stateMutability": "payable",
      "type": "function"
    },
    {
      "inputs": [
        {
          "internalType": "uint256",
          "name": "id",
          "type": "uint256"
        },
        {
          "internalType": "string",
          "name": "name",
          "type": "string"
        },
        {
          "internalType": "string",
          "name": "description",
          "type": "string"
        },
        {
          "internalType": "enum Funding.FundingCurveType",
          "name": "curveType",
          "type": "uint8"
        },
        {
          "internalType": "uint256[]",
          "name": "projectIds",
          "type": "uint256[]"
        },
        {
          "internalType": "string[]",
          "name": "projectNames",
          "type": "string[]"
        },
        {
          "internalType": "string[]",
          "name": "projectDescriptions",
          "type": "string[]"
        },
        {
          "internalType": "address payable[]",
          "name": "projectAddresses",
          "type": "address[]"
        },
        {
          "internalType": "bytes32",
          "name": "payloadHash",
          "type": "bytes32"
        },
        {
          "internalType": "string",
          "name": "routingInfo",
          "type": "string"
        },
        {
          "components": [
            {
              "internalType": "bytes",
              "name": "user_key",
              "type": "bytes"
            },
            {
              "internalType": "bytes",
              "name": "user_pubkey",
              "type": "bytes"
            },
            {
              "internalType": "string",
              "name": "routing_code_hash",
              "type": "string"
            },
            {
              "internalType": "string",
              "name": "task_destination_network",
              "type": "string"
            },
            {
              "internalType": "string",
              "name": "handle",
              "type": "string"
            },
            {
              "internalType": "bytes12",
              "name": "nonce",
              "type": "bytes12"
            },
            {
              "internalType": "uint32",
              "name": "callback_gas_limit",
              "type": "uint32"
            },
            {
              "internalType": "bytes",
              "name": "payload",
              "type": "bytes"
            },
            {
              "internalType": "bytes",
              "name": "payload_signature",
              "type": "bytes"
            }
          ],
          "internalType": "struct IGateway.ExecutionInfo",
          "name": "info",
          "type": "tuple"
        }
      ],
      "name": "createFundingRound",
      "outputs": [],
      "stateMutability": "payable",
      "type": "function"
    },
    {
      "inputs": [
        {
          "internalType": "uint256",
          "name": "x",
          "type": "uint256"
        }
      ],
      "name": "exp",
      "outputs": [
        {
          "internalType": "uint256",
          "name": "",
          "type": "uint256"
        }
      ],
      "stateMutability": "pure",
      "type": "function"
    },
    {
      "inputs": [
        {
          "internalType": "uint256",
          "name": "",
          "type": "uint256"
        }
      ],
      "name": "fundingRounds",
      "outputs": [
        {
          "internalType": "uint256",
          "name": "id",
          "type": "uint256"
        },
        {
          "internalType": "string",
          "name": "name",
          "type": "string"
        },
        {
          "internalType": "string",
          "name": "description",
          "type": "string"
        },
        {
          "internalType": "enum Funding.FundingCurveType",
          "name": "curveType",
          "type": "uint8"
        },
        {
          "internalType": "uint256",
          "name": "totalContributions",
          "type": "uint256"
        },
        {
          "internalType": "bool",
          "name": "isOpen",
          "type": "bool"
        }
      ],
      "stateMutability": "view",
      "type": "function"
    },
    {
      "inputs": [],
      "name": "gatewayAddressSepolia",
      "outputs": [
        {
          "internalType": "address",
          "name": "",
          "type": "address"
        }
      ],
      "stateMutability": "view",
      "type": "function"
    },
    {
      "inputs": [],
      "name": "gatewayContract",
      "outputs": [
        {
          "internalType": "contract IGateway",
          "name": "",
          "type": "address"
        }
      ],
      "stateMutability": "view",
      "type": "function"
    },
    {
      "inputs": [
        {
          "internalType": "uint256",
          "name": "",
          "type": "uint256"
        }
      ],
      "name": "roundIds",
      "outputs": [
        {
          "internalType": "uint256",
          "name": "",
          "type": "uint256"
        }
      ],
      "stateMutability": "view",
      "type": "function"
    }
  ],
  "transactionHash": "0x680ba5160a5f554e0446e2cd19b39e992aa01961880382605ded70e9619fa870",
  "args": [],
  "numDeployments": 4,
  "solcInputHash": "6beb9471be6d435d9fbc9dbd136443ad",
  "bytecode": "0x6080604052600380546001600160a01b031916733879e146140b627a5c858a08e507b171d9e4313917905534801561003657600080fd5b50600354600280546001600160a01b0319166001600160a01b039092169190911790556124c5806100686000396000f3fe60806040526004361061007b5760003560e01c8063b581fbe31161004e578063b581fbe3146100fb578063c428a2781461011b578063c9640c091461014d578063eb0cde1d1461018557600080fd5b80630f79a090146100805780637dfa9ae61461009557806390a4cb9b146100a8578063a7e36ab5146100db575b600080fd5b61009361008e366004611b92565b6101a5565b005b6100936100a3366004611dca565b610264565b3480156100b457600080fd5b506100c86100c3366004611f6e565b6103ca565b6040519081526020015b60405180910390f35b3480156100e757600080fd5b506100936100f6366004611f6e565b6103eb565b34801561010757600080fd5b506100c8610116366004611f6e565b61048b565b34801561012757600080fd5b5061013b610136366004611f6e565b6104c0565b6040516100d296959493929190611fe3565b34801561015957600080fd5b5060035461016d906001600160a01b031681565b6040516001600160a01b0390911681526020016100d2565b34801561019157600080fd5b5060025461016d906001600160a01b031681565b6101ae8761060c565b6101ef5760405162461bcd60e51b815260206004820152600d60248201526c125b9d985b1a59081c9bdd5b99609a1b60448201526064015b60405180910390fd5b60006101fc888888610640565b9050803410156102435760405162461bcd60e51b8152602060048201526012602482015271496e73756666696369656e742066756e647360701b60448201526064016101e6565b61025a886102518334612064565b87878787610848565b5050505050505050565b610270888888886108f3565b60008c815260208190526040902054156102be5760405162461bcd60e51b815260206004820152600f60248201526e526f756e642049442065786973747360881b60448201526064016101e6565b6002546040516339624a6b60e21b81526001600160a01b039091169063e58929ac9034906102f89088903390899089908990600401612111565b6000604051808303818588803b15801561031157600080fd5b505af1158015610325573d6000803e3d6000fd5b50505060008e8152602081905260409020915061034b9050818e8e8e8e8e8e8e8e610964565b6001805480820182556000919091527fb10e2d527612073b26eecdfd717e6a320cf44b4afac2b0732d9fcbe2b7fa0cf6018d90556040518d907f2fceaf42a6664f3294222799a359650844542179732d12b26b6926bd338479a5906103b3908f908d9061227c565b60405180910390a250505050505050505050505050565b600181815481106103da57600080fd5b600091825260209091200154905081565b60008181526020819052604090206007015460ff1661043b5760405162461bcd60e51b815260206004820152600c60248201526b149bdd5b990818db1bdcd95960a21b60448201526064016101e6565b6000818152602081905260409020600701805460ff1916905561045d81610bcb565b60405181907fe9f7d7fd0b133404f0ccff737d6f3594748e04bc5507adfaed35835ef989371190600090a250565b60008061049783610e33565b905060006104a482610e51565b90506104af81610ea6565b6001600160401b0316949350505050565b600060208190529081526040902080546001820180549192916104e2906122d3565b80601f016020809104026020016040519081016040528092919081815260200182805461050e906122d3565b801561055b5780601f106105305761010080835404028352916020019161055b565b820191906000526020600020905b81548152906001019060200180831161053e57829003601f168201915b505050505090806002018054610570906122d3565b80601f016020809104026020016040519081016040528092919081815260200182805461059c906122d3565b80156105e95780601f106105be576101008083540402835291602001916105e9565b820191906000526020600020905b8154815290600101906020018083116105cc57829003601f168201915b5050505060038301546006840154600790940154929360ff918216939092501686565b60008181526020819052604081206007015460ff16801561063a575060008281526020819052604090205415155b92915050565b6000805b8251811015610840576000806000878152602001908152602001600020600401600086848151811061067857610678612307565b60200260200101518152602001908152602001600020905080600001546000036106d85760405162461bcd60e51b8152602060048201526011602482015270141c9bda9958dd081b9bdd08199bdd5b99607a1b60448201526064016101e6565b60008681526020819052604081206003015460ff1660028111156106fe576106fe611fcd565b036107435761072584838151811061071857610718612307565b6020026020010151610ec2565b816005016000828254610738919061231d565b909155506108059050565b600160008781526020819052604090206003015460ff16600281111561076b5761076b611fcd565b0361079d5783828151811061078257610782612307565b6020026020010151816004016000828254610738919061231d565b600260008781526020819052604090206003015460ff1660028111156107c5576107c5611fcd565b03610805576107ec8483815181106107df576107df612307565b602002602001015161048b565b8160050160008282546107ff919061231d565b90915550505b83828151811061081757610817612307565b60200260200101518361082a919061231d565b925050808061083890612330565b915050610644565b509392505050565b6002546040516339624a6b60e21b81526001600160a01b039091169063e58929ac9087906108829088903390899089908990600401612111565b6000604051808303818588803b15801561089b57600080fd5b505af11580156108af573d6000803e3d6000fd5b50506040518881528993503392507fd2dff949d20e874cc6ba1dcefb840fb8cf6000a4197bfb69accfea5a32443ff5915060200160405180910390a3505050505050565b82518451148015610905575081518351145b8015610912575080518251145b61095e5760405162461bcd60e51b815260206004820152601760248201527f4d69736d61746368656420696e7075742061727261797300000000000000000060448201526064016101e6565b50505050565b878955600189016109758882612397565b50600289016109848782612397565b5060038901805486919060ff191660018360028111156109a6576109a6611fcd565b021790555060078901805460ff1916600117905560005b8451811015610bbf578960040160008683815181106109de576109de612307565b6020026020010151815260200190815260200160002060000154600014610a3b5760405162461bcd60e51b815260206004820152601160248201527050726f6a6563742049442065786973747360781b60448201526064016101e6565b6040518060c00160405280868381518110610a5857610a58612307565b60200260200101518152602001858381518110610a7757610a77612307565b60200260200101518152602001848381518110610a9657610a96612307565b60200260200101518152602001838381518110610ab557610ab5612307565b60200260200101516001600160a01b031681526020016000815260200160008152508a6004016000878481518110610aef57610aef612307565b60200260200101518152602001908152602001600020600082015181600001556020820151816001019081610b249190612397565b5060408201516002820190610b399082612397565b5060608201516003820180546001600160a01b0319166001600160a01b039092169190911790556080820151600482015560a0909101516005918201558551908b0190869083908110610b8e57610b8e612307565b6020908102919091018101518254600181018455600093845291909220015580610bb781612330565b9150506109bd565b50505050505050505050565b600081815260208190526040812060060154905b600083815260208190526040902060050154811015610e2e57600083815260208190526040812060058101805460049092019183919085908110610c2557610c25612307565b9060005260206000200154815260200190815260200160002090506000610dcf60008087815260200190815260200160002060030160009054906101000a900460ff16836040518060c001604052908160008201548152602001600182018054610c8e906122d3565b80601f0160208091040260200160405190810160405280929190818152602001828054610cba906122d3565b8015610d075780601f10610cdc57610100808354040283529160200191610d07565b820191906000526020600020905b815481529060010190602001808311610cea57829003601f168201915b50505050508152602001600282018054610d20906122d3565b80601f0160208091040260200160405190810160405280929190818152602001828054610d4c906122d3565b8015610d995780601f10610d6e57610100808354040283529160200191610d99565b820191906000526020600020905b815481529060010190602001808311610d7c57829003601f168201915b505050918352505060038201546001600160a01b0316602082015260048201546040820152600590910154606090910152610f1b565b60038301546040519192506001600160a01b03169082156108fc029083906000818181858888f19350505050158015610e0c573d6000803e3d6000fd5b50610e178185612064565b935050508080610e2690612330565b915050610bdf565b505050565b6000677fffffffffffffff821115610e4a57600080fd5b5060401b90565b6000600160461b82600f0b12610e6657600080fd5b683fffffffffffffffff1982600f0b1215610e8357506000919050565b61063a608083600f0b700171547652b82fe1777d0ffda0d23a7d1202901d610fa1565b60008082600f0b1215610eb857600080fd5b50600f0b60401d90565b6000806002610ed284600161231d565b610edc9190612456565b90508291505b81811015610f1557905080600281610efa8186612456565b610f04919061231d565b610f0e9190612456565b9050610ee2565b50919050565b600080836002811115610f3057610f30611fcd565b03610f4b5760a0820151610f449080612478565b905061063a565b6001836002811115610f5f57610f5f611fcd565b03610f6f5750608081015161063a565b6002836002811115610f8357610f83611fcd565b0361063a576001610f978360a0015161048b565b610f449190612064565b6000600160461b82600f0b12610fb657600080fd5b683fffffffffffffffff1982600f0b1215610fd357506000919050565b6001607f1b60006780000000000000008416600f0b13156110055770016a09e667f3bcc908b2fb1366ea957d3e0260801c5b60008367400000000000000016600f0b1315611032577001306fe0a31b7152de8d5a46305c85edec0260801c5b60008367200000000000000016600f0b131561105f577001172b83c7d517adcdf7c8c50eb14a791f0260801c5b60008367100000000000000016600f0b131561108c5770010b5586cf9890f6298b92b71842a983630260801c5b60008367080000000000000016600f0b13156110b9577001059b0d31585743ae7c548eb68ca417fd0260801c5b60008367040000000000000016600f0b13156110e657700102c9a3e778060ee6f7caca4f7a29bde80260801c5b60008367020000000000000016600f0b13156111135770010163da9fb33356d84a66ae336dcdfa3f0260801c5b60008367010000000000000016600f0b131561114057700100b1afa5abcbed6129ab13ec11dc95430260801c5b600083668000000000000016600f0b131561116c5770010058c86da1c09ea1ff19d294cf2f679b0260801c5b600083664000000000000016600f0b1315611198577001002c605e2e8cec506d21bfc89a23a00f0260801c5b600083662000000000000016600f0b13156111c457700100162f3904051fa128bca9c55c31e5df0260801c5b600083661000000000000016600f0b13156111f0577001000b175effdc76ba38e31671ca9397250260801c5b600083660800000000000016600f0b131561121c57700100058ba01fb9f96d6cacd4b180917c3d0260801c5b600083660400000000000016600f0b13156112485770010002c5cc37da9491d0985c348c68e7b30260801c5b600083660200000000000016600f0b1315611274577001000162e525ee054754457d59952920260260801c5b600083660100000000000016600f0b13156112a05770010000b17255775c040618bf4a4ade83fc0260801c5b6000836580000000000016600f0b13156112cb577001000058b91b5bc9ae2eed81e9b7d4cfab0260801c5b6000836540000000000016600f0b13156112f657700100002c5c89d5ec6ca4d7c8acc017b7c90260801c5b6000836520000000000016600f0b13156113215770010000162e43f4f831060e02d839a9d16d0260801c5b6000836510000000000016600f0b131561134c57700100000b1721bcfc99d9f890ea069117630260801c5b6000836508000000000016600f0b13156113775770010000058b90cf1e6d97f9ca14dbcc16280260801c5b6000836504000000000016600f0b13156113a2577001000002c5c863b73f016468f6bac5ca2b0260801c5b6000836502000000000016600f0b13156113cd57700100000162e430e5a18f6119e3c02282a50260801c5b6000836501000000000016600f0b13156113f8577001000000b1721835514b86e6d96efd1bfe0260801c5b60008364800000000016600f0b131561142257700100000058b90c0b48c6be5df846c5b2ef0260801c5b60008364400000000016600f0b131561144c5770010000002c5c8601cc6b9e94213c72737a0260801c5b60008364200000000016600f0b1315611476577001000000162e42fff037df38aa2b219f060260801c5b60008364100000000016600f0b13156114a05770010000000b17217fba9c739aa5819f44f90260801c5b60008364080000000016600f0b13156114ca577001000000058b90bfcdee5acd3c1cedc8230260801c5b60008364040000000016600f0b13156114f457700100000002c5c85fe31f35a6a30da1be500260801c5b60008364020000000016600f0b131561151e5770010000000162e42ff0999ce3541b9fffcf0260801c5b60008364010000000016600f0b131561154857700100000000b17217f80f4ef5aadda455540260801c5b600083638000000016600f0b13156115715770010000000058b90bfbf8479bd5a81b51ad0260801c5b600083634000000016600f0b131561159a577001000000002c5c85fdf84bd62ae30a74cc0260801c5b600083632000000016600f0b13156115c357700100000000162e42fefb2fed257559bdaa0260801c5b600083631000000016600f0b13156115ec577001000000000b17217f7d5a7716bba4a9ae0260801c5b600083630800000016600f0b131561161557700100000000058b90bfbe9ddbac5e109cce0260801c5b600083630400000016600f0b131561163e5770010000000002c5c85fdf4b15de6f17eb0d0260801c5b600083630200000016600f0b1315611667577001000000000162e42fefa494f1478fde050260801c5b600083630100000016600f0b13156116905770010000000000b17217f7d20cf927c8e94c0260801c5b6000836280000016600f0b13156116b8577001000000000058b90bfbe8f71cb4e4b33d0260801c5b6000836240000016600f0b13156116e057700100000000002c5c85fdf477b662b269450260801c5b6000836220000016600f0b13156117085770010000000000162e42fefa3ae53369388c0260801c5b6000836210000016600f0b131561173057700100000000000b17217f7d1d351a389d400260801c5b6000836208000016600f0b13156117585770010000000000058b90bfbe8e8b2d3d4ede0260801c5b6000836204000016600f0b1315611780577001000000000002c5c85fdf4741bea6e77e0260801c5b6000836202000016600f0b13156117a857700100000000000162e42fefa39fe95583c20260801c5b6000836201000016600f0b13156117d0577001000000000000b17217f7d1cfb72b45e10260801c5b60008361800016600f0b13156117f757700100000000000058b90bfbe8e7cc35c3f00260801c5b60008361400016600f0b131561181e5770010000000000002c5c85fdf473e242ea380260801c5b60008361200016600f0b1315611845577001000000000000162e42fefa39f02b772c0260801c5b60008361100016600f0b131561186c5770010000000000000b17217f7d1cf7d83c1a0260801c5b60008361080016600f0b1315611893577001000000000000058b90bfbe8e7bdcbe2e0260801c5b60008361040016600f0b13156118ba57700100000000000002c5c85fdf473dea871f0260801c5b60008361020016600f0b13156118e15770010000000000000162e42fefa39ef44d910260801c5b60008361010016600f0b131561190857700100000000000000b17217f7d1cf79e9490260801c5b600083608016600f0b131561192e5770010000000000000058b90bfbe8e7bce5440260801c5b600083604016600f0b1315611954577001000000000000002c5c85fdf473de6eca0260801c5b600083602016600f0b131561197a57700100000000000000162e42fefa39ef366f0260801c5b600083601016600f0b13156119a0577001000000000000000b17217f7d1cf79afa0260801c5b600083600816600f0b13156119c657700100000000000000058b90bfbe8e7bcd6d0260801c5b600083600416600f0b13156119ec5770010000000000000002c5c85fdf473de6b20260801c5b600083600216600f0b1315611a12577001000000000000000162e42fefa39ef3580260801c5b600083600116600f0b1315611a385770010000000000000000b17217f7d1cf79ab0260801c5b600f83810b60401d603f03900b1c6f7fffffffffffffffffffffffffffffff81111561063a57600080fd5b634e487b7160e01b600052604160045260246000fd5b604051601f8201601f191681016001600160401b0381118282101715611aa157611aa1611a63565b604052919050565b60006001600160401b03821115611ac257611ac2611a63565b5060051b60200190565b600082601f830112611add57600080fd5b81356020611af2611aed83611aa9565b611a79565b82815260059290921b84018101918181019086841115611b1157600080fd5b8286015b84811015611b2c5780358352918301918301611b15565b509695505050505050565b60008083601f840112611b4957600080fd5b5081356001600160401b03811115611b6057600080fd5b602083019150836020828501011115611b7857600080fd5b9250929050565b60006101208284031215610f1557600080fd5b600080600080600080600060c0888a031215611bad57600080fd5b8735965060208801356001600160401b0380821115611bcb57600080fd5b611bd78b838c01611acc565b975060408a0135915080821115611bed57600080fd5b611bf98b838c01611acc565b965060608a0135955060808a0135915080821115611c1657600080fd5b611c228b838c01611b37565b909550935060a08a0135915080821115611c3b57600080fd5b50611c488a828b01611b7f565b91505092959891949750929550565b600082601f830112611c6857600080fd5b81356001600160401b03811115611c8157611c81611a63565b611c94601f8201601f1916602001611a79565b818152846020838601011115611ca957600080fd5b816020850160208301376000918101602001919091529392505050565b803560038110611cd557600080fd5b919050565b600082601f830112611ceb57600080fd5b81356020611cfb611aed83611aa9565b82815260059290921b84018101918181019086841115611d1a57600080fd5b8286015b84811015611b2c5780356001600160401b03811115611d3d5760008081fd5b611d4b8986838b0101611c57565b845250918301918301611d1e565b600082601f830112611d6a57600080fd5b81356020611d7a611aed83611aa9565b82815260059290921b84018101918181019086841115611d9957600080fd5b8286015b84811015611b2c5780356001600160a01b0381168114611dbd5760008081fd5b8352918301918301611d9d565b6000806000806000806000806000806000806101608d8f031215611ded57600080fd5b8c359b506001600160401b0360208e01351115611e0957600080fd5b611e198e60208f01358f01611c57565b9a506001600160401b0360408e01351115611e3357600080fd5b611e438e60408f01358f01611c57565b9950611e5160608e01611cc6565b98506001600160401b0360808e01351115611e6b57600080fd5b611e7b8e60808f01358f01611acc565b97506001600160401b0360a08e01351115611e9557600080fd5b611ea58e60a08f01358f01611cda565b96506001600160401b0360c08e01351115611ebf57600080fd5b611ecf8e60c08f01358f01611cda565b95506001600160401b0360e08e01351115611ee957600080fd5b611ef98e60e08f01358f01611d59565b94506101008d013593506001600160401b036101208e01351115611f1c57600080fd5b611f2d8e6101208f01358f01611b37565b90935091506001600160401b036101408e01351115611f4b57600080fd5b611f5c8e6101408f01358f01611b7f565b90509295989b509295989b509295989b565b600060208284031215611f8057600080fd5b5035919050565b6000815180845260005b81811015611fad57602081850181015186830182015201611f91565b506000602082860101526020601f19601f83011685010191505092915050565b634e487b7160e01b600052602160045260246000fd5b86815260c060208201526000611ffc60c0830188611f87565b828103604084015261200e8188611f87565b9150506003851061202f57634e487b7160e01b600052602160045260246000fd5b84606083015283608083015282151560a0830152979650505050505050565b634e487b7160e01b600052601160045260246000fd5b8181038181111561063a5761063a61204e565b81835281816020850137506000828201602090810191909152601f909101601f19169091010190565b6000808335601e198436030181126120b757600080fd5b83016020810192503590506001600160401b038111156120d657600080fd5b803603821315611b7857600080fd5b80356001600160a01b031981168114611cd557600080fd5b803563ffffffff81168114611cd557600080fd5b8581526001600160a01b038516602082015260806040820181905260009061213c9083018587612077565b828103606084015261012061215185866120a0565b8284526121618385018284612077565b9250505061217260208601866120a0565b8383036020850152612185838284612077565b9250505061219660408601866120a0565b83830360408501526121a9838284612077565b925050506121ba60608601866120a0565b83830360608501526121cd838284612077565b925050506121de60808601866120a0565b83830360808501526121f1838284612077565b9250505061220160a086016120e5565b6001600160a01b03191660a083015261221c60c086016120fd565b63ffffffff1660c083015261223460e08601866120a0565b83830360e0850152612247838284612077565b9250505061010061225a818701876120a0565b8484038386015261226c848284612077565b9c9b505050505050505050505050565b60408152600061228f6040830185611f87565b82810360208481019190915284518083528582019282019060005b818110156122c6578451835293830193918301916001016122aa565b5090979650505050505050565b600181811c908216806122e757607f821691505b602082108103610f1557634e487b7160e01b600052602260045260246000fd5b634e487b7160e01b600052603260045260246000fd5b8082018082111561063a5761063a61204e565b6000600182016123425761234261204e565b5060010190565b601f821115610e2e57600081815260208120601f850160051c810160208610156123705750805b601f850160051c820191505b8181101561238f5782815560010161237c565b505050505050565b81516001600160401b038111156123b0576123b0611a63565b6123c4816123be84546122d3565b84612349565b602080601f8311600181146123f957600084156123e15750858301515b600019600386901b1c1916600185901b17855561238f565b600085815260208120601f198616915b8281101561242857888601518255948401946001909101908401612409565b50858210156124465787850151600019600388901b60f8161c191681555b5050505050600190811b01905550565b60008261247357634e487b7160e01b600052601260045260246000fd5b500490565b808202811582820484141761063a5761063a61204e56fea2646970667358221220f65babea3bce5c3a2a4d497485be6f6ebef4953320ff4de5b951c3e884a8fbbd64736f6c63430008110033",
  "devdoc": {
    "author": "arjanjohan",
    "kind": "dev",
    "methods": {},
    "version": 1
  },
  "userdoc": {
    "kind": "user",
    "methods": {},
    "notice": "A smart contract for cross-chain quadratic voting developed during EthDam 24. This contract supports various types of funding curves and ensures privacy and security through integration with the Secret Network.",
    "version": 1
  },
  "storageLayout": {
    "storage": [
      {
        "astId": 2861,
        "contract": "contracts/Funding.sol:Funding",
        "label": "fundingRounds",
        "offset": 0,
        "slot": "0",
        "type": "t_mapping(t_uint256,t_struct(FundingRound)2856_storage)"
      },
      {
        "astId": 2864,
        "contract": "contracts/Funding.sol:Funding",
        "label": "roundIds",
        "offset": 0,
        "slot": "1",
        "type": "t_array(t_uint256)dyn_storage"
      },
      {
        "astId": 2867,
        "contract": "contracts/Funding.sol:Funding",
        "label": "gatewayContract",
        "offset": 0,
        "slot": "2",
        "type": "t_contract(IGateway)3613"
      },
      {
        "astId": 2873,
        "contract": "contracts/Funding.sol:Funding",
        "label": "gatewayAddressSepolia",
        "offset": 0,
        "slot": "3",
        "type": "t_address"
      }
    ],
    "types": {
      "t_address": {
        "encoding": "inplace",
        "label": "address",
        "numberOfBytes": "20"
      },
      "t_address_payable": {
        "encoding": "inplace",
        "label": "address payable",
        "numberOfBytes": "20"
      },
      "t_array(t_uint256)dyn_storage": {
        "base": "t_uint256",
        "encoding": "dynamic_array",
        "label": "uint256[]",
        "numberOfBytes": "32"
      },
      "t_bool": {
        "encoding": "inplace",
        "label": "bool",
        "numberOfBytes": "1"
      },
      "t_contract(IGateway)3613": {
        "encoding": "inplace",
        "label": "contract IGateway",
        "numberOfBytes": "20"
      },
      "t_enum(FundingCurveType)2821": {
        "encoding": "inplace",
        "label": "enum Funding.FundingCurveType",
        "numberOfBytes": "1"
      },
      "t_mapping(t_uint256,t_struct(FundingRound)2856_storage)": {
        "encoding": "mapping",
        "key": "t_uint256",
        "label": "mapping(uint256 => struct Funding.FundingRound)",
        "numberOfBytes": "32",
        "value": "t_struct(FundingRound)2856_storage"
      },
      "t_mapping(t_uint256,t_struct(Project)2834_storage)": {
        "encoding": "mapping",
        "key": "t_uint256",
        "label": "mapping(uint256 => struct Funding.Project)",
        "numberOfBytes": "32",
        "value": "t_struct(Project)2834_storage"
      },
      "t_string_storage": {
        "encoding": "bytes",
        "label": "string",
        "numberOfBytes": "32"
      },
      "t_struct(FundingRound)2856_storage": {
        "encoding": "inplace",
        "label": "struct Funding.FundingRound",
        "members": [
          {
            "astId": 2836,
            "contract": "contracts/Funding.sol:Funding",
            "label": "id",
            "offset": 0,
            "slot": "0",
            "type": "t_uint256"
          },
          {
            "astId": 2838,
            "contract": "contracts/Funding.sol:Funding",
            "label": "name",
            "offset": 0,
            "slot": "1",
            "type": "t_string_storage"
          },
          {
            "astId": 2840,
            "contract": "contracts/Funding.sol:Funding",
            "label": "description",
            "offset": 0,
            "slot": "2",
            "type": "t_string_storage"
          },
          {
            "astId": 2843,
            "contract": "contracts/Funding.sol:Funding",
            "label": "curveType",
            "offset": 0,
            "slot": "3",
            "type": "t_enum(FundingCurveType)2821"
          },
          {
            "astId": 2848,
            "contract": "contracts/Funding.sol:Funding",
            "label": "projects",
            "offset": 0,
            "slot": "4",
            "type": "t_mapping(t_uint256,t_struct(Project)2834_storage)"
          },
          {
            "astId": 2851,
            "contract": "contracts/Funding.sol:Funding",
            "label": "projectIds",
            "offset": 0,
            "slot": "5",
            "type": "t_array(t_uint256)dyn_storage"
          },
          {
            "astId": 2853,
            "contract": "contracts/Funding.sol:Funding",
            "label": "totalContributions",
            "offset": 0,
            "slot": "6",
            "type": "t_uint256"
          },
          {
            "astId": 2855,
            "contract": "contracts/Funding.sol:Funding",
            "label": "isOpen",
            "offset": 0,
            "slot": "7",
            "type": "t_bool"
          }
        ],
        "numberOfBytes": "256"
      },
      "t_struct(Project)2834_storage": {
        "encoding": "inplace",
        "label": "struct Funding.Project",
        "members": [
          {
            "astId": 2823,
            "contract": "contracts/Funding.sol:Funding",
            "label": "id",
            "offset": 0,
            "slot": "0",
            "type": "t_uint256"
          },
          {
            "astId": 2825,
            "contract": "contracts/Funding.sol:Funding",
            "label": "name",
            "offset": 0,
            "slot": "1",
            "type": "t_string_storage"
          },
          {
            "astId": 2827,
            "contract": "contracts/Funding.sol:Funding",
            "label": "description",
            "offset": 0,
            "slot": "2",
            "type": "t_string_storage"
          },
          {
            "astId": 2829,
            "contract": "contracts/Funding.sol:Funding",
            "label": "projectAddress",
            "offset": 0,
            "slot": "3",
            "type": "t_address_payable"
          },
          {
            "astId": 2831,
            "contract": "contracts/Funding.sol:Funding",
            "label": "totalContributions",
            "offset": 0,
            "slot": "4",
            "type": "t_uint256"
          },
          {
            "astId": 2833,
            "contract": "contracts/Funding.sol:Funding",
            "label": "totalSquareRoots",
            "offset": 0,
            "slot": "5",
            "type": "t_uint256"
          }
        ],
        "numberOfBytes": "192"
      },
      "t_uint256": {
        "encoding": "inplace",
        "label": "uint256",
        "numberOfBytes": "32"
      }
    }
  }
}