{
  "address": "0x73a159fB3Dd537724244aCFFd1E76358AD265161",
  "abi": [
    {
      "inputs": [],
      "stateMutability": "nonpayable",
      "type": "constructor"
    },
    {
      "anonymous": false,
      "inputs": [
        {
          "indexed": false,
          "internalType": "uint256",
          "name": "roundId",
          "type": "uint256"
        },
        {
          "indexed": false,
          "internalType": "uint256",
          "name": "projectId",
          "type": "uint256"
        },
        {
          "indexed": false,
          "internalType": "address",
          "name": "contributor",
          "type": "address"
        },
        {
          "indexed": false,
          "internalType": "uint256",
          "name": "amount",
          "type": "uint256"
        }
      ],
      "name": "ContributionReceived",
      "type": "event"
    },
    {
      "anonymous": false,
      "inputs": [
        {
          "indexed": false,
          "internalType": "uint256",
          "name": "roundId",
          "type": "uint256"
        }
      ],
      "name": "RoundClosed",
      "type": "event"
    },
    {
      "anonymous": false,
      "inputs": [
        {
          "indexed": false,
          "internalType": "uint256",
          "name": "roundId",
          "type": "uint256"
        },
        {
          "indexed": false,
          "internalType": "string",
          "name": "name",
          "type": "string"
        },
        {
          "indexed": false,
          "internalType": "uint256[]",
          "name": "projects",
          "type": "uint256[]"
        }
      ],
      "name": "RoundCreated",
      "type": "event"
    },
    {
      "inputs": [
        {
          "internalType": "uint256",
          "name": "roundId",
          "type": "uint256"
        }
      ],
      "name": "closeFundingRound",
      "outputs": [],
      "stateMutability": "nonpayable",
      "type": "function"
    },
    {
      "inputs": [
        {
          "internalType": "uint256",
          "name": "roundId",
          "type": "uint256"
        },
        {
          "internalType": "uint256",
          "name": "projectId",
          "type": "uint256"
        },
        {
          "internalType": "uint256",
          "name": "amount",
          "type": "uint256"
        },
        {
          "internalType": "bytes32",
          "name": "payloadHash",
          "type": "bytes32"
        },
        {
          "internalType": "string",
          "name": "routingInfo",
          "type": "string"
        },
        {
          "components": [
            {
              "internalType": "bytes",
              "name": "user_key",
              "type": "bytes"
            },
            {
              "internalType": "bytes",
              "name": "user_pubkey",
              "type": "bytes"
            },
            {
              "internalType": "string",
              "name": "routing_code_hash",
              "type": "string"
            },
            {
              "internalType": "string",
              "name": "task_destination_network",
              "type": "string"
            },
            {
              "internalType": "string",
              "name": "handle",
              "type": "string"
            },
            {
              "internalType": "bytes12",
              "name": "nonce",
              "type": "bytes12"
            },
            {
              "internalType": "uint32",
              "name": "callback_gas_limit",
              "type": "uint32"
            },
            {
              "internalType": "bytes",
              "name": "payload",
              "type": "bytes"
            },
            {
              "internalType": "bytes",
              "name": "payload_signature",
              "type": "bytes"
            }
          ],
          "internalType": "struct IGateway.ExecutionInfo",
          "name": "info",
          "type": "tuple"
        }
      ],
      "name": "contribute",
      "outputs": [],
      "stateMutability": "payable",
      "type": "function"
    },
    {
      "inputs": [
        {
          "internalType": "uint256",
          "name": "id",
          "type": "uint256"
        },
        {
          "internalType": "string",
          "name": "name",
          "type": "string"
        },
        {
          "internalType": "string",
          "name": "description",
          "type": "string"
        },
        {
          "internalType": "uint256[]",
          "name": "projectIds",
          "type": "uint256[]"
        },
        {
          "internalType": "string[]",
          "name": "projectNames",
          "type": "string[]"
        },
        {
          "internalType": "string[]",
          "name": "projectDescriptions",
          "type": "string[]"
        },
        {
          "internalType": "bytes32",
          "name": "payloadHash",
          "type": "bytes32"
        },
        {
          "internalType": "string",
          "name": "routingInfo",
          "type": "string"
        },
        {
          "components": [
            {
              "internalType": "bytes",
              "name": "user_key",
              "type": "bytes"
            },
            {
              "internalType": "bytes",
              "name": "user_pubkey",
              "type": "bytes"
            },
            {
              "internalType": "string",
              "name": "routing_code_hash",
              "type": "string"
            },
            {
              "internalType": "string",
              "name": "task_destination_network",
              "type": "string"
            },
            {
              "internalType": "string",
              "name": "handle",
              "type": "string"
            },
            {
              "internalType": "bytes12",
              "name": "nonce",
              "type": "bytes12"
            },
            {
              "internalType": "uint32",
              "name": "callback_gas_limit",
              "type": "uint32"
            },
            {
              "internalType": "bytes",
              "name": "payload",
              "type": "bytes"
            },
            {
              "internalType": "bytes",
              "name": "payload_signature",
              "type": "bytes"
            }
          ],
          "internalType": "struct IGateway.ExecutionInfo",
          "name": "info",
          "type": "tuple"
        }
      ],
      "name": "createFundingRound",
      "outputs": [],
      "stateMutability": "payable",
      "type": "function"
    },
    {
      "inputs": [
        {
          "internalType": "uint256",
          "name": "",
          "type": "uint256"
        }
      ],
      "name": "fundingRounds",
      "outputs": [
        {
          "internalType": "uint256",
          "name": "id",
          "type": "uint256"
        },
        {
          "internalType": "string",
          "name": "name",
          "type": "string"
        },
        {
          "internalType": "string",
          "name": "description",
          "type": "string"
        },
        {
          "internalType": "bool",
          "name": "isOpen",
          "type": "bool"
        }
      ],
      "stateMutability": "view",
      "type": "function"
    },
    {
      "inputs": [],
      "name": "gatewayContract",
      "outputs": [
        {
          "internalType": "contract IGateway",
          "name": "",
          "type": "address"
        }
      ],
      "stateMutability": "view",
      "type": "function"
    },
    {
      "inputs": [
        {
          "internalType": "uint256",
          "name": "",
          "type": "uint256"
        }
      ],
      "name": "roundIds",
      "outputs": [
        {
          "internalType": "uint256",
          "name": "",
          "type": "uint256"
        }
      ],
      "stateMutability": "view",
      "type": "function"
    }
  ],
  "transactionHash": "0xe76718a652c759cab8ca3d19bc3f0f44f7bfe7458e5f330ec067d6e21432e01b",
  "args": [],
  "numDeployments": 2,
  "solcInputHash": "c727e0a0c7d92db7ac5913d5007565fa",
  "bytecode": "0x6080604052600180546001600160a01b031916733879e146140b627a5c858a08e507b171d9e4313917905534801561003657600080fd5b50600154600080546001600160a01b0319166001600160a01b03909216919091179055610f67806100686000396000f3fe6080604052600436106100555760003560e01c806390a4cb9b1461005a578063a7e36ab51461008d578063a7fd1bc4146100af578063c428a278146100c2578063eb0cde1d146100f2578063f60acf2c1461012a575b600080fd5b34801561006657600080fd5b5061007a61007536600461065b565b61013d565b6040519081526020015b60405180910390f35b34801561009957600080fd5b506100ad6100a836600461065b565b61015e565b005b6100ad6100bd36600461089c565b6101ee565b3480156100ce57600080fd5b506100e26100dd36600461065b565b61041a565b6040516100849493929190610a17565b3480156100fe57600080fd5b50600054610112906001600160a01b031681565b6040516001600160a01b039091168152602001610084565b6100ad610138366004610a56565b610556565b6003818154811061014d57600080fd5b600091825260209091200154905081565b60008181526002602052604090206005015460ff166101985760405162461bcd60e51b815260040161018f90610ae6565b60405180910390fd5b60008181526002602052604090819020600501805460ff19169055517fe9f7d7fd0b133404f0ccff737d6f3594748e04bc5507adfaed35835ef9893711906101e39083815260200190565b60405180910390a150565b6000546040516339624a6b60e21b81526001600160a01b039091169063e58929ac9034906102289088903390899089908990600401610bca565b6000604051808303818588803b15801561024157600080fd5b505af1158015610255573d6000803e3d6000fd5b50505060008c81526002602052604090208c81559150506001810161027a8b82610db8565b50600281016102898a82610db8565b5060058101805460ff1916600117905560005b885181101561039b5760008982815181106102b9576102b9610e78565b602002602001015190506040518060a001604052808281526020018a84815181106102e6576102e6610e78565b6020026020010151815260200189848151811061030557610305610e78565b60209081029190910181015182526000828201819052604092830181905284815260038701825291909120825181559082015160018201906103479082610db8565b506040820151600282019061035c9082610db8565b5060608201516003820155608090910151600491820155830180546001810182556000918252602090912001558061039381610ea4565b91505061029c565b50600380546001810182556000919091527fc2575a0e9e593c00f959f8c92f12db2869c3395a3b0502d05e2516446f71f85b018b90556040517f2fceaf42a6664f3294222799a359650844542179732d12b26b6926bd338479a590610405908d908d908c90610ebd565b60405180910390a15050505050505050505050565b6002602052600090815260409020805460018201805491929161043c90610d35565b80601f016020809104026020016040519081016040528092919081815260200182805461046890610d35565b80156104b55780601f1061048a576101008083540402835291602001916104b5565b820191906000526020600020905b81548152906001019060200180831161049857829003601f168201915b5050505050908060020180546104ca90610d35565b80601f01602080910402602001604051908101604052809291908181526020018280546104f690610d35565b80156105435780601f1061051857610100808354040283529160200191610543565b820191906000526020600020905b81548152906001019060200180831161052657829003601f168201915b5050506005909301549192505060ff1684565b60008781526002602052604090206005015460ff166105875760405162461bcd60e51b815260040161018f90610ae6565b60006105938634610f18565b6000546040516339624a6b60e21b81529192506001600160a01b03169063e58929ac9083906105ce90899033908a908a908a90600401610bca565b6000604051808303818588803b1580156105e757600080fd5b505af11580156105fb573d6000803e3d6000fd5b5050604080518c8152602081018c90523391810191909152606081018a90527f879b6c9df11c8fb992a509f24acc1d6d3ca0f362f5afa404262891135e67c96e935060800191506106499050565b60405180910390a15050505050505050565b60006020828403121561066d57600080fd5b5035919050565b634e487b7160e01b600052604160045260246000fd5b604051601f8201601f1916810167ffffffffffffffff811182821017156106b3576106b3610674565b604052919050565b600082601f8301126106cc57600080fd5b813567ffffffffffffffff8111156106e6576106e6610674565b6106f9601f8201601f191660200161068a565b81815284602083860101111561070e57600080fd5b816020850160208301376000918101602001919091529392505050565b600067ffffffffffffffff82111561074557610745610674565b5060051b60200190565b600082601f83011261076057600080fd5b813560206107756107708361072b565b61068a565b82815260059290921b8401810191818101908684111561079457600080fd5b8286015b848110156107af5780358352918301918301610798565b509695505050505050565b600082601f8301126107cb57600080fd5b813560206107db6107708361072b565b82815260059290921b840181019181810190868411156107fa57600080fd5b8286015b848110156107af57803567ffffffffffffffff81111561081e5760008081fd5b61082c8986838b01016106bb565b8452509183019183016107fe565b60008083601f84011261084c57600080fd5b50813567ffffffffffffffff81111561086457600080fd5b60208301915083602082850101111561087c57600080fd5b9250929050565b6000610120828403121561089657600080fd5b50919050565b6000806000806000806000806000806101208b8d0312156108bc57600080fd5b8a35995060208b013567ffffffffffffffff808211156108db57600080fd5b6108e78e838f016106bb565b9a5060408d01359150808211156108fd57600080fd5b6109098e838f016106bb565b995060608d013591508082111561091f57600080fd5b61092b8e838f0161074f565b985060808d013591508082111561094157600080fd5b61094d8e838f016107ba565b975060a08d013591508082111561096357600080fd5b61096f8e838f016107ba565b965060c08d0135955060e08d013591508082111561098c57600080fd5b6109988e838f0161083a565b90955093506101008d01359150808211156109b257600080fd5b506109bf8d828e01610883565b9150509295989b9194979a5092959850565b6000815180845260005b818110156109f7576020818501810151868301820152016109db565b506000602082860101526020601f19601f83011685010191505092915050565b848152608060208201526000610a3060808301866109d1565b8281036040840152610a4281866109d1565b915050821515606083015295945050505050565b600080600080600080600060c0888a031215610a7157600080fd5b87359650602088013595506040880135945060608801359350608088013567ffffffffffffffff80821115610aa557600080fd5b610ab18b838c0161083a565b909550935060a08a0135915080821115610aca57600080fd5b50610ad78a828b01610883565b91505092959891949750929550565b60208082526024908201527f546869732066756e64696e6720726f756e6420697320616c726561647920636c6040820152631bdcd95960e21b606082015260800190565b81835281816020850137506000828201602090810191909152601f909101601f19169091010190565b6000808335601e19843603018112610b6a57600080fd5b830160208101925035905067ffffffffffffffff811115610b8a57600080fd5b80360382131561087c57600080fd5b80356001600160a01b031981168114610bb157600080fd5b919050565b803563ffffffff81168114610bb157600080fd5b8581526001600160a01b0385166020820152608060408201819052600090610bf59083018587610b2a565b8281036060840152610120610c0a8586610b53565b828452610c1a8385018284610b2a565b92505050610c2b6020860186610b53565b8383036020850152610c3e838284610b2a565b92505050610c4f6040860186610b53565b8383036040850152610c62838284610b2a565b92505050610c736060860186610b53565b8383036060850152610c86838284610b2a565b92505050610c976080860186610b53565b8383036080850152610caa838284610b2a565b92505050610cba60a08601610b99565b6001600160a01b03191660a0830152610cd560c08601610bb6565b63ffffffff1660c0830152610ced60e0860186610b53565b83830360e0850152610d00838284610b2a565b92505050610100610d1381870187610b53565b84840383860152610d25848284610b2a565b9c9b505050505050505050505050565b600181811c90821680610d4957607f821691505b60208210810361089657634e487b7160e01b600052602260045260246000fd5b601f821115610db357600081815260208120601f850160051c81016020861015610d905750805b601f850160051c820191505b81811015610daf57828155600101610d9c565b5050505b505050565b815167ffffffffffffffff811115610dd257610dd2610674565b610de681610de08454610d35565b84610d69565b602080601f831160018114610e1b5760008415610e035750858301515b600019600386901b1c1916600185901b178555610daf565b600085815260208120601f198616915b82811015610e4a57888601518255948401946001909101908401610e2b565b5085821015610e685787850151600019600388901b60f8161c191681555b5050505050600190811b01905550565b634e487b7160e01b600052603260045260246000fd5b634e487b7160e01b600052601160045260246000fd5b600060018201610eb657610eb6610e8e565b5060010190565b83815260006020606081840152610ed760608401866109d1565b838103604085015284518082528286019183019060005b81811015610f0a57835183529284019291840191600101610eee565b509098975050505050505050565b81810381811115610f2b57610f2b610e8e565b9291505056fea2646970667358221220ce5dd8461926f36ff8b50371f96be228c55bba9bc1db257db6a725b53fb353ce64736f6c63430008110033",
  "devdoc": {
    "author": "arjanjohan",
    "kind": "dev",
    "methods": {},
    "version": 1
  },
  "userdoc": {
    "kind": "user",
    "methods": {},
    "notice": "A smart contract for cross-chain quadratic voting. Built during EthDam 24",
    "version": 1
  },
  "storageLayout": {
    "storage": [
      {
        "astId": 7,
        "contract": "contracts/Funding.sol:Funding",
        "label": "gatewayContract",
        "offset": 0,
        "slot": "0",
        "type": "t_contract(IGateway)8406"
      },
      {
        "astId": 13,
        "contract": "contracts/Funding.sol:Funding",
        "label": "gatewayAddressSepolia",
        "offset": 0,
        "slot": "1",
        "type": "t_address"
      },
      {
        "astId": 56,
        "contract": "contracts/Funding.sol:Funding",
        "label": "fundingRounds",
        "offset": 0,
        "slot": "2",
        "type": "t_mapping(t_uint256,t_struct(FundingRound)51_storage)"
      },
      {
        "astId": 59,
        "contract": "contracts/Funding.sol:Funding",
        "label": "roundIds",
        "offset": 0,
        "slot": "3",
        "type": "t_array(t_uint256)dyn_storage"
      }
    ],
    "types": {
      "t_address": {
        "encoding": "inplace",
        "label": "address",
        "numberOfBytes": "20"
      },
      "t_array(t_uint256)dyn_storage": {
        "base": "t_uint256",
        "encoding": "dynamic_array",
        "label": "uint256[]",
        "numberOfBytes": "32"
      },
      "t_bool": {
        "encoding": "inplace",
        "label": "bool",
        "numberOfBytes": "1"
      },
      "t_contract(IGateway)8406": {
        "encoding": "inplace",
        "label": "contract IGateway",
        "numberOfBytes": "20"
      },
      "t_mapping(t_uint256,t_struct(FundingRound)51_storage)": {
        "encoding": "mapping",
        "key": "t_uint256",
        "label": "mapping(uint256 => struct Funding.FundingRound)",
        "numberOfBytes": "32",
        "value": "t_struct(FundingRound)51_storage"
      },
      "t_mapping(t_uint256,t_struct(Project)34_storage)": {
        "encoding": "mapping",
        "key": "t_uint256",
        "label": "mapping(uint256 => struct Funding.Project)",
        "numberOfBytes": "32",
        "value": "t_struct(Project)34_storage"
      },
      "t_string_storage": {
        "encoding": "bytes",
        "label": "string",
        "numberOfBytes": "32"
      },
      "t_struct(FundingRound)51_storage": {
        "encoding": "inplace",
        "label": "struct Funding.FundingRound",
        "members": [
          {
            "astId": 36,
            "contract": "contracts/Funding.sol:Funding",
            "label": "id",
            "offset": 0,
            "slot": "0",
            "type": "t_uint256"
          },
          {
            "astId": 38,
            "contract": "contracts/Funding.sol:Funding",
            "label": "name",
            "offset": 0,
            "slot": "1",
            "type": "t_string_storage"
          },
          {
            "astId": 40,
            "contract": "contracts/Funding.sol:Funding",
            "label": "description",
            "offset": 0,
            "slot": "2",
            "type": "t_string_storage"
          },
          {
            "astId": 45,
            "contract": "contracts/Funding.sol:Funding",
            "label": "projects",
            "offset": 0,
            "slot": "3",
            "type": "t_mapping(t_uint256,t_struct(Project)34_storage)"
          },
          {
            "astId": 48,
            "contract": "contracts/Funding.sol:Funding",
            "label": "projectIds",
            "offset": 0,
            "slot": "4",
            "type": "t_array(t_uint256)dyn_storage"
          },
          {
            "astId": 50,
            "contract": "contracts/Funding.sol:Funding",
            "label": "isOpen",
            "offset": 0,
            "slot": "5",
            "type": "t_bool"
          }
        ],
        "numberOfBytes": "192"
      },
      "t_struct(Project)34_storage": {
        "encoding": "inplace",
        "label": "struct Funding.Project",
        "members": [
          {
            "astId": 25,
            "contract": "contracts/Funding.sol:Funding",
            "label": "id",
            "offset": 0,
            "slot": "0",
            "type": "t_uint256"
          },
          {
            "astId": 27,
            "contract": "contracts/Funding.sol:Funding",
            "label": "name",
            "offset": 0,
            "slot": "1",
            "type": "t_string_storage"
          },
          {
            "astId": 29,
            "contract": "contracts/Funding.sol:Funding",
            "label": "description",
            "offset": 0,
            "slot": "2",
            "type": "t_string_storage"
          },
          {
            "astId": 31,
            "contract": "contracts/Funding.sol:Funding",
            "label": "totalContributions",
            "offset": 0,
            "slot": "3",
            "type": "t_uint256"
          },
          {
            "astId": 33,
            "contract": "contracts/Funding.sol:Funding",
            "label": "totalSquareRoots",
            "offset": 0,
            "slot": "4",
            "type": "t_uint256"
          }
        ],
        "numberOfBytes": "160"
      },
      "t_uint256": {
        "encoding": "inplace",
        "label": "uint256",
        "numberOfBytes": "32"
      }
    }
  }
}