{
  "address": "0xEFE2c9908e1fad32dfbcFdB040bE2E862516bc3E",
  "abi": [
    {
      "inputs": [],
      "stateMutability": "nonpayable",
      "type": "constructor"
    },
    {
      "anonymous": false,
      "inputs": [
        {
          "indexed": true,
          "internalType": "address",
          "name": "contributor",
          "type": "address"
        }
      ],
      "name": "ContributionReceived",
      "type": "event"
    },
    {
      "anonymous": false,
      "inputs": [
        {
          "indexed": true,
          "internalType": "uint256",
          "name": "roundId",
          "type": "uint256"
        }
      ],
      "name": "ContributionReceivedInSecret",
      "type": "event"
    },
    {
      "anonymous": false,
      "inputs": [
        {
          "indexed": true,
          "internalType": "uint256",
          "name": "roundId",
          "type": "uint256"
        }
      ],
      "name": "DistributedTokens",
      "type": "event"
    },
    {
      "anonymous": false,
      "inputs": [
        {
          "indexed": true,
          "internalType": "uint256",
          "name": "roundId",
          "type": "uint256"
        }
      ],
      "name": "DistributedTokensInSecret",
      "type": "event"
    },
    {
      "anonymous": false,
      "inputs": [
        {
          "indexed": true,
          "internalType": "uint256",
          "name": "roundId",
          "type": "uint256"
        }
      ],
      "name": "RoundClosed",
      "type": "event"
    },
    {
      "anonymous": false,
      "inputs": [
        {
          "indexed": true,
          "internalType": "uint256",
          "name": "roundId",
          "type": "uint256"
        }
      ],
      "name": "RoundClosedInSecret",
      "type": "event"
    },
    {
      "anonymous": false,
      "inputs": [
        {
          "indexed": true,
          "internalType": "uint256",
          "name": "roundId",
          "type": "uint256"
        },
        {
          "indexed": false,
          "internalType": "string",
          "name": "name",
          "type": "string"
        },
        {
          "indexed": false,
          "internalType": "uint256[]",
          "name": "projectIds",
          "type": "uint256[]"
        }
      ],
      "name": "RoundCreated",
      "type": "event"
    },
    {
      "anonymous": false,
      "inputs": [
        {
          "indexed": true,
          "internalType": "uint256",
          "name": "roundId",
          "type": "uint256"
        }
      ],
      "name": "RoundCreatedInSecret",
      "type": "event"
    },
    {
      "inputs": [
        {
          "internalType": "uint256",
          "name": "roundId",
          "type": "uint256"
        },
        {
          "internalType": "bool",
          "name": "sendToSecret",
          "type": "bool"
        },
        {
          "internalType": "bytes32",
          "name": "payloadHash",
          "type": "bytes32"
        },
        {
          "internalType": "string",
          "name": "routingInfo",
          "type": "string"
        },
        {
          "components": [
            {
              "internalType": "bytes",
              "name": "user_key",
              "type": "bytes"
            },
            {
              "internalType": "bytes",
              "name": "user_pubkey",
              "type": "bytes"
            },
            {
              "internalType": "string",
              "name": "routing_code_hash",
              "type": "string"
            },
            {
              "internalType": "string",
              "name": "task_destination_network",
              "type": "string"
            },
            {
              "internalType": "string",
              "name": "handle",
              "type": "string"
            },
            {
              "internalType": "bytes12",
              "name": "nonce",
              "type": "bytes12"
            },
            {
              "internalType": "uint32",
              "name": "callback_gas_limit",
              "type": "uint32"
            },
            {
              "internalType": "bytes",
              "name": "payload",
              "type": "bytes"
            },
            {
              "internalType": "bytes",
              "name": "payload_signature",
              "type": "bytes"
            }
          ],
          "internalType": "struct IGateway.ExecutionInfo",
          "name": "info",
          "type": "tuple"
        }
      ],
      "name": "closeFundingRound",
      "outputs": [],
      "stateMutability": "payable",
      "type": "function"
    },
    {
      "inputs": [
        {
          "internalType": "uint256",
          "name": "roundId",
          "type": "uint256"
        },
        {
          "internalType": "bytes",
          "name": "json",
          "type": "bytes"
        }
      ],
      "name": "closedFundingRound",
      "outputs": [],
      "stateMutability": "nonpayable",
      "type": "function"
    },
    {
      "inputs": [
        {
          "internalType": "address",
          "name": "userAddress",
          "type": "address"
        },
        {
          "internalType": "bytes32",
          "name": "payloadHash",
          "type": "bytes32"
        },
        {
          "internalType": "string",
          "name": "routingInfo",
          "type": "string"
        },
        {
          "components": [
            {
              "internalType": "bytes",
              "name": "user_key",
              "type": "bytes"
            },
            {
              "internalType": "bytes",
              "name": "user_pubkey",
              "type": "bytes"
            },
            {
              "internalType": "string",
              "name": "routing_code_hash",
              "type": "string"
            },
            {
              "internalType": "string",
              "name": "task_destination_network",
              "type": "string"
            },
            {
              "internalType": "string",
              "name": "handle",
              "type": "string"
            },
            {
              "internalType": "bytes12",
              "name": "nonce",
              "type": "bytes12"
            },
            {
              "internalType": "uint32",
              "name": "callback_gas_limit",
              "type": "uint32"
            },
            {
              "internalType": "bytes",
              "name": "payload",
              "type": "bytes"
            },
            {
              "internalType": "bytes",
              "name": "payload_signature",
              "type": "bytes"
            }
          ],
          "internalType": "struct IGateway.ExecutionInfo",
          "name": "info",
          "type": "tuple"
        }
      ],
      "name": "contribute",
      "outputs": [],
      "stateMutability": "payable",
      "type": "function"
    },
    {
      "inputs": [
        {
          "internalType": "uint256",
          "name": "roundId",
          "type": "uint256"
        },
        {
          "internalType": "bytes",
          "name": "json",
          "type": "bytes"
        }
      ],
      "name": "contributed",
      "outputs": [],
      "stateMutability": "nonpayable",
      "type": "function"
    },
    {
      "inputs": [
        {
          "internalType": "uint256",
          "name": "id",
          "type": "uint256"
        },
        {
          "internalType": "string",
          "name": "name",
          "type": "string"
        },
        {
          "internalType": "string",
          "name": "description",
          "type": "string"
        },
        {
          "internalType": "string",
          "name": "curveType",
          "type": "string"
        },
        {
          "internalType": "uint256[]",
          "name": "projectIds",
          "type": "uint256[]"
        },
        {
          "internalType": "string[]",
          "name": "projectNames",
          "type": "string[]"
        },
        {
          "internalType": "string[]",
          "name": "projectDescriptions",
          "type": "string[]"
        },
        {
          "internalType": "address payable[]",
          "name": "projectAddresses",
          "type": "address[]"
        },
        {
          "internalType": "address",
          "name": "userAddress",
          "type": "address"
        },
        {
          "internalType": "bool",
          "name": "sendToSecret",
          "type": "bool"
        },
        {
          "internalType": "bytes32",
          "name": "payloadHash",
          "type": "bytes32"
        },
        {
          "internalType": "string",
          "name": "routingInfo",
          "type": "string"
        },
        {
          "components": [
            {
              "internalType": "bytes",
              "name": "user_key",
              "type": "bytes"
            },
            {
              "internalType": "bytes",
              "name": "user_pubkey",
              "type": "bytes"
            },
            {
              "internalType": "string",
              "name": "routing_code_hash",
              "type": "string"
            },
            {
              "internalType": "string",
              "name": "task_destination_network",
              "type": "string"
            },
            {
              "internalType": "string",
              "name": "handle",
              "type": "string"
            },
            {
              "internalType": "bytes12",
              "name": "nonce",
              "type": "bytes12"
            },
            {
              "internalType": "uint32",
              "name": "callback_gas_limit",
              "type": "uint32"
            },
            {
              "internalType": "bytes",
              "name": "payload",
              "type": "bytes"
            },
            {
              "internalType": "bytes",
              "name": "payload_signature",
              "type": "bytes"
            }
          ],
          "internalType": "struct IGateway.ExecutionInfo",
          "name": "info",
          "type": "tuple"
        }
      ],
      "name": "createFundingRound",
      "outputs": [],
      "stateMutability": "payable",
      "type": "function"
    },
    {
      "inputs": [
        {
          "internalType": "uint256",
          "name": "roundId",
          "type": "uint256"
        },
        {
          "internalType": "bytes",
          "name": "json",
          "type": "bytes"
        }
      ],
      "name": "createdFundingRound",
      "outputs": [],
      "stateMutability": "nonpayable",
      "type": "function"
    },
    {
      "inputs": [
        {
          "internalType": "uint256",
          "name": "roundId",
          "type": "uint256"
        },
        {
          "internalType": "bytes32",
          "name": "payloadHash",
          "type": "bytes32"
        },
        {
          "internalType": "string",
          "name": "routingInfo",
          "type": "string"
        },
        {
          "components": [
            {
              "internalType": "bytes",
              "name": "user_key",
              "type": "bytes"
            },
            {
              "internalType": "bytes",
              "name": "user_pubkey",
              "type": "bytes"
            },
            {
              "internalType": "string",
              "name": "routing_code_hash",
              "type": "string"
            },
            {
              "internalType": "string",
              "name": "task_destination_network",
              "type": "string"
            },
            {
              "internalType": "string",
              "name": "handle",
              "type": "string"
            },
            {
              "internalType": "bytes12",
              "name": "nonce",
              "type": "bytes12"
            },
            {
              "internalType": "uint32",
              "name": "callback_gas_limit",
              "type": "uint32"
            },
            {
              "internalType": "bytes",
              "name": "payload",
              "type": "bytes"
            },
            {
              "internalType": "bytes",
              "name": "payload_signature",
              "type": "bytes"
            }
          ],
          "internalType": "struct IGateway.ExecutionInfo",
          "name": "info",
          "type": "tuple"
        }
      ],
      "name": "distributeFunding",
      "outputs": [],
      "stateMutability": "payable",
      "type": "function"
    },
    {
      "inputs": [
        {
          "internalType": "uint256",
          "name": "roundId",
          "type": "uint256"
        },
        {
          "internalType": "bytes",
          "name": "json",
          "type": "bytes"
        }
      ],
      "name": "distributedFunding",
      "outputs": [],
      "stateMutability": "nonpayable",
      "type": "function"
    },
    {
      "inputs": [
        {
          "internalType": "uint256",
          "name": "",
          "type": "uint256"
        }
      ],
      "name": "fundingRounds",
      "outputs": [
        {
          "internalType": "uint256",
          "name": "id",
          "type": "uint256"
        },
        {
          "internalType": "string",
          "name": "name",
          "type": "string"
        },
        {
          "internalType": "string",
          "name": "description",
          "type": "string"
        },
        {
          "internalType": "string",
          "name": "curveType",
          "type": "string"
        },
        {
          "internalType": "uint256",
          "name": "totalContributions",
          "type": "uint256"
        },
        {
          "internalType": "bool",
          "name": "isOpen",
          "type": "bool"
        }
      ],
      "stateMutability": "view",
      "type": "function"
    },
    {
      "inputs": [],
      "name": "gatewayAddressSepolia",
      "outputs": [
        {
          "internalType": "address",
          "name": "",
          "type": "address"
        }
      ],
      "stateMutability": "view",
      "type": "function"
    },
    {
      "inputs": [],
      "name": "gatewayContract",
      "outputs": [
        {
          "internalType": "contract IGateway",
          "name": "",
          "type": "address"
        }
      ],
      "stateMutability": "view",
      "type": "function"
    },
    {
      "inputs": [
        {
          "internalType": "uint256",
          "name": "",
          "type": "uint256"
        }
      ],
      "name": "roundIds",
      "outputs": [
        {
          "internalType": "uint256",
          "name": "",
          "type": "uint256"
        }
      ],
      "stateMutability": "view",
      "type": "function"
    }
  ],
  "transactionHash": "0xa3e91d0e8bf4c34bbb8a22a9b8dc5d4ffd3027f759ebdefcc5af5c744db1530d",
  "args": [],
  "numDeployments": 16,
  "solcInputHash": "bdae76a3226b8a6c149ec813eb288483",
  "bytecode": "0x6080806040523461003c57600280546001600160a01b031916733879e146140b627a5c858a08e507b171d9e431391790556128c390816100428239f35b600080fdfe608080604052600436101561001357600080fd5b600090813560e01c908163763a3df6146115a4575080637faf8dcf146111075780638b3b57a4146110d057806390a4cb9b1461107e578063b239a41214611047578063c06d5ba914610ef4578063c428a27814610e51578063c5ad404314610e1a578063c9640c0914610deb578063cd9b282414610cb5578063e09a1094146100d05763eb0cde1d146100a557600080fd5b346100cd57806003193601126100cd576002546040516001600160a01b039091168152602090f35b80fd5b506101a03660031901126100cd576024356001600160401b038111610cb1576100fd9036906004016118fc565b6044356001600160401b038111610cad5761011c9036906004016118fc565b906064356001600160401b038111610c995761013c9036906004016118fc565b926001600160401b03608435116100cd573660236084350112156100cd576084356004013561016a81611917565b90610178604051928361170e565b8082526020820190813660248360051b608435010111610c9557602460843501905b60248360051b60843501018210610c9d5750505060a4356001600160401b038111610c99576101cd90369060040161192e565b9560c4356001600160401b038111610c95576101ed90369060040161192e565b916001600160401b0360e43511610c955736602360e435011215610c955760e435600401359161021c83611917565b9261022a604051948561170e565b80845260208401903660248260051b60e435010111610c6657602460e43501915b60248260051b60e43501018310610c7357505050610104356001600160a01b0381169003610c6e576101243515156101243503610c6e57610164356001600160401b038111610c6a576102a290369060040161167d565b6001600160401b036101843511610c66576101206101843536036003190112610c665786518b518091149081610c5b575b5080610c50575b15610c0b576004358852876020526040882054610bd45761012435610b52575b50506004358652856020526040862097600435895587516001600160401b038111610a835761032c60018b01546117dc565b601f8111610b0d575b50806020601f8211600114610aa2578991610a97575b508160011b916000199060031b1c19161760018a01555b8051906001600160401b038211610a8357819061038260028c01546117dc565b601f8111610a32575b50602090601f83116001146109c35789926109b8575b50508160011b916000199060031b1c19161760028901555b8051906001600160401b0382116109a45781906103d960038b01546117dc565b601f8111610953575b50602090601f83116001146108e45788926108d9575b50508160011b916000199060031b1c19161760038801555b60078701805460ff19166001179055845b84518110156107ff576104348186611b55565b5186526004880160205260408620546107c6576104518186611b55565b5161045c828b611b55565b51906104688387611b55565b516001600160a01b0361047b8588611b55565b5116906040519261048b846116d8565b835260208301938452604083015260608201528760808201528760a08201526104b48388611b55565b51885260048a01602052604088209181518355518051906001600160401b0382116106e75781906104e860018601546117dc565b601f8111610775575b50602090601f8311600114610706578b926106fb575b50508160011b916000199060031b1c19161760018301555b60408101518051906001600160401b0382116106e75761054260028501546117dc565b601f81116106a2575b50602090601f83116001146106305791806005949260a0948d92610625575b50508160011b916000199060031b1c19161760028501555b60038401600180841b036060830151166bffffffffffffffffffffffff841b8254161790556080810151600485015501519101556105c08186611b55565b5190600589015491600160401b83101561060f576105ed83600161060a950160058d015560058c016117c4565b819291549060031b600019811b9283911b16911916179055611b46565b610421565b634e487b7160e01b600052604160045260246000fd5b01519050388061056a565b90600285018b5260208b20918b5b601f198516811061068a5750926005949260019260a09583601f19811610610671575b505050811b016002850155610582565b015160001960f88460031b161c19169055388080610661565b9192602060018192868501518155019401920161063e565b600285018b5260208b20601f840160051c8101602085106106e0575b601f830160051c820181106106d457505061054b565b600081556001016106be565b50806106be565b634e487b7160e01b8a52604160045260248afd5b015190503880610507565b9250600185018b5260208b20908b935b601f198416851061075a576001945083601f19811610610741575b505050811b01600183015561051f565b015160001960f88460031b161c19169055388080610731565b81810151835560209485019460019093019290910190610716565b909150600185018b5260208b20601f840160051c8101602085106107bf575b90849392915b601f830160051c820181106107b05750506104f1565b6000815585945060010161079a565b5080610794565b60405162461bcd60e51b815260206004820152601160248201527050726f6a6563742049442065786973747360781b6044820152606490fd5b85828887600154600160401b81101561060f5760018101806001558110156108c3576001600052600435907fb10e2d527612073b26eecdfd717e6a320cf44b4afac2b0732d9fcbe2b7fa0cf601556020610864604051936040855260408501906118bc565b91838303828501525191828152019290845b8181106108ad57505050807f2fceaf42a6664f3294222799a359650844542179732d12b26b6926bd338479a591600435930390a280f35b8251855260209485019490920191600101610876565b634e487b7160e01b600052603260045260246000fd5b0151905038806103f8565b925060038a018852602088209088935b601f1984168510610938576001945083601f1981161061091f575b505050811b016003880155610410565b015160001960f88460031b161c1916905538808061090f565b818101518355602094850194600190930192909101906108f4565b90915060038a01885260208820601f840160051c81016020851061099d575b90849392915b601f830160051c8201811061098e5750506103e2565b60008155859450600101610978565b5080610972565b634e487b7160e01b87526041600452602487fd5b0151905038806103a1565b925060028b018952602089209089935b601f1984168510610a17576001945083601f198116106109fe575b505050811b0160028901556103b9565b015160001960f88460031b161c191690553880806109ee565b818101518355602094850194600190930192909101906109d3565b90915060028b01895260208920601f840160051c810160208510610a7c575b90849392915b601f830160051c82018110610a6d57505061038b565b60008155859450600101610a57565b5080610a51565b634e487b7160e01b88526041600452602488fd5b90508901513861034b565b915060018b0189526020892089925b8b601f1984168510610af657506001935082601f19811610610add575b5050811b0160018a0155610362565b8b015160001960f88460031b161c191690553880610ace565b810151825560209384019360019092019101610ab1565b60018b01895260208920601f830160051c810160208410610b4b575b601f830160051c82018110610b3f575050610335565b60008155600101610b29565b5080610b29565b6002546001600160a01b031690813b15610bd057918891610b99936040518095819482936339624a6b60e21b84526101843560040191610104356101443560048701611a00565b039134905af18015610bc557908791156102fa57610bb6906116aa565b610bc15785386102fa565b8580fd5b6040513d89823e3d90fd5b8880fd5b60405162461bcd60e51b815260206004820152600f60248201526e526f756e642049442065786973747360881b6044820152606490fd5b60405162461bcd60e51b815260206004820152601760248201527f4d69736d61746368656420696e707574206172726179730000000000000000006044820152606490fd5b5085518551146102da565b9050865114386102d3565b8780fd5b8680fd5b600080fd5b82356001600160a01b0381169003610bd057823581526020928301920161024b565b8480fd5b8380fd5b813581526020918201910161019a565b8280fd5b5080fd5b50600319608036820112610cb157600435906001600160401b03604435818111610c9557610ce790369060040161167d565b919092606435918211610bc157610120908236030112610c95578385528460205260ff600760408720015416610db0576002548593906001600160a01b0316803b15610c9557610d58938593604051958694859384936339624a6b60e21b8552600401913360243560048701611a00565b039134905af18015610da557610d91575b50807fe9f7d7fd0b133404f0ccff737d6f3594748e04bc5507adfaed35835ef989371191a280f35b610d9a906116aa565b610cb1578138610d69565b6040513d84823e3d90fd5b60405162461bcd60e51b8152602060048201526013602482015272149bdd5b99081a5cc81b9bdd0818db1bdcd959606a1b6044820152606490fd5b50346100cd57806003193601126100cd576020604051733879e146140b627a5c858a08e507b171d9e431398152f35b50346100cd57610e2936611781565b507f0de2355f73246cb2852175af9385f91c8205be026c831a20ada4062931abdec08280a280f35b50346100cd5760203660031901126100cd57604090600435815280602052208054610e7e60018301611816565b91610e8b60028201611816565b610ee3610e9a60038401611816565b610ed560ff600760068701549601541693610ec7604051988998895260c060208a015260c08901906118bc565b9087820360408901526118bc565b9085820360608701526118bc565b916080840152151560a08301520390f35b5060031960a036820112610cb15760043590602435908115158203610c6e576001600160401b03606435818111610bc157610f3390369060040161167d565b92608435928311610c6a57610120908336030112610bc1578486528560205260ff60076040882001541615611013578593858552846020526007604086200160ff198154169055610fa9575b505050807fe9f7d7fd0b133404f0ccff737d6f3594748e04bc5507adfaed35835ef989371191a280f35b6002546001600160a01b0316803b15610c9557610fe7938593604051958694859384936339624a6b60e21b8552600401913360443560048701611a00565b039134905af18015610da557610fff575b8080610f7f565b611008906116aa565b610cb1578138610ff8565b60405162461bcd60e51b815260206004820152600c60248201526b149bdd5b990818db1bdcd95960a21b6044820152606490fd5b50346100cd5761105636611781565b507f0e82eab4cbddb8a38b9fb81ba86a4a05ec8aa2c55dbea69d2e72857b4f90e9548280a280f35b50346100cd5760203660031901126100cd57600435600154811015610cb15760209060016000527fb10e2d527612073b26eecdfd717e6a320cf44b4afac2b0732d9fcbe2b7fa0cf60154604051908152f35b50346100cd576110df36611781565b507fdcad6660d3e34a68718474b3d2dfb7da8a012d967dfe595b0123a6112667f0688280a280f35b50346100cd5761111636611781565b9161112083611d3f565b80959250156115535760001985810195861161153f5760038096049361114585611917565b94611153604051968761170e565b808652611162601f1991611917565b01815b81811061151b575050805b855181101561144657808802908882048103611432576001918083019081841161141e57906111b9916111c3602092836111aa828c611b55565b5101519060609586918c611b55565b510151908b612806565b9260029182018092116112ab57906111f7916111ed846111e3848d611b55565b510151928b611b55565b510151908a612806565b858695808889948a935b6112bf575b5050505080611275575b5061124d575b926112489360405192611228846116bd565b83528201526112378289611b55565b526112428188611b55565b50611b46565b611170565b83600003938085058714901517611216575b634e487b7160e01b600052601160045260246000fd5b604d81969296116112ab57600a0a818102919060008212600160ff1b82141661125f57818305149015171561125f579338611210565b634e487b7160e01b87526011600452602487fd5b9091929881518a1015611418578915806113f7575b6113ee575b6112e38a83611ced565b51603060f891821c1015806113d7575b156113ab5783611382575b600a9182810292818405149015171561125f5761131b8b84611ced565b51901c90602f1980830192808413871661136e57908d91830101928312911290801582169115161761135a57906113548493929a611b46565b93611201565b634e487b7160e01b8b52601160045260248bfd5b634e487b7160e01b8e52601160045260248efd5b929099939185156000146113965750611206565b9193999092946113a590611d0f565b946112fe565b99602e83929b6113bd83889796611ced565b51901c146113cf575b61135490611b46565b8392506113c6565b5060396113e48c85611ced565b51821c11156112f3565b945082946112d9565b50602d60f81b6001600160f81b03196114108c85611ced565b5116146112d4565b98611206565b634e487b7160e01b85526011600452602485fd5b634e487b7160e01b83526011600452602483fd5b8588888481815260209281845260066040832001549282935b8184528386526005806040862001548610156114f25761148b86600460408820019260408820016117c4565b905490851b1c855286526040842090848080806114a88c87611b76565b9588015486906001600160a01b03168282156114e9575bf1156114de576114d8916114d291611b69565b94611b46565b9361145f565b6040513d86823e3d90fd5b506108fc6114bf565b84837fdcad6660d3e34a68718474b3d2dfb7da8a012d967dfe595b0123a6112667f0688280a280f35b60209060405161152a816116bd565b60608152828581830152828a01015201611165565b634e487b7160e01b84526011600452602484fd5b60405162461bcd60e51b8152602060048201526024808201527f4a534f4e2070617273696e67206661696c6564206f72206e6f206461746120666044820152631bdd5b9960e21b6064820152608490fd5b905081600319608036820112610cb157600435906001600160a01b038083168303610c99576001600160401b0391604435838111610bc1576115ea90369060040161167d565b929091606435948511610c6a57610120908536030112610bc1576002541692833b15610bc157869485938493611634936339624a6b60e21b86526004019260243560048701611a00565b039134905af18015610da55761166e575b50337f9ca0de0709c575c61710159cf212e68fa7f9bd8d600cb008ae8c028b7e54b7058280a280f35b611677906116aa565b38611645565b9181601f84011215610c6e578235916001600160401b038311610c6e5760208381860195010111610c6e57565b6001600160401b03811161060f57604052565b604081019081106001600160401b0382111761060f57604052565b60c081019081106001600160401b0382111761060f57604052565b606081019081106001600160401b0382111761060f57604052565b90601f801991011681019081106001600160401b0382111761060f57604052565b6001600160401b03811161060f57601f01601f191660200190565b9291926117568261172f565b91611764604051938461170e565b829481845281830111610c6e578281602093846000960137010152565b906040600319830112610c6e5760043591602435906001600160401b038211610c6e5780602383011215610c6e578160246117c19360040135910161174a565b90565b80548210156108c35760005260206000200190600090565b90600182811c9216801561180c575b60208310146117f657565b634e487b7160e01b600052602260045260246000fd5b91607f16916117eb565b906040519182600082549261182a846117dc565b9081845260019485811690816000146118995750600114611856575b50506118549250038361170e565b565b9093915060005260209081600020936000915b81831061188157505061185493508201013880611846565b85548884018501529485019487945091830191611869565b91505061185494506020925060ff191682840152151560051b8201013880611846565b919082519283825260005b8481106118e8575050826000602080949584010152601f8019910116010190565b6020818301810151848301820152016118c7565b9080601f83011215610c6e578160206117c19335910161174a565b6001600160401b03811161060f5760051b60200190565b9080601f83011215610c6e5781359061194682611917565b92611954604051948561170e565b828452602092838086019160051b83010192808411610c6e57848301915b8483106119825750505050505090565b82356001600160401b038111610c6e5786916119a3848480948901016118fc565b815201920191611972565b908060209392818452848401376000828201840152601f01601f1916010190565b9035601e1982360301811215610c6e5701602081359101916001600160401b038211610c6e578136038313610c6e57565b9081526001600160a01b039091166020820152608060408201819052909392611a2c92918501916119ae565b916060818403910152611ac8611aad611a92611a77611a5c611a4e86806119cf565b610120808a528901916119ae565b611a6960208701876119cf565b9088830360208a01526119ae565b611a8460408601866119cf565b9087830360408901526119ae565b611a9f60608501856119cf565b9086830360608801526119ae565b611aba60808401846119cf565b9085830360808701526119ae565b9160a08201356bffffffffffffffffffffffff60a01b8116809103610c6e5760a082015260c082013563ffffffff8116809103610c6e576117c193611b279160c0840152611b1960e08501856119cf565b9084830360e08601526119ae565b91611b3861010091828101906119cf565b9290918185039101526119ae565b600019811461125f5760010190565b80518210156108c35760209160051b010190565b9190820391821161125f57565b9060005b8151811015611c9457611b8d8183611b55565b5151805160208092012060018086019060405190816000845494611bb0866117dc565b9081845288840196898682169182600014611c75575050600114611c38575b5050611bdd9250038261170e565b51902014611bf45750611bef90611b46565b611b7a565b60049384015493929091611c0791611b55565b51015191828102928184041490151715611c2357506064900490565b601190634e487b7160e01b6000525260246000fd5b9150915060005285600020916000925b828410611c62575050508185611bdd928201013880611bcf565b8054858501890152928701928101611c48565b9250935050611bdd945060ff19168652151560051b8201013880611bcf565b505050600090565b60405190611ca9826116f3565b60006040838281528260208201520152565b60405190611cc8826116d8565b8160a06000918281528260208201528260408201528260608201528260808201520152565b9081518110156108c3570160200190565b60ff1660ff811461125f5760010190565b801561125f576000190190565b516005811015611d295790565b634e487b7160e01b600052602160045260246000fd5b611d47611c9c565b50611d50611c9c565b506040805192611d5f846116f3565b600091828552602090818601908482528087016000199182825280516102a081018181106001600160401b038211176123d75782526014815285885b61028081106123c157505097845191611db2611cbb565b505b8a5182518110156123b3576001600160f81b031990611dd39084611ced565b5116607b60f81b81148080156123a6575b6122fa5750607d60f81b81148080156122ed575b61216f5750601160f91b811461216257600160fd1b8181148015612155575b8015612148575b801561213b575b61213457601d60f91b821461210b57600b60fa1b8214611fd057600360fc1b82101580611fc2575b8015611fb5575b8015611fa8575b8015611f9b575b8015611f8e575b611eaa578110159081611e9b575b50611e8e575b611e878b51611b46565b8b52611db4565b5060019950505050505050565b603f60f91b1015905038611e77565b5050918351858103611f13575b50611ec3828b8d61269c565b80611f085750611ed290611b46565b918351858103611ee3575b50611e7d565b611eef60a0918c611b55565b510160ff611eff81835116611cfe565b16905238611edd565b9a5050505050505050565b611f1d908b611b55565b5180519060059081831015611f7a576001809314918215611f4b575b505015611eb7579a5050505050505050565b8151919250811015611f7a576003149081611f69575b503880611f39565b60ff915060a0015116151538611f61565b634e487b7160e01b8c52602160045260248cfd5b50603760f91b8214611e69565b50601d60fa1b8214611e62565b50603360f91b8214611e5b565b50602d60f81b8214611e54565b50603960f81b821115611e4d565b505083518581141590816120e9575b50806120b4575b15611e7d57959297989693909491825182810190811161135a575b61201461200e828b611b55565b51611d1c565b600590818110156120a057600214908115612080575b5061203e575b61203990611d0f565b612001565b87612049828b611b55565b51015115158061206a575b15612030578994979193969295989a9952611e7d565b506080612077828b611b55565b51015115612054565b905061208f61200e838c611b55565b90811015611f7a576001143861202a565b634e487b7160e01b8d52602160045260248dfd5b506120c361200e85518c611b55565b60058110156120d55760011415611fe6565b634e487b7160e01b8a52602160045260248afd5b6120f8915061200e908c611b55565b60058110156120d5576002141538611fdf565b50508551858101908111612120578452611e7d565b634e487b7160e01b8a52601160045260248afd5b5050611e7d565b50600560fa1b8214611e25565b50600960f91b8214611e1e565b50601160f81b8214611e17565b5091611ec3828b8d612480565b9050899691989594999a9792939a506000146122e5576001995b81518581019081116122d1575b6121a0818a611b55565b518a8101511515806122c5575b6121c057506121bb90611d0f565b612196565b9b90919493989b9a95969992979a516005808210156120a057821015611f7a57036122a3578585528b516001908181018091116122b1576080612214848f8594606061220c8484611b55565b510152611b55565b510152156122a357805b612262575b801561222f5750611e7d565b612239818c611b55565b518281015115159081612255575b5015611edd57845238611edd565b6080915001511538612247565b61226c818c611b55565b518281015115159081612296575b5061228e5761228890611d0f565b8061221e565b808552612223565b608091500151153861227a565b5060019a5050505050505050565b634e487b7160e01b8c52601160045260248cfd5b506080810151156121ad565b634e487b7160e01b88526011600452602488fd5b600299612189565b50605d60f81b8214611df8565b936123059150611b46565b926123108b8d6123eb565b9190156123975785518c888203612371575b50501561236a5760015b60058110156123565781528b51888201526001908201528551858101908111612120578452611e7d565b634e487b7160e01b8b52602160045260248bfd5b600261232c565b60a09161237d91611b55565b510160ff61238d81835116611cfe565b169052388c612322565b5060039b505050505050505050565b50605b60f81b8214611de4565b505093519698505050505050565b6123c9611cbb565b828285010152018690611d9b565b634e487b7160e01b89526041600452602489fd5b6020909291926123f9611cbb565b50018051835180911015612461575061244e60405193612418856116d8565b600080865280602087015280604087015280606087015280608087015260a0860152825190856124488383611b55565b52611b55565b506124598151611b46565b905260019190565b91929160001981019150811161125f5761247a91611b55565b51600091565b92919083519161248e611cbb565b506124998551611b46565b85525b84518151811015612691576124b19082611ced565b516001600160f81b031990601160f91b90828116821461263c5760f81c605c1480612611575b6124ef5750505b6124e88551611b46565b855261249c565b816125066124fd8951611b46565b808a5285611ced565b5116149081156125f5575b81156125d9575b81156125bd575b81156125a1575b8115612585575b8115612569575b811561254d575b506000036124de575050909152600190565b8651601d60fa1b92506125609084611ced565b5116143861253b565b9050603160f91b8161257c885185611ced565b51161490612534565b9050603760f91b81612598885185611ced565b5116149061252d565b9050603960f91b816125b4885185611ced565b51161490612526565b9050603360f91b816125d0885185611ced565b5116149061251f565b9050601760fa1b816125ec885185611ced565b51161490612518565b9050602f60f81b81612608885185611ced565b51161490612511565b50865160018101809111612627578351116124d7565b60246000634e487b7160e01b81526011600452fd5b5050505061264c908493946123eb565b919015612688576001908181018091116126275760a0935190600384526020840152816040840152606083015260808201526000918291015290565b91905052600390565b505050909152600290565b92919060008451926126ac611cbb565b505b855181518110156127fb576126c39082611ced565b516001600160f81b03198116600160fd1b81149081156127ed575b81156127df575b81156127d1575b81156127c3575b81156127b5575b81156127a7575b506127415760f81c60208110908115612736575b5061272b576127248651611b46565b86526126ae565b505050909152600190565b607f91501138612715565b5050506001939192935b156127a05761275a90826123eb565b90156127995760a090829360009351906004835260208301526001604083015260608201526001608082015201526127928151611d0f565b9052600090565b5052600390565b5052600290565b605d60f81b14905038612701565b607d60f81b811491506126fa565b600b60fa1b811491506126f3565b600d60f81b811491506126ec565b600560f91b811491506126e5565b600960f81b811491506126de565b50509391929361274b565b92916128128282611b69565b9161281c8361172f565b9261282a604051948561170e565b808452612839601f199161172f565b01366020850137805b82811061285157509193505050565b612888906001600160f81b03196128688289611ced565b51166128826128778584611b69565b9160001a9187611ced565b53611b46565b61284256fea2646970667358221220d558e35ca42cfbec43c5f8a2a4b5db26cbd0c5239705936c4065a5f8d04468f364736f6c63430008110033",
  "devdoc": {
    "author": "arjanjohan",
    "kind": "dev",
    "methods": {},
    "version": 1
  },
  "userdoc": {
    "kind": "user",
    "methods": {},
    "notice": "A smart contract for cross-chain quadratic voting developed during EthDam 24. This contract supports various types of funding curves and ensures privacy and security through integration with the Secret Network.",
    "version": 1
  },
  "storageLayout": {
    "storage": [
      {
        "astId": 48,
        "contract": "contracts/Funding.sol:Funding",
        "label": "fundingRounds",
        "offset": 0,
        "slot": "0",
        "type": "t_mapping(t_uint256,t_struct(FundingRound)38_storage)"
      },
      {
        "astId": 51,
        "contract": "contracts/Funding.sol:Funding",
        "label": "roundIds",
        "offset": 0,
        "slot": "1",
        "type": "t_array(t_uint256)dyn_storage"
      },
      {
        "astId": 54,
        "contract": "contracts/Funding.sol:Funding",
        "label": "gatewayContract",
        "offset": 0,
        "slot": "2",
        "type": "t_contract(IGateway)2417"
      }
    ],
    "types": {
      "t_address_payable": {
        "encoding": "inplace",
        "label": "address payable",
        "numberOfBytes": "20"
      },
      "t_array(t_uint256)dyn_storage": {
        "base": "t_uint256",
        "encoding": "dynamic_array",
        "label": "uint256[]",
        "numberOfBytes": "32"
      },
      "t_bool": {
        "encoding": "inplace",
        "label": "bool",
        "numberOfBytes": "1"
      },
      "t_contract(IGateway)2417": {
        "encoding": "inplace",
        "label": "contract IGateway",
        "numberOfBytes": "20"
      },
      "t_mapping(t_uint256,t_struct(FundingRound)38_storage)": {
        "encoding": "mapping",
        "key": "t_uint256",
        "label": "mapping(uint256 => struct Funding.FundingRound)",
        "numberOfBytes": "32",
        "value": "t_struct(FundingRound)38_storage"
      },
      "t_mapping(t_uint256,t_struct(Project)17_storage)": {
        "encoding": "mapping",
        "key": "t_uint256",
        "label": "mapping(uint256 => struct Funding.Project)",
        "numberOfBytes": "32",
        "value": "t_struct(Project)17_storage"
      },
      "t_string_storage": {
        "encoding": "bytes",
        "label": "string",
        "numberOfBytes": "32"
      },
      "t_struct(FundingRound)38_storage": {
        "encoding": "inplace",
        "label": "struct Funding.FundingRound",
        "members": [
          {
            "astId": 19,
            "contract": "contracts/Funding.sol:Funding",
            "label": "id",
            "offset": 0,
            "slot": "0",
            "type": "t_uint256"
          },
          {
            "astId": 21,
            "contract": "contracts/Funding.sol:Funding",
            "label": "name",
            "offset": 0,
            "slot": "1",
            "type": "t_string_storage"
          },
          {
            "astId": 23,
            "contract": "contracts/Funding.sol:Funding",
            "label": "description",
            "offset": 0,
            "slot": "2",
            "type": "t_string_storage"
          },
          {
            "astId": 25,
            "contract": "contracts/Funding.sol:Funding",
            "label": "curveType",
            "offset": 0,
            "slot": "3",
            "type": "t_string_storage"
          },
          {
            "astId": 30,
            "contract": "contracts/Funding.sol:Funding",
            "label": "projects",
            "offset": 0,
            "slot": "4",
            "type": "t_mapping(t_uint256,t_struct(Project)17_storage)"
          },
          {
            "astId": 33,
            "contract": "contracts/Funding.sol:Funding",
            "label": "projectIds",
            "offset": 0,
            "slot": "5",
            "type": "t_array(t_uint256)dyn_storage"
          },
          {
            "astId": 35,
            "contract": "contracts/Funding.sol:Funding",
            "label": "totalContributions",
            "offset": 0,
            "slot": "6",
            "type": "t_uint256"
          },
          {
            "astId": 37,
            "contract": "contracts/Funding.sol:Funding",
            "label": "isOpen",
            "offset": 0,
            "slot": "7",
            "type": "t_bool"
          }
        ],
        "numberOfBytes": "256"
      },
      "t_struct(Project)17_storage": {
        "encoding": "inplace",
        "label": "struct Funding.Project",
        "members": [
          {
            "astId": 6,
            "contract": "contracts/Funding.sol:Funding",
            "label": "id",
            "offset": 0,
            "slot": "0",
            "type": "t_uint256"
          },
          {
            "astId": 8,
            "contract": "contracts/Funding.sol:Funding",
            "label": "name",
            "offset": 0,
            "slot": "1",
            "type": "t_string_storage"
          },
          {
            "astId": 10,
            "contract": "contracts/Funding.sol:Funding",
            "label": "description",
            "offset": 0,
            "slot": "2",
            "type": "t_string_storage"
          },
          {
            "astId": 12,
            "contract": "contracts/Funding.sol:Funding",
            "label": "projectAddress",
            "offset": 0,
            "slot": "3",
            "type": "t_address_payable"
          },
          {
            "astId": 14,
            "contract": "contracts/Funding.sol:Funding",
            "label": "totalContributions",
            "offset": 0,
            "slot": "4",
            "type": "t_uint256"
          },
          {
            "astId": 16,
            "contract": "contracts/Funding.sol:Funding",
            "label": "totalSquareRoots",
            "offset": 0,
            "slot": "5",
            "type": "t_uint256"
          }
        ],
        "numberOfBytes": "192"
      },
      "t_uint256": {
        "encoding": "inplace",
        "label": "uint256",
        "numberOfBytes": "32"
      }
    }
  }
}