{
  "address": "0xd2afe636a676aDF5Fd5CC414C95d3d45baF85954",
  "abi": [
    {
      "inputs": [],
      "stateMutability": "nonpayable",
      "type": "constructor"
    },
    {
      "anonymous": false,
      "inputs": [
        {
          "indexed": false,
          "internalType": "address",
          "name": "contributor",
          "type": "address"
        },
        {
          "indexed": false,
          "internalType": "uint256",
          "name": "roundId",
          "type": "uint256"
        },
        {
          "indexed": false,
          "internalType": "uint256[]",
          "name": "projectIds",
          "type": "uint256[]"
        },
        {
          "indexed": false,
          "internalType": "uint256[]",
          "name": "amounts",
          "type": "uint256[]"
        }
      ],
      "name": "ContributionReceived",
      "type": "event"
    },
    {
      "anonymous": false,
      "inputs": [
        {
          "indexed": false,
          "internalType": "uint256",
          "name": "roundId",
          "type": "uint256"
        }
      ],
      "name": "RoundClosed",
      "type": "event"
    },
    {
      "anonymous": false,
      "inputs": [
        {
          "indexed": false,
          "internalType": "uint256",
          "name": "roundId",
          "type": "uint256"
        },
        {
          "indexed": false,
          "internalType": "string",
          "name": "name",
          "type": "string"
        },
        {
          "indexed": false,
          "internalType": "uint256[]",
          "name": "projects",
          "type": "uint256[]"
        }
      ],
      "name": "RoundCreated",
      "type": "event"
    },
    {
      "inputs": [
        {
          "internalType": "uint256",
          "name": "roundId",
          "type": "uint256"
        }
      ],
      "name": "closeFundingRound",
      "outputs": [],
      "stateMutability": "nonpayable",
      "type": "function"
    },
    {
      "inputs": [
        {
          "internalType": "uint256",
          "name": "roundId",
          "type": "uint256"
        },
        {
          "internalType": "uint256[]",
          "name": "projectIds",
          "type": "uint256[]"
        },
        {
          "internalType": "uint256[]",
          "name": "amounts",
          "type": "uint256[]"
        },
        {
          "internalType": "bytes32",
          "name": "payloadHash",
          "type": "bytes32"
        },
        {
          "internalType": "string",
          "name": "routingInfo",
          "type": "string"
        },
        {
          "components": [
            {
              "internalType": "bytes",
              "name": "user_key",
              "type": "bytes"
            },
            {
              "internalType": "bytes",
              "name": "user_pubkey",
              "type": "bytes"
            },
            {
              "internalType": "string",
              "name": "routing_code_hash",
              "type": "string"
            },
            {
              "internalType": "string",
              "name": "task_destination_network",
              "type": "string"
            },
            {
              "internalType": "string",
              "name": "handle",
              "type": "string"
            },
            {
              "internalType": "bytes12",
              "name": "nonce",
              "type": "bytes12"
            },
            {
              "internalType": "uint32",
              "name": "callback_gas_limit",
              "type": "uint32"
            },
            {
              "internalType": "bytes",
              "name": "payload",
              "type": "bytes"
            },
            {
              "internalType": "bytes",
              "name": "payload_signature",
              "type": "bytes"
            }
          ],
          "internalType": "struct IGateway.ExecutionInfo",
          "name": "info",
          "type": "tuple"
        }
      ],
      "name": "contribute",
      "outputs": [],
      "stateMutability": "payable",
      "type": "function"
    },
    {
      "inputs": [
        {
          "internalType": "uint256",
          "name": "id",
          "type": "uint256"
        },
        {
          "internalType": "string",
          "name": "name",
          "type": "string"
        },
        {
          "internalType": "string",
          "name": "description",
          "type": "string"
        },
        {
          "internalType": "uint256[]",
          "name": "projectIds",
          "type": "uint256[]"
        },
        {
          "internalType": "string[]",
          "name": "projectNames",
          "type": "string[]"
        },
        {
          "internalType": "string[]",
          "name": "projectDescriptions",
          "type": "string[]"
        },
        {
          "internalType": "bytes32",
          "name": "payloadHash",
          "type": "bytes32"
        },
        {
          "internalType": "string",
          "name": "routingInfo",
          "type": "string"
        },
        {
          "components": [
            {
              "internalType": "bytes",
              "name": "user_key",
              "type": "bytes"
            },
            {
              "internalType": "bytes",
              "name": "user_pubkey",
              "type": "bytes"
            },
            {
              "internalType": "string",
              "name": "routing_code_hash",
              "type": "string"
            },
            {
              "internalType": "string",
              "name": "task_destination_network",
              "type": "string"
            },
            {
              "internalType": "string",
              "name": "handle",
              "type": "string"
            },
            {
              "internalType": "bytes12",
              "name": "nonce",
              "type": "bytes12"
            },
            {
              "internalType": "uint32",
              "name": "callback_gas_limit",
              "type": "uint32"
            },
            {
              "internalType": "bytes",
              "name": "payload",
              "type": "bytes"
            },
            {
              "internalType": "bytes",
              "name": "payload_signature",
              "type": "bytes"
            }
          ],
          "internalType": "struct IGateway.ExecutionInfo",
          "name": "info",
          "type": "tuple"
        }
      ],
      "name": "createFundingRound",
      "outputs": [],
      "stateMutability": "payable",
      "type": "function"
    },
    {
      "inputs": [
        {
          "internalType": "uint256",
          "name": "",
          "type": "uint256"
        }
      ],
      "name": "fundingRounds",
      "outputs": [
        {
          "internalType": "uint256",
          "name": "id",
          "type": "uint256"
        },
        {
          "internalType": "string",
          "name": "name",
          "type": "string"
        },
        {
          "internalType": "string",
          "name": "description",
          "type": "string"
        },
        {
          "internalType": "bool",
          "name": "isOpen",
          "type": "bool"
        }
      ],
      "stateMutability": "view",
      "type": "function"
    },
    {
      "inputs": [],
      "name": "gatewayContract",
      "outputs": [
        {
          "internalType": "contract IGateway",
          "name": "",
          "type": "address"
        }
      ],
      "stateMutability": "view",
      "type": "function"
    },
    {
      "inputs": [
        {
          "internalType": "uint256",
          "name": "",
          "type": "uint256"
        }
      ],
      "name": "roundIds",
      "outputs": [
        {
          "internalType": "uint256",
          "name": "",
          "type": "uint256"
        }
      ],
      "stateMutability": "view",
      "type": "function"
    }
  ],
  "transactionHash": "0x183a09de9624db53a47e070abb824b956ffcf8d5f0ffc8b7faa72416742394d4",
  "args": [],
  "numDeployments": 3,
  "solcInputHash": "db73cf37b9de03c5eb5e6e2a96d7ceca",
  "bytecode": "0x6080604052600180546001600160a01b031916733879e146140b627a5c858a08e507b171d9e4313917905534801561003657600080fd5b50600154600080546001600160a01b0319166001600160a01b039092169190911790556112f1806100686000396000f3fe6080604052600436106100555760003560e01c80630f79a0901461005a57806390a4cb9b1461006f578063a7e36ab5146100a2578063a7fd1bc4146100c2578063c428a278146100d5578063eb0cde1d14610105575b600080fd5b61006d610068366004610a8e565b61013d565b005b34801561007b57600080fd5b5061008f61008a366004610b54565b6103fd565b6040519081526020015b60405180910390f35b3480156100ae57600080fd5b5061006d6100bd366004610b54565b61041e565b61006d6100d0366004610c5d565b6104a5565b3480156100e157600080fd5b506100f56100f0366004610b54565b61081a565b6040516100999493929190610dd8565b34801561011157600080fd5b50600054610125906001600160a01b031681565b6040516001600160a01b039091168152602001610099565b6000878152600260205260409020541580159061015957508615155b6101aa5760405162461bcd60e51b815260206004820152601c60248201527f46756e64696e6720726f756e6420646f6573206e6f742065786973740000000060448201526064015b60405180910390fd5b60008781526002602052604090206005015460ff166101db5760405162461bcd60e51b81526004016101a190610e17565b3460005b865181101561034957600260008a8152602001908152602001600020600301600089838151811061021257610212610e5b565b6020026020010151815260200190815260200160002060000154600014158015610256575087818151811061024957610249610e5b565b6020026020010151600014155b61029b5760405162461bcd60e51b8152602060048201526016602482015275141c9bda9958dd08191bd95cc81b9bdd08195e1a5cdd60521b60448201526064016101a1565b8681815181106102ad576102ad610e5b565b60200260200101518210156103105760405162461bcd60e51b8152602060048201526024808201527f496e73756666696369656e742066756e647320666f7220636f6e747269627574604482015263696f6e7360e01b60648201526084016101a1565b86818151811061032257610322610e5b565b6020026020010151826103359190610e87565b91508061034181610ea0565b9150506101df565b506000546040516339624a6b60e21b81526001600160a01b039091169063e58929ac90839061038490899033908a908a908a90600401610f59565b6000604051808303818588803b15801561039d57600080fd5b505af11580156103b1573d6000803e3d6000fd5b50505050507fb6d8c23e8e946197030ead9d3a40e2138fb3c50515d0674f400930b0b37042c8338989896040516103eb94939291906110ff565b60405180910390a15050505050505050565b6003818154811061040d57600080fd5b600091825260209091200154905081565b60008181526002602052604090206005015460ff1661044f5760405162461bcd60e51b81526004016101a190610e17565b60008181526002602052604090819020600501805460ff19169055517fe9f7d7fd0b133404f0ccff737d6f3594748e04bc5507adfaed35835ef98937119061049a9083815260200190565b60405180910390a150565b855187511480156104b7575084518651145b6105145760405162461bcd60e51b815260206004820152602860248201527f50726f6a65637420617272617973206d7573742068617665207468652073616d6044820152670ca40d8cadccee8d60c31b60648201526084016101a1565b60008a81526002602052604090205415801561052f57508915155b61057b5760405162461bcd60e51b815260206004820152601f60248201527f46756e64696e6720726f756e6420494420616c7265616479206578697374730060448201526064016101a1565b6000546040516339624a6b60e21b81526001600160a01b039091169063e58929ac9034906105b59088903390899089908990600401610f59565b6000604051808303818588803b1580156105ce57600080fd5b505af11580156105e2573d6000803e3d6000fd5b50505060008c81526002602052604090208c8155915050600181016106078b826111c6565b50600281016106168a826111c6565b5060058101805460ff1916600117905560005b885181101561079b57600089828151811061064657610646610e5b565b6020026020010151905082600301600082815260200190815260200160002060000154600014801561067757508015155b6106c35760405162461bcd60e51b815260206004820152601960248201527f50726f6a65637420494420616c7265616479206578697374730000000000000060448201526064016101a1565b6040518060a001604052808281526020018a84815181106106e6576106e6610e5b565b6020026020010151815260200189848151811061070557610705610e5b565b602090810291909101810151825260008282018190526040928301819052848152600387018252919091208251815590820151600182019061074790826111c6565b506040820151600282019061075c90826111c6565b5060608201516003820155608090910151600491820155830180546001810182556000918252602090912001558061079381610ea0565b915050610629565b50600380546001810182556000919091527fc2575a0e9e593c00f959f8c92f12db2869c3395a3b0502d05e2516446f71f85b018b90556040517f2fceaf42a6664f3294222799a359650844542179732d12b26b6926bd338479a590610805908d908d908c90611286565b60405180910390a15050505050505050505050565b6002602052600090815260409020805460018201805491929161083c90611143565b80601f016020809104026020016040519081016040528092919081815260200182805461086890611143565b80156108b55780601f1061088a576101008083540402835291602001916108b5565b820191906000526020600020905b81548152906001019060200180831161089857829003601f168201915b5050505050908060020180546108ca90611143565b80601f01602080910402602001604051908101604052809291908181526020018280546108f690611143565b80156109435780601f1061091857610100808354040283529160200191610943565b820191906000526020600020905b81548152906001019060200180831161092657829003601f168201915b5050506005909301549192505060ff1684565b634e487b7160e01b600052604160045260246000fd5b604051601f8201601f1916810167ffffffffffffffff8111828210171561099557610995610956565b604052919050565b600067ffffffffffffffff8211156109b7576109b7610956565b5060051b60200190565b600082601f8301126109d257600080fd5b813560206109e76109e28361099d565b61096c565b82815260059290921b84018101918181019086841115610a0657600080fd5b8286015b84811015610a215780358352918301918301610a0a565b509695505050505050565b60008083601f840112610a3e57600080fd5b50813567ffffffffffffffff811115610a5657600080fd5b602083019150836020828501011115610a6e57600080fd5b9250929050565b60006101208284031215610a8857600080fd5b50919050565b600080600080600080600060c0888a031215610aa957600080fd5b87359650602088013567ffffffffffffffff80821115610ac857600080fd5b610ad48b838c016109c1565b975060408a0135915080821115610aea57600080fd5b610af68b838c016109c1565b965060608a0135955060808a0135915080821115610b1357600080fd5b610b1f8b838c01610a2c565b909550935060a08a0135915080821115610b3857600080fd5b50610b458a828b01610a75565b91505092959891949750929550565b600060208284031215610b6657600080fd5b5035919050565b600082601f830112610b7e57600080fd5b813567ffffffffffffffff811115610b9857610b98610956565b610bab601f8201601f191660200161096c565b818152846020838601011115610bc057600080fd5b816020850160208301376000918101602001919091529392505050565b600082601f830112610bee57600080fd5b81356020610bfe6109e28361099d565b82815260059290921b84018101918181019086841115610c1d57600080fd5b8286015b84811015610a2157803567ffffffffffffffff811115610c415760008081fd5b610c4f8986838b0101610b6d565b845250918301918301610c21565b6000806000806000806000806000806101208b8d031215610c7d57600080fd5b8a35995060208b013567ffffffffffffffff80821115610c9c57600080fd5b610ca88e838f01610b6d565b9a5060408d0135915080821115610cbe57600080fd5b610cca8e838f01610b6d565b995060608d0135915080821115610ce057600080fd5b610cec8e838f016109c1565b985060808d0135915080821115610d0257600080fd5b610d0e8e838f01610bdd565b975060a08d0135915080821115610d2457600080fd5b610d308e838f01610bdd565b965060c08d0135955060e08d0135915080821115610d4d57600080fd5b610d598e838f01610a2c565b90955093506101008d0135915080821115610d7357600080fd5b50610d808d828e01610a75565b9150509295989b9194979a5092959850565b6000815180845260005b81811015610db857602081850181015186830182015201610d9c565b506000602082860101526020601f19601f83011685010191505092915050565b848152608060208201526000610df16080830186610d92565b8281036040840152610e038186610d92565b915050821515606083015295945050505050565b60208082526024908201527f546869732066756e64696e6720726f756e6420697320616c726561647920636c6040820152631bdcd95960e21b606082015260800190565b634e487b7160e01b600052603260045260246000fd5b634e487b7160e01b600052601160045260246000fd5b81810381811115610e9a57610e9a610e71565b92915050565b600060018201610eb257610eb2610e71565b5060010190565b81835281816020850137506000828201602090810191909152601f909101601f19169091010190565b6000808335601e19843603018112610ef957600080fd5b830160208101925035905067ffffffffffffffff811115610f1957600080fd5b803603821315610a6e57600080fd5b80356001600160a01b031981168114610f4057600080fd5b919050565b803563ffffffff81168114610f4057600080fd5b8581526001600160a01b0385166020820152608060408201819052600090610f849083018587610eb9565b8281036060840152610120610f998586610ee2565b828452610fa98385018284610eb9565b92505050610fba6020860186610ee2565b8383036020850152610fcd838284610eb9565b92505050610fde6040860186610ee2565b8383036040850152610ff1838284610eb9565b925050506110026060860186610ee2565b8383036060850152611015838284610eb9565b925050506110266080860186610ee2565b8383036080850152611039838284610eb9565b9250505061104960a08601610f28565b6001600160a01b03191660a083015261106460c08601610f45565b63ffffffff1660c083015261107c60e0860186610ee2565b83830360e085015261108f838284610eb9565b925050506101006110a281870187610ee2565b848403838601526110b4848284610eb9565b9c9b505050505050505050505050565b600081518084526020808501945080840160005b838110156110f4578151875295820195908201906001016110d8565b509495945050505050565b60018060a01b038516815283602082015260806040820152600061112660808301856110c4565b828103606084015261113881856110c4565b979650505050505050565b600181811c9082168061115757607f821691505b602082108103610a8857634e487b7160e01b600052602260045260246000fd5b601f8211156111c157600081815260208120601f850160051c8101602086101561119e5750805b601f850160051c820191505b818110156111bd578281556001016111aa565b5050505b505050565b815167ffffffffffffffff8111156111e0576111e0610956565b6111f4816111ee8454611143565b84611177565b602080601f83116001811461122957600084156112115750858301515b600019600386901b1c1916600185901b1785556111bd565b600085815260208120601f198616915b8281101561125857888601518255948401946001909101908401611239565b50858210156112765787850151600019600388901b60f8161c191681555b5050505050600190811b01905550565b83815260606020820152600061129f6060830185610d92565b82810360408401526112b181856110c4565b969550505050505056fea2646970667358221220844ad7fdbe9b44471ca95b1ec7301449a77b2164c85554395a38ba09383af50a64736f6c63430008110033",
  "devdoc": {
    "author": "arjanjohan",
    "kind": "dev",
    "methods": {},
    "version": 1
  },
  "userdoc": {
    "kind": "user",
    "methods": {},
    "notice": "A smart contract for cross-chain quadratic voting. Built during EthDam 24",
    "version": 1
  },
  "storageLayout": {
    "storage": [
      {
        "astId": 7,
        "contract": "contracts/Funding.sol:Funding",
        "label": "gatewayContract",
        "offset": 0,
        "slot": "0",
        "type": "t_contract(IGateway)8515"
      },
      {
        "astId": 13,
        "contract": "contracts/Funding.sol:Funding",
        "label": "gatewayAddressSepolia",
        "offset": 0,
        "slot": "1",
        "type": "t_address"
      },
      {
        "astId": 56,
        "contract": "contracts/Funding.sol:Funding",
        "label": "fundingRounds",
        "offset": 0,
        "slot": "2",
        "type": "t_mapping(t_uint256,t_struct(FundingRound)51_storage)"
      },
      {
        "astId": 59,
        "contract": "contracts/Funding.sol:Funding",
        "label": "roundIds",
        "offset": 0,
        "slot": "3",
        "type": "t_array(t_uint256)dyn_storage"
      }
    ],
    "types": {
      "t_address": {
        "encoding": "inplace",
        "label": "address",
        "numberOfBytes": "20"
      },
      "t_array(t_uint256)dyn_storage": {
        "base": "t_uint256",
        "encoding": "dynamic_array",
        "label": "uint256[]",
        "numberOfBytes": "32"
      },
      "t_bool": {
        "encoding": "inplace",
        "label": "bool",
        "numberOfBytes": "1"
      },
      "t_contract(IGateway)8515": {
        "encoding": "inplace",
        "label": "contract IGateway",
        "numberOfBytes": "20"
      },
      "t_mapping(t_uint256,t_struct(FundingRound)51_storage)": {
        "encoding": "mapping",
        "key": "t_uint256",
        "label": "mapping(uint256 => struct Funding.FundingRound)",
        "numberOfBytes": "32",
        "value": "t_struct(FundingRound)51_storage"
      },
      "t_mapping(t_uint256,t_struct(Project)34_storage)": {
        "encoding": "mapping",
        "key": "t_uint256",
        "label": "mapping(uint256 => struct Funding.Project)",
        "numberOfBytes": "32",
        "value": "t_struct(Project)34_storage"
      },
      "t_string_storage": {
        "encoding": "bytes",
        "label": "string",
        "numberOfBytes": "32"
      },
      "t_struct(FundingRound)51_storage": {
        "encoding": "inplace",
        "label": "struct Funding.FundingRound",
        "members": [
          {
            "astId": 36,
            "contract": "contracts/Funding.sol:Funding",
            "label": "id",
            "offset": 0,
            "slot": "0",
            "type": "t_uint256"
          },
          {
            "astId": 38,
            "contract": "contracts/Funding.sol:Funding",
            "label": "name",
            "offset": 0,
            "slot": "1",
            "type": "t_string_storage"
          },
          {
            "astId": 40,
            "contract": "contracts/Funding.sol:Funding",
            "label": "description",
            "offset": 0,
            "slot": "2",
            "type": "t_string_storage"
          },
          {
            "astId": 45,
            "contract": "contracts/Funding.sol:Funding",
            "label": "projects",
            "offset": 0,
            "slot": "3",
            "type": "t_mapping(t_uint256,t_struct(Project)34_storage)"
          },
          {
            "astId": 48,
            "contract": "contracts/Funding.sol:Funding",
            "label": "projectIds",
            "offset": 0,
            "slot": "4",
            "type": "t_array(t_uint256)dyn_storage"
          },
          {
            "astId": 50,
            "contract": "contracts/Funding.sol:Funding",
            "label": "isOpen",
            "offset": 0,
            "slot": "5",
            "type": "t_bool"
          }
        ],
        "numberOfBytes": "192"
      },
      "t_struct(Project)34_storage": {
        "encoding": "inplace",
        "label": "struct Funding.Project",
        "members": [
          {
            "astId": 25,
            "contract": "contracts/Funding.sol:Funding",
            "label": "id",
            "offset": 0,
            "slot": "0",
            "type": "t_uint256"
          },
          {
            "astId": 27,
            "contract": "contracts/Funding.sol:Funding",
            "label": "name",
            "offset": 0,
            "slot": "1",
            "type": "t_string_storage"
          },
          {
            "astId": 29,
            "contract": "contracts/Funding.sol:Funding",
            "label": "description",
            "offset": 0,
            "slot": "2",
            "type": "t_string_storage"
          },
          {
            "astId": 31,
            "contract": "contracts/Funding.sol:Funding",
            "label": "totalContributions",
            "offset": 0,
            "slot": "3",
            "type": "t_uint256"
          },
          {
            "astId": 33,
            "contract": "contracts/Funding.sol:Funding",
            "label": "totalSquareRoots",
            "offset": 0,
            "slot": "4",
            "type": "t_uint256"
          }
        ],
        "numberOfBytes": "160"
      },
      "t_uint256": {
        "encoding": "inplace",
        "label": "uint256",
        "numberOfBytes": "32"
      }
    }
  }
}