{
  "_format": "hh-sol-artifact-1",
  "contractName": "Funding",
  "sourceName": "contracts/Funding.sol",
  "abi": [
    {
      "inputs": [],
      "stateMutability": "nonpayable",
      "type": "constructor"
    },
    {
      "anonymous": false,
      "inputs": [
        {
          "indexed": true,
          "internalType": "address",
          "name": "contributor",
          "type": "address"
        }
      ],
      "name": "ContributionReceived",
      "type": "event"
    },
    {
      "anonymous": false,
      "inputs": [
        {
          "indexed": true,
          "internalType": "address",
          "name": "contributor",
          "type": "address"
        },
        {
          "indexed": true,
          "internalType": "uint256",
          "name": "roundId",
          "type": "uint256"
        }
      ],
      "name": "ContributionReceivedInSecret",
      "type": "event"
    },
    {
      "anonymous": false,
      "inputs": [
        {
          "indexed": true,
          "internalType": "uint256",
          "name": "roundId",
          "type": "uint256"
        }
      ],
      "name": "RoundClosed",
      "type": "event"
    },
    {
      "anonymous": false,
      "inputs": [
        {
          "indexed": true,
          "internalType": "uint256",
          "name": "roundId",
          "type": "uint256"
        }
      ],
      "name": "RoundClosedInSecret",
      "type": "event"
    },
    {
      "anonymous": false,
      "inputs": [
        {
          "indexed": true,
          "internalType": "uint256",
          "name": "roundId",
          "type": "uint256"
        },
        {
          "indexed": false,
          "internalType": "string",
          "name": "name",
          "type": "string"
        },
        {
          "indexed": false,
          "internalType": "uint256[]",
          "name": "projectIds",
          "type": "uint256[]"
        }
      ],
      "name": "RoundCreated",
      "type": "event"
    },
    {
      "anonymous": false,
      "inputs": [
        {
          "indexed": true,
          "internalType": "uint256",
          "name": "roundId",
          "type": "uint256"
        },
        {
          "indexed": false,
          "internalType": "string",
          "name": "name",
          "type": "string"
        },
        {
          "indexed": false,
          "internalType": "uint256[]",
          "name": "projectIds",
          "type": "uint256[]"
        }
      ],
      "name": "RoundCreatedInSecret",
      "type": "event"
    },
    {
      "inputs": [
        {
          "internalType": "uint256",
          "name": "roundId",
          "type": "uint256"
        },
        {
          "internalType": "bool",
          "name": "sendToSecret",
          "type": "bool"
        },
        {
          "internalType": "bytes32",
          "name": "payloadHash",
          "type": "bytes32"
        },
        {
          "internalType": "string",
          "name": "routingInfo",
          "type": "string"
        },
        {
          "components": [
            {
              "internalType": "bytes",
              "name": "user_key",
              "type": "bytes"
            },
            {
              "internalType": "bytes",
              "name": "user_pubkey",
              "type": "bytes"
            },
            {
              "internalType": "string",
              "name": "routing_code_hash",
              "type": "string"
            },
            {
              "internalType": "string",
              "name": "task_destination_network",
              "type": "string"
            },
            {
              "internalType": "string",
              "name": "handle",
              "type": "string"
            },
            {
              "internalType": "bytes12",
              "name": "nonce",
              "type": "bytes12"
            },
            {
              "internalType": "uint32",
              "name": "callback_gas_limit",
              "type": "uint32"
            },
            {
              "internalType": "bytes",
              "name": "payload",
              "type": "bytes"
            },
            {
              "internalType": "bytes",
              "name": "payload_signature",
              "type": "bytes"
            }
          ],
          "internalType": "struct IGateway.ExecutionInfo",
          "name": "info",
          "type": "tuple"
        }
      ],
      "name": "closeFundingRound",
      "outputs": [],
      "stateMutability": "payable",
      "type": "function"
    },
    {
      "inputs": [
        {
          "internalType": "uint256",
          "name": "roundId",
          "type": "uint256"
        }
      ],
      "name": "closedFundingRound",
      "outputs": [],
      "stateMutability": "nonpayable",
      "type": "function"
    },
    {
      "inputs": [
        {
          "internalType": "bytes32",
          "name": "payloadHash",
          "type": "bytes32"
        },
        {
          "internalType": "string",
          "name": "routingInfo",
          "type": "string"
        },
        {
          "components": [
            {
              "internalType": "bytes",
              "name": "user_key",
              "type": "bytes"
            },
            {
              "internalType": "bytes",
              "name": "user_pubkey",
              "type": "bytes"
            },
            {
              "internalType": "string",
              "name": "routing_code_hash",
              "type": "string"
            },
            {
              "internalType": "string",
              "name": "task_destination_network",
              "type": "string"
            },
            {
              "internalType": "string",
              "name": "handle",
              "type": "string"
            },
            {
              "internalType": "bytes12",
              "name": "nonce",
              "type": "bytes12"
            },
            {
              "internalType": "uint32",
              "name": "callback_gas_limit",
              "type": "uint32"
            },
            {
              "internalType": "bytes",
              "name": "payload",
              "type": "bytes"
            },
            {
              "internalType": "bytes",
              "name": "payload_signature",
              "type": "bytes"
            }
          ],
          "internalType": "struct IGateway.ExecutionInfo",
          "name": "info",
          "type": "tuple"
        }
      ],
      "name": "contribute",
      "outputs": [],
      "stateMutability": "payable",
      "type": "function"
    },
    {
      "inputs": [
        {
          "internalType": "uint256",
          "name": "roundId",
          "type": "uint256"
        }
      ],
      "name": "contribute",
      "outputs": [],
      "stateMutability": "nonpayable",
      "type": "function"
    },
    {
      "inputs": [
        {
          "internalType": "uint256",
          "name": "id",
          "type": "uint256"
        },
        {
          "internalType": "string",
          "name": "name",
          "type": "string"
        },
        {
          "internalType": "string",
          "name": "description",
          "type": "string"
        },
        {
          "internalType": "string",
          "name": "curveType",
          "type": "string"
        },
        {
          "internalType": "uint256[]",
          "name": "projectIds",
          "type": "uint256[]"
        },
        {
          "internalType": "string[]",
          "name": "projectNames",
          "type": "string[]"
        },
        {
          "internalType": "string[]",
          "name": "projectDescriptions",
          "type": "string[]"
        },
        {
          "internalType": "address payable[]",
          "name": "projectAddresses",
          "type": "address[]"
        },
        {
          "internalType": "bool",
          "name": "sendToSecret",
          "type": "bool"
        },
        {
          "internalType": "bytes32",
          "name": "payloadHash",
          "type": "bytes32"
        },
        {
          "internalType": "string",
          "name": "routingInfo",
          "type": "string"
        },
        {
          "components": [
            {
              "internalType": "bytes",
              "name": "user_key",
              "type": "bytes"
            },
            {
              "internalType": "bytes",
              "name": "user_pubkey",
              "type": "bytes"
            },
            {
              "internalType": "string",
              "name": "routing_code_hash",
              "type": "string"
            },
            {
              "internalType": "string",
              "name": "task_destination_network",
              "type": "string"
            },
            {
              "internalType": "string",
              "name": "handle",
              "type": "string"
            },
            {
              "internalType": "bytes12",
              "name": "nonce",
              "type": "bytes12"
            },
            {
              "internalType": "uint32",
              "name": "callback_gas_limit",
              "type": "uint32"
            },
            {
              "internalType": "bytes",
              "name": "payload",
              "type": "bytes"
            },
            {
              "internalType": "bytes",
              "name": "payload_signature",
              "type": "bytes"
            }
          ],
          "internalType": "struct IGateway.ExecutionInfo",
          "name": "info",
          "type": "tuple"
        }
      ],
      "name": "createFundingRound",
      "outputs": [],
      "stateMutability": "payable",
      "type": "function"
    },
    {
      "inputs": [
        {
          "internalType": "uint256",
          "name": "id",
          "type": "uint256"
        },
        {
          "internalType": "string",
          "name": "name",
          "type": "string"
        },
        {
          "internalType": "uint256[]",
          "name": "projectIds",
          "type": "uint256[]"
        }
      ],
      "name": "createdFundingRound",
      "outputs": [],
      "stateMutability": "nonpayable",
      "type": "function"
    },
    {
      "inputs": [
        {
          "internalType": "string",
          "name": "json",
          "type": "string"
        },
        {
          "internalType": "uint256",
          "name": "roundId",
          "type": "uint256"
        }
      ],
      "name": "distributeFunds",
      "outputs": [],
      "stateMutability": "nonpayable",
      "type": "function"
    },
    {
      "inputs": [
        {
          "internalType": "uint256",
          "name": "",
          "type": "uint256"
        }
      ],
      "name": "fundingRounds",
      "outputs": [
        {
          "internalType": "uint256",
          "name": "id",
          "type": "uint256"
        },
        {
          "internalType": "string",
          "name": "name",
          "type": "string"
        },
        {
          "internalType": "string",
          "name": "description",
          "type": "string"
        },
        {
          "internalType": "string",
          "name": "curveType",
          "type": "string"
        },
        {
          "internalType": "uint256",
          "name": "totalContributions",
          "type": "uint256"
        },
        {
          "internalType": "bool",
          "name": "isOpen",
          "type": "bool"
        }
      ],
      "stateMutability": "view",
      "type": "function"
    },
    {
      "inputs": [],
      "name": "gatewayAddressSepolia",
      "outputs": [
        {
          "internalType": "address",
          "name": "",
          "type": "address"
        }
      ],
      "stateMutability": "view",
      "type": "function"
    },
    {
      "inputs": [],
      "name": "gatewayContract",
      "outputs": [
        {
          "internalType": "contract IGateway",
          "name": "",
          "type": "address"
        }
      ],
      "stateMutability": "view",
      "type": "function"
    },
    {
      "inputs": [
        {
          "internalType": "uint256",
          "name": "",
          "type": "uint256"
        }
      ],
      "name": "roundIds",
      "outputs": [
        {
          "internalType": "uint256",
          "name": "",
          "type": "uint256"
        }
      ],
      "stateMutability": "view",
      "type": "function"
    }
  ],
  "bytecode": "0x6080806040523461004557733879e146140b627a5c858a08e507b171d9e4313960018060a01b03198181600354161760035560025416176002556126a2908161004b8239f35b600080fdfe6080604052600436101561001257600080fd5b6000803560e01c80636a15c788146105cd57806390a4cb9b1461057b578063979c17831461053f578063998f404c14610455578063c06d5ba914610297578063c1cbbca71461025a578063c428a278146101b7578063c9640c091461018e578063eb0cde1d14610165578063f7a22314146100dc5763fa2f53c61461009657600080fd5b346100d95760403660031901126100d9576004356001600160401b0381116100d5576100c96100d2913690600401611135565b60243590611604565b80f35b5080fd5b80fd5b50346100d95760603660031901126100d9576001600160401b036024358181116101615761010e903690600401611135565b906044359081116101615761015b61014b7fd2d3da9dad19c719463d609b0153dcd2470b4c48d6504ac8e94e56a782e539d5923690600401611193565b6040519182916004359583611571565b0390a280f35b8280fd5b50346100d957806003193601126100d9576002546040516001600160a01b039091168152602090f35b50346100d957806003193601126100d9576003546040516001600160a01b039091168152602090f35b50346100d95760203660031901126100d9576040906004358152806020522080546101e4600183016112f0565b916101f1600282016112f0565b610249610200600384016112f0565b61023b60ff60076006870154960154169361022d604051988998895260c060208a015260c0890190611396565b908782036040890152611396565b908582036060870152611396565b916080840152151560a08301520390f35b50346100d95760203660031901126100d957600435337f0f341c4538c3af5f6f9502b5cb2e1ada31e4d65ec8f829cbe8ee009b6568b36b8380a380f35b5060031960a0368201126100d55760043590602435908115158203610450576001600160401b039160643583811161044c576102d7903690600401611271565b92906084359185831161044857610120908336030112610444578587528660205260ff600760408920015416156104105785875260208781526040808920600701805460ff191690555195908601908111868210176103fa5760405286855286928690156103ec57506002546001600160a01b0316803b156103e85761037e948493604051968794859384936339624a6b60e21b8552600401913360443560048701611428565b039134905af19182156103db5784926103c4575b505061039d91611604565b7fe9f7d7fd0b133404f0ccff737d6f3594748e04bc5507adfaed35835ef98937118280a280f35b6103cf9192506110b0565b61016157818338610392565b50604051903d90823e3d90fd5b8380fd5b935050505061039d91611604565b634e487b7160e01b600052604160045260246000fd5b60405162461bcd60e51b815260206004820152600c60248201526b149bdd5b990818db1bdcd95960a21b6044820152606490fd5b8680fd5b8780fd5b8580fd5b600080fd5b508060031960603682011261053c576001600160401b0360243581811161053757610484903690600401611271565b9260443592831161053357610120908336030112610537576002546001600160a01b0316803b15610533576104da938593604051958694859384936339624a6b60e21b8552600401913360043560048701611428565b039134905af1801561052857610514575b50337f9ca0de0709c575c61710159cf212e68fa7f9bd8d600cb008ae8c028b7e54b7058280a280f35b61051d906110b0565b6100d95780386104eb565b6040513d84823e3d90fd5b8480fd5b505050fd5b50fd5b50346100d95760203660031901126100d9576004357fdcad6660d3e34a68718474b3d2dfb7da8a012d967dfe595b0123a6112667f0688280a280f35b50346100d95760203660031901126100d9576004356001548110156100d55760209060016000527fb10e2d527612073b26eecdfd717e6a320cf44b4afac2b0732d9fcbe2b7fa0cf60154604051908152f35b506101803660031901126100d9576024356001600160401b0381116100d5576105fa903690600401611135565b6044356001600160401b03811161016157610619903690600401611135565b906064356001600160401b0381116103e857610639903690600401611135565b926084356001600160401b0381116100d557610659903690600401611193565b60a4356001600160401b038111610161576106789036906004016111f1565b9460c4356001600160401b0381116103e8576106989036906004016111f1565b9060e435906001600160401b03821161053357366023830112156105335781600401356106c48161117c565b926106d260405194856110f9565b8184526024602085019260051b8201019036821161044857602401915b81831061108c57505050610104351515610104350361053357610144356001600160401b03811161044c57610728903690600401611271565b6001600160401b0361016435116104445761012061016435360360031901126104445785518a518091149081611081575b5080611076575b15611031576004358752866020526040872054610ffa5761010435610f81575b50506004358552846020526040852096600435885586516001600160401b038111610eb2576107b260018a01546112b6565b601f8111610f3c575b50806020601f8211600114610ed1578891610ec6575b508160011b916000199060031b1c19161760018901555b8051906001600160401b038211610eb257819061080860028b01546112b6565b601f8111610e61575b50602090601f8311600114610df2578892610de7575b50508160011b916000199060031b1c19161760028801555b8051906001600160401b038211610dd357819061085f60038a01546112b6565b601f8111610d82575b50602090601f8311600114610d13578792610d08575b50508160011b916000199060031b1c19161760038701555b60078601805460ff19166001179055835b8351811015610c6f576108ba81856115e3565b518552600487016020526040852054610c36576108d781856115e3565b516108e2828a6115e3565b51906108ee83866115e3565b516001600160a01b0361090185876115e3565b51169060405192610911846110c3565b835260208301938452604083015260608201528660808201528660a082015261093a83876115e3565b51875260048901602052604087209181518355518051906001600160401b038211610b5757819061096e60018601546112b6565b601f8111610be5575b50602090601f8311600114610b76578a92610b6b575b50508160011b916000199060031b1c19161760018301555b60408101518051906001600160401b038211610b57576109c860028501546112b6565b601f8111610b12575b50602090601f8311600114610aa05791806005949260a0948c92610a95575b50508160011b916000199060031b1c19161760028501555b60038401600180841b036060830151166bffffffffffffffffffffffff841b825416179055608081015160048501550151910155610a4681856115e3565b5190600588015491600160401b8310156103fa57610a73836001610a90950160058c015560058b0161129e565b819291549060031b600019811b9283911b169119161790556115be565b6108a7565b0151905038806109f0565b90600285018a5260208a20918a5b601f1985168110610afa5750926005949260019260a09583601f19811610610ae1575b505050811b016002850155610a08565b015160001960f88460031b161c19169055388080610ad1565b91926020600181928685015181550194019201610aae565b600285018a5260208a20601f840160051c810160208510610b50575b601f830160051c82018110610b445750506109d1565b60008155600101610b2e565b5080610b2e565b634e487b7160e01b89526041600452602489fd5b01519050388061098d565b9250600185018a5260208a20908a935b601f1984168510610bca576001945083601f19811610610bb1575b505050811b0160018301556109a5565b015160001960f88460031b161c19169055388080610ba1565b81810151835560209485019460019093019290910190610b86565b909150600185018a5260208a20601f840160051c810160208510610c2f575b90849392915b601f830160051c82018110610c20575050610977565b60008155859450600101610c0a565b5080610c04565b60405162461bcd60e51b815260206004820152601160248201527050726f6a6563742049442065786973747360781b6044820152606490fd5b848685600154600160401b8110156103fa576001810180600155811015610cf2577f2fceaf42a6664f3294222799a359650844542179732d12b26b6926bd338479a59161015b916001600052600435907fb10e2d527612073b26eecdfd717e6a320cf44b4afac2b0732d9fcbe2b7fa0cf601556040519182916004359583611571565b634e487b7160e01b600052603260045260246000fd5b01519050388061087e565b9250600389018752602087209087935b601f1984168510610d67576001945083601f19811610610d4e575b505050811b016003870155610896565b015160001960f88460031b161c19169055388080610d3e565b81810151835560209485019460019093019290910190610d23565b90915060038901875260208720601f840160051c810160208510610dcc575b90849392915b601f830160051c82018110610dbd575050610868565b60008155859450600101610da7565b5080610da1565b634e487b7160e01b86526041600452602486fd5b015190503880610827565b925060028a018852602088209088935b601f1984168510610e46576001945083601f19811610610e2d575b505050811b01600288015561083f565b015160001960f88460031b161c19169055388080610e1d565b81810151835560209485019460019093019290910190610e02565b90915060028a01885260208820601f840160051c810160208510610eab575b90849392915b601f830160051c82018110610e9c575050610811565b60008155859450600101610e86565b5080610e80565b634e487b7160e01b87526041600452602487fd5b9050880151386107d1565b915060018a0188526020882088925b8a601f1984168510610f2557506001935082601f19811610610f0c575b5050811b0160018901556107e8565b8a015160001960f88460031b161c191690553880610efd565b810151825560209384019360019092019101610ee0565b60018a01885260208820601f830160051c810160208410610f7a575b601f830160051c82018110610f6e5750506107bb565b60008155600101610f58565b5080610f58565b6002546001600160a01b031690813b1561044857918791610fc5936040518095819482936339624a6b60e21b84526101643560040191336101243560048701611428565b039134905af18015610fef57610fdc575b80610780565b610fe8909591956110b0565b9338610fd6565b6040513d88823e3d90fd5b60405162461bcd60e51b815260206004820152600f60248201526e526f756e642049442065786973747360881b6044820152606490fd5b60405162461bcd60e51b815260206004820152601760248201527f4d69736d61746368656420696e707574206172726179730000000000000000006044820152606490fd5b508451845114610760565b905085511438610759565b82356001600160a01b03811681036110ac578152602092830192016106ef565b8880fd5b6001600160401b0381116103fa57604052565b60c081019081106001600160401b038211176103fa57604052565b606081019081106001600160401b038211176103fa57604052565b90601f801991011681019081106001600160401b038211176103fa57604052565b6001600160401b0381116103fa57601f01601f191660200190565b81601f820112156104505780359061114c8261111a565b9261115a60405194856110f9565b8284526020838301011161045057816000926020809301838601378301015290565b6001600160401b0381116103fa5760051b60200190565b81601f82011215610450578035916111aa8361117c565b926111b860405194856110f9565b808452602092838086019260051b820101928311610450578301905b8282106111e2575050505090565b813581529083019083016111d4565b9080601f83011215610450578135906112098261117c565b9261121760405194856110f9565b828452602092838086019160051b8301019280841161045057848301915b8483106112455750505050505090565b82356001600160401b03811161045057869161126684848094890101611135565b815201920191611235565b9181601f84011215610450578235916001600160401b038311610450576020838186019501011161045057565b8054821015610cf25760005260206000200190600090565b90600182811c921680156112e6575b60208310146112d057565b634e487b7160e01b600052602260045260246000fd5b91607f16916112c5565b9060405191826000825492611304846112b6565b9081845260019485811690816000146113735750600114611330575b505061132e925003836110f9565b565b9093915060005260209081600020936000915b81831061135b57505061132e93508201013880611320565b85548884018501529485019487945091830191611343565b91505061132e94506020925060ff191682840152151560051b8201013880611320565b919082519283825260005b8481106113c2575050826000602080949584010152601f8019910116010190565b6020818301810151848301820152016113a1565b908060209392818452848401376000828201840152601f01601f1916010190565b9035601e19823603018112156104505701602081359101916001600160401b03821161045057813603831361045057565b9081526001600160a01b03909116602082015260806040820181905290939261145492918501916113d6565b9160608184039101526114f06114d56114ba61149f61148461147686806113f7565b610120808a528901916113d6565b61149160208701876113f7565b9088830360208a01526113d6565b6114ac60408601866113f7565b9087830360408901526113d6565b6114c760608501856113f7565b9086830360608801526113d6565b6114e260808401846113f7565b9085830360808701526113d6565b9160a08201356bffffffffffffffffffffffff60a01b81168091036104505760a082015260c082013563ffffffff81168091036104505761156e9361154f9160c084015261154160e08501856113f7565b9084830360e08601526113d6565b9161156061010091828101906113f7565b9290918185039101526113d6565b90565b9061158490604083526040830190611396565b81810360209283015282518082529082019282019160005b8281106115aa575050505090565b83518552938101939281019260010161159c565b60001981146115cd5760010190565b634e487b7160e01b600052601160045260246000fd5b8051821015610cf25760209160051b010190565b919082039182116115cd57565b909161160f82611b1e565b8095925093909315611a2a5781600094939294526000602052600660406000200154926000925b856000526000602052600560406000200154841015611a2157600460406000200161166885600560406000200161129e565b90549060031b1c600052602052604060002095600060019081890193845493838516935b6000198d018d81116115cd57811015611a09576116c760206116ae838b6115e3565b51015160606116bd848c6115e3565b510151908b6125e5565b602081519101206040516000816116dd8a6112b6565b808252918980156119eb576001146119aa575b6116fc925003826110f9565b602081519101201461172a57600381018091111561168c57634e487b7160e01b600052601160045260246000fd5b935099979694509794925050600181018091116115cd57806060611760602061175661176a95876115e3565b51015192856115e3565b51015190846125e5565b976000906000926000996000956000945b8d51861015611997578c8e871580611976575b61196d575b603061179f8983611acc565b5160f81c101580611955575b15611928575061181e575b600a9080828102058214811517156115cd576117d38f8890611acc565b5160f81c80602f198101136001166115cd57602f198101602f19828585020101126000848402129080158216911516176115cd57910201602f190194611818906115be565b9461177b565b939c9199969486939c91999b98961560001461190c575050505b806118da575b50906118b1575b60048301548181029181830414901517156115cd5760008080606481940480965b600301546001600160a01b03168282156118a8575bf11561189c576118949161188e916115f7565b946115be565b929490611636565b6040513d6000823e3d90fd5b506108fc61187b565b80600003908082056000191490151761184557634e487b7160e01b600052601160045260246000fd5b604d81116115cd57600a0a818102919060008212600160ff1b8214166115cd5781830514901517156115cd573861183e565b949699919c9395979a98909b9261192290611aee565b956117b6565b602e91508761193991989398611acc565b5160f81c1461194c575b611818906115be565b60019c50611943565b5060396119628983611acc565b5160f81c11156117ab565b60019950611793565b50602d60f81b6001600160f81b031961198f8a84611acc565b51161461178e565b939c5097999694919a5097949250611838565b5050896000526020600020906000915b8183106119d25750508160206116fc928201016116f0565b80546020848601810191909152909201916001016119ba565b505060206116fc9260ff198c1682840152151560051b8201016116f0565b50979893509498819450600080935080928192611866565b95505050505050565b60405162461bcd60e51b8152602060048201526024808201527f4a534f4e2070617273696e67206661696c6564206f72206e6f206461746120666044820152631bdd5b9960e21b6064820152608490fd5b60405190611a88826110de565b60006040838281528260208201520152565b60405190611aa7826110c3565b8160a06000918281528260208201528260408201528260608201528260808201520152565b908151811015610cf2570160200190565b60ff1660ff81146115cd5760010190565b80156115cd576000190190565b516005811015611b085790565b634e487b7160e01b600052602160045260246000fd5b611b26611a7b565b50611b2f611a7b565b506040805192611b3e846110de565b600091828552602090818601908482528087016000199182825280516102a081018181106001600160401b03821117610b575782526014815285885b61028081106121b457505097845191611b91611a9a565b505b8a5182518110156121a6576001600160f81b031990611bb29084611acc565b5116607b60f81b8114808015612199575b6120ed5750607d60f81b81148080156120e0575b611f625750601160f91b8114611f5557600160fd1b8181148015611f48575b8015611f3b575b8015611f2e575b611f2757601d60f91b8214611efe57600b60fa1b8214611daf57600360fc1b82101580611da1575b8015611d94575b8015611d87575b8015611d7a575b8015611d6d575b611c89578110159081611c7a575b50611c6d575b611c668b516115be565b8b52611b93565b5060019950505050505050565b603f60f91b1015905038611c56565b5050918351858103611cf2575b50611ca2828b8d61247b565b80611ce75750611cb1906115be565b918351858103611cc2575b50611c5c565b611cce60a0918c6115e3565b510160ff611cde81835116611add565b16905238611cbc565b9a5050505050505050565b611cfc908b6115e3565b5180519060059081831015611d59576001809314918215611d2a575b505015611c96579a5050505050505050565b8151919250811015611d59576003149081611d48575b503880611d18565b60ff915060a0015116151538611d40565b634e487b7160e01b8c52602160045260248cfd5b50603760f91b8214611c48565b50601d60fa1b8214611c41565b50603360f91b8214611c3a565b50602d60f81b8214611c33565b50603960f81b821115611c2c565b50508351858114159081611edc575b5080611ea7575b15611c5c579592979896939094918251828101908111611e93575b611df3611ded828b6115e3565b51611afb565b60059081811015611e7f57600214908115611e5f575b50611e1d575b611e1890611aee565b611de0565b87611e28828b6115e3565b510151151580611e49575b15611e0f578994979193969295989a9952611c5c565b506080611e56828b6115e3565b51015115611e33565b9050611e6e611ded838c6115e3565b90811015611d595760011438611e09565b634e487b7160e01b8d52602160045260248dfd5b634e487b7160e01b8b52601160045260248bfd5b50611eb6611ded85518c6115e3565b6005811015611ec85760011415611dc5565b634e487b7160e01b8a52602160045260248afd5b611eeb9150611ded908c6115e3565b6005811015611ec8576002141538611dbe565b50508551858101908111611f13578452611c5c565b634e487b7160e01b8a52601160045260248afd5b5050611c5c565b50600560fa1b8214611c04565b50600960f91b8214611bfd565b50601160f81b8214611bf6565b5091611ca2828b8d61225f565b9050899691989594999a9792939a506000146120d8576001995b81518581019081116120c4575b611f93818a6115e3565b518a8101511515806120b8575b611fb35750611fae90611aee565b611f89565b9b90919493989b9a95969992979a51600580821015611e7f57821015611d595703612096578585528b516001908181018091116120a4576080612007848f85946060611fff84846115e3565b5101526115e3565b5101521561209657805b612055575b80156120225750611c5c565b61202c818c6115e3565b518281015115159081612048575b5015611cbc57845238611cbc565b608091500151153861203a565b61205f818c6115e3565b518281015115159081612089575b506120815761207b90611aee565b80612011565b808552612016565b608091500151153861206d565b5060019a5050505050505050565b634e487b7160e01b8c52601160045260248cfd5b50608081015115611fa0565b634e487b7160e01b88526011600452602488fd5b600299611f7c565b50605d60f81b8214611bd7565b936120f891506115be565b926121038b8d6121ca565b91901561218a5785518c888203612164575b50501561215d5760015b60058110156121495781528b51888201526001908201528551858101908111611f13578452611c5c565b634e487b7160e01b8b52602160045260248bfd5b600261211f565b60a091612170916115e3565b510160ff61218081835116611add565b169052388c612115565b5060039b505050505050505050565b50605b60f81b8214611bc3565b505093519698505050505050565b6121bc611a9a565b828285010152018690611b7a565b6020909291926121d8611a9a565b50018051835180911015612240575061222d604051936121f7856110c3565b600080865280602087015280604087015280606087015280608087015260a08601528251908561222783836115e3565b526115e3565b5061223881516115be565b905260019190565b9192916000198101915081116115cd57612259916115e3565b51600091565b92919083519161226d611a9a565b5061227885516115be565b85525b84518151811015612470576122909082611acc565b516001600160f81b031990601160f91b90828116821461241b5760f81c605c14806123f0575b6122ce5750505b6122c785516115be565b855261227b565b816122e56122dc89516115be565b808a5285611acc565b5116149081156123d4575b81156123b8575b811561239c575b8115612380575b8115612364575b8115612348575b811561232c575b506000036122bd575050909152600190565b8651601d60fa1b925061233f9084611acc565b5116143861231a565b9050603160f91b8161235b885185611acc565b51161490612313565b9050603760f91b81612377885185611acc565b5116149061230c565b9050603960f91b81612393885185611acc565b51161490612305565b9050603360f91b816123af885185611acc565b511614906122fe565b9050601760fa1b816123cb885185611acc565b511614906122f7565b9050602f60f81b816123e7885185611acc565b511614906122f0565b50865160018101809111612406578351116122b6565b60246000634e487b7160e01b81526011600452fd5b5050505061242b908493946121ca565b919015612467576001908181018091116124065760a0935190600384526020840152816040840152606083015260808201526000918291015290565b91905052600390565b505050909152600290565b929190600084519261248b611a9a565b505b855181518110156125da576124a29082611acc565b516001600160f81b03198116600160fd1b81149081156125cc575b81156125be575b81156125b0575b81156125a2575b8115612594575b8115612586575b506125205760f81c60208110908115612515575b5061250a5761250386516115be565b865261248d565b505050909152600190565b607f915011386124f4565b5050506001939192935b1561257f5761253990826121ca565b90156125785760a090829360009351906004835260208301526001604083015260608201526001608082015201526125718151611aee565b9052600090565b5052600390565b5052600290565b605d60f81b149050386124e0565b607d60f81b811491506124d9565b600b60fa1b811491506124d2565b600d60f81b811491506124cb565b600560f91b811491506124c4565b600960f81b811491506124bd565b50509391929361252a565b92916125f182826115f7565b916125fb8361111a565b9261260960405194856110f9565b808452612618601f199161111a565b01366020850137805b82811061263057509193505050565b612667906001600160f81b03196126478289611acc565b511661266161265685846115f7565b9160001a9187611acc565b536115be565b61262156fea26469706673582212209ae512d03252a207853be4df276b4ca5c0aa84441acf322903fa53d80e76edc964736f6c63430008110033",
  "linkReferences": {},
  "deployedLinkReferences": {}
}