{
  "address": "0x2c3b48d76352c0Ea1F1d7B287b5dFeCaf43E59B9",
  "abi": [
    {
      "inputs": [
        {
          "internalType": "address",
          "name": "gatewayAddress",
          "type": "address"
        }
      ],
      "stateMutability": "nonpayable",
      "type": "constructor"
    },
    {
      "anonymous": false,
      "inputs": [
        {
          "indexed": true,
          "internalType": "address",
          "name": "contributor",
          "type": "address"
        }
      ],
      "name": "ContributionReceived",
      "type": "event"
    },
    {
      "anonymous": false,
      "inputs": [
        {
          "indexed": true,
          "internalType": "uint256",
          "name": "roundId",
          "type": "uint256"
        }
      ],
      "name": "ContributionReceivedInSecret",
      "type": "event"
    },
    {
      "anonymous": false,
      "inputs": [
        {
          "indexed": true,
          "internalType": "uint256",
          "name": "roundId",
          "type": "uint256"
        }
      ],
      "name": "DistributedTokens",
      "type": "event"
    },
    {
      "anonymous": false,
      "inputs": [
        {
          "indexed": true,
          "internalType": "uint256",
          "name": "roundId",
          "type": "uint256"
        }
      ],
      "name": "DistributedTokensInSecret",
      "type": "event"
    },
    {
      "anonymous": false,
      "inputs": [
        {
          "indexed": true,
          "internalType": "uint256",
          "name": "roundId",
          "type": "uint256"
        }
      ],
      "name": "RoundClosed",
      "type": "event"
    },
    {
      "anonymous": false,
      "inputs": [
        {
          "indexed": true,
          "internalType": "uint256",
          "name": "roundId",
          "type": "uint256"
        }
      ],
      "name": "RoundClosedInSecret",
      "type": "event"
    },
    {
      "anonymous": false,
      "inputs": [
        {
          "indexed": true,
          "internalType": "uint256",
          "name": "roundId",
          "type": "uint256"
        },
        {
          "indexed": false,
          "internalType": "string",
          "name": "name",
          "type": "string"
        },
        {
          "indexed": false,
          "internalType": "uint256[]",
          "name": "projectIds",
          "type": "uint256[]"
        }
      ],
      "name": "RoundCreated",
      "type": "event"
    },
    {
      "anonymous": false,
      "inputs": [
        {
          "indexed": true,
          "internalType": "uint256",
          "name": "roundId",
          "type": "uint256"
        }
      ],
      "name": "RoundCreatedInSecret",
      "type": "event"
    },
    {
      "inputs": [
        {
          "internalType": "uint256",
          "name": "roundId",
          "type": "uint256"
        },
        {
          "internalType": "bool",
          "name": "sendToSecret",
          "type": "bool"
        },
        {
          "internalType": "address",
          "name": "userAddress",
          "type": "address"
        },
        {
          "internalType": "bytes32",
          "name": "payloadHash",
          "type": "bytes32"
        },
        {
          "internalType": "string",
          "name": "routingInfo",
          "type": "string"
        },
        {
          "components": [
            {
              "internalType": "bytes",
              "name": "user_key",
              "type": "bytes"
            },
            {
              "internalType": "bytes",
              "name": "user_pubkey",
              "type": "bytes"
            },
            {
              "internalType": "string",
              "name": "routing_code_hash",
              "type": "string"
            },
            {
              "internalType": "string",
              "name": "task_destination_network",
              "type": "string"
            },
            {
              "internalType": "string",
              "name": "handle",
              "type": "string"
            },
            {
              "internalType": "bytes12",
              "name": "nonce",
              "type": "bytes12"
            },
            {
              "internalType": "uint32",
              "name": "callback_gas_limit",
              "type": "uint32"
            },
            {
              "internalType": "bytes",
              "name": "payload",
              "type": "bytes"
            },
            {
              "internalType": "bytes",
              "name": "payload_signature",
              "type": "bytes"
            }
          ],
          "internalType": "struct IGateway.ExecutionInfo",
          "name": "info",
          "type": "tuple"
        }
      ],
      "name": "closeFundingRound",
      "outputs": [],
      "stateMutability": "payable",
      "type": "function"
    },
    {
      "inputs": [
        {
          "internalType": "uint256",
          "name": "roundId",
          "type": "uint256"
        },
        {
          "internalType": "bytes",
          "name": "json",
          "type": "bytes"
        }
      ],
      "name": "closedFundingRound",
      "outputs": [],
      "stateMutability": "nonpayable",
      "type": "function"
    },
    {
      "inputs": [
        {
          "internalType": "address",
          "name": "userAddress",
          "type": "address"
        },
        {
          "internalType": "bytes32",
          "name": "payloadHash",
          "type": "bytes32"
        },
        {
          "internalType": "string",
          "name": "routingInfo",
          "type": "string"
        },
        {
          "components": [
            {
              "internalType": "bytes",
              "name": "user_key",
              "type": "bytes"
            },
            {
              "internalType": "bytes",
              "name": "user_pubkey",
              "type": "bytes"
            },
            {
              "internalType": "string",
              "name": "routing_code_hash",
              "type": "string"
            },
            {
              "internalType": "string",
              "name": "task_destination_network",
              "type": "string"
            },
            {
              "internalType": "string",
              "name": "handle",
              "type": "string"
            },
            {
              "internalType": "bytes12",
              "name": "nonce",
              "type": "bytes12"
            },
            {
              "internalType": "uint32",
              "name": "callback_gas_limit",
              "type": "uint32"
            },
            {
              "internalType": "bytes",
              "name": "payload",
              "type": "bytes"
            },
            {
              "internalType": "bytes",
              "name": "payload_signature",
              "type": "bytes"
            }
          ],
          "internalType": "struct IGateway.ExecutionInfo",
          "name": "info",
          "type": "tuple"
        }
      ],
      "name": "contribute",
      "outputs": [],
      "stateMutability": "payable",
      "type": "function"
    },
    {
      "inputs": [
        {
          "internalType": "uint256",
          "name": "roundId",
          "type": "uint256"
        },
        {
          "internalType": "bytes",
          "name": "json",
          "type": "bytes"
        }
      ],
      "name": "contributed",
      "outputs": [],
      "stateMutability": "nonpayable",
      "type": "function"
    },
    {
      "inputs": [
        {
          "internalType": "uint256",
          "name": "id",
          "type": "uint256"
        },
        {
          "internalType": "string",
          "name": "name",
          "type": "string"
        },
        {
          "internalType": "string",
          "name": "description",
          "type": "string"
        },
        {
          "internalType": "string",
          "name": "curveType",
          "type": "string"
        },
        {
          "internalType": "uint256[]",
          "name": "projectIds",
          "type": "uint256[]"
        },
        {
          "internalType": "string[]",
          "name": "projectNames",
          "type": "string[]"
        },
        {
          "internalType": "string[]",
          "name": "projectDescriptions",
          "type": "string[]"
        },
        {
          "internalType": "address payable[]",
          "name": "projectAddresses",
          "type": "address[]"
        },
        {
          "internalType": "address",
          "name": "userAddress",
          "type": "address"
        },
        {
          "internalType": "bool",
          "name": "sendToSecret",
          "type": "bool"
        },
        {
          "internalType": "bytes32",
          "name": "payloadHash",
          "type": "bytes32"
        },
        {
          "internalType": "string",
          "name": "routingInfo",
          "type": "string"
        },
        {
          "components": [
            {
              "internalType": "bytes",
              "name": "user_key",
              "type": "bytes"
            },
            {
              "internalType": "bytes",
              "name": "user_pubkey",
              "type": "bytes"
            },
            {
              "internalType": "string",
              "name": "routing_code_hash",
              "type": "string"
            },
            {
              "internalType": "string",
              "name": "task_destination_network",
              "type": "string"
            },
            {
              "internalType": "string",
              "name": "handle",
              "type": "string"
            },
            {
              "internalType": "bytes12",
              "name": "nonce",
              "type": "bytes12"
            },
            {
              "internalType": "uint32",
              "name": "callback_gas_limit",
              "type": "uint32"
            },
            {
              "internalType": "bytes",
              "name": "payload",
              "type": "bytes"
            },
            {
              "internalType": "bytes",
              "name": "payload_signature",
              "type": "bytes"
            }
          ],
          "internalType": "struct IGateway.ExecutionInfo",
          "name": "info",
          "type": "tuple"
        }
      ],
      "name": "createFundingRound",
      "outputs": [],
      "stateMutability": "payable",
      "type": "function"
    },
    {
      "inputs": [
        {
          "internalType": "uint256",
          "name": "roundId",
          "type": "uint256"
        },
        {
          "internalType": "bytes",
          "name": "json",
          "type": "bytes"
        }
      ],
      "name": "createdFundingRound",
      "outputs": [],
      "stateMutability": "nonpayable",
      "type": "function"
    },
    {
      "inputs": [
        {
          "internalType": "uint256",
          "name": "roundId",
          "type": "uint256"
        },
        {
          "internalType": "address",
          "name": "userAddress",
          "type": "address"
        },
        {
          "internalType": "bytes32",
          "name": "payloadHash",
          "type": "bytes32"
        },
        {
          "internalType": "string",
          "name": "routingInfo",
          "type": "string"
        },
        {
          "components": [
            {
              "internalType": "bytes",
              "name": "user_key",
              "type": "bytes"
            },
            {
              "internalType": "bytes",
              "name": "user_pubkey",
              "type": "bytes"
            },
            {
              "internalType": "string",
              "name": "routing_code_hash",
              "type": "string"
            },
            {
              "internalType": "string",
              "name": "task_destination_network",
              "type": "string"
            },
            {
              "internalType": "string",
              "name": "handle",
              "type": "string"
            },
            {
              "internalType": "bytes12",
              "name": "nonce",
              "type": "bytes12"
            },
            {
              "internalType": "uint32",
              "name": "callback_gas_limit",
              "type": "uint32"
            },
            {
              "internalType": "bytes",
              "name": "payload",
              "type": "bytes"
            },
            {
              "internalType": "bytes",
              "name": "payload_signature",
              "type": "bytes"
            }
          ],
          "internalType": "struct IGateway.ExecutionInfo",
          "name": "info",
          "type": "tuple"
        }
      ],
      "name": "distributeFunding",
      "outputs": [],
      "stateMutability": "payable",
      "type": "function"
    },
    {
      "inputs": [
        {
          "internalType": "uint256",
          "name": "roundId",
          "type": "uint256"
        },
        {
          "internalType": "bytes",
          "name": "json",
          "type": "bytes"
        }
      ],
      "name": "distributedFunding",
      "outputs": [],
      "stateMutability": "nonpayable",
      "type": "function"
    },
    {
      "inputs": [
        {
          "internalType": "uint256",
          "name": "",
          "type": "uint256"
        }
      ],
      "name": "fundingRounds",
      "outputs": [
        {
          "internalType": "uint256",
          "name": "id",
          "type": "uint256"
        },
        {
          "internalType": "string",
          "name": "name",
          "type": "string"
        },
        {
          "internalType": "string",
          "name": "description",
          "type": "string"
        },
        {
          "internalType": "string",
          "name": "curveType",
          "type": "string"
        },
        {
          "internalType": "uint256",
          "name": "totalContributions",
          "type": "uint256"
        },
        {
          "internalType": "bool",
          "name": "isOpen",
          "type": "bool"
        },
        {
          "internalType": "bool",
          "name": "isDistributed",
          "type": "bool"
        }
      ],
      "stateMutability": "view",
      "type": "function"
    },
    {
      "inputs": [],
      "name": "gatewayContract",
      "outputs": [
        {
          "internalType": "contract IGateway",
          "name": "",
          "type": "address"
        }
      ],
      "stateMutability": "view",
      "type": "function"
    },
    {
      "inputs": [],
      "name": "getAllRoundIds",
      "outputs": [
        {
          "internalType": "uint256[]",
          "name": "",
          "type": "uint256[]"
        }
      ],
      "stateMutability": "view",
      "type": "function"
    },
    {
      "inputs": [
        {
          "internalType": "uint256",
          "name": "",
          "type": "uint256"
        }
      ],
      "name": "roundIds",
      "outputs": [
        {
          "internalType": "uint256",
          "name": "",
          "type": "uint256"
        }
      ],
      "stateMutability": "view",
      "type": "function"
    },
    {
      "inputs": [
        {
          "internalType": "string",
          "name": "s",
          "type": "string"
        }
      ],
      "name": "stringToUint",
      "outputs": [
        {
          "internalType": "uint256",
          "name": "",
          "type": "uint256"
        }
      ],
      "stateMutability": "pure",
      "type": "function"
    }
  ],
  "transactionHash": "0xd28899c065f55d174d36025dad844772498a2d626edc078a46b38f13abe6c533",
  "args": [
    "0x3879E146140b627a5C858a08e507B171D9E43139"
  ],
  "numDeployments": 27,
  "solcInputHash": "6e173af3448b8bff0068acf3f83e2b9d",
  "bytecode": "0x60803461007457601f611cec38819003918201601f19168301916001600160401b038311848410176100795780849260209460405283398101031261007457516001600160a01b0381169081900361007457600280546001600160a01b031916919091179055604051611c5c90816100908239f35b600080fd5b634e487b7160e01b600052604160045260246000fdfe6080604052600436101561001257600080fd5b6000803560e01c80631bd951551461132e5780634a98b9021461121957806355aa2f8c14611117578063763a3df614610fdb5780637faf8dcf14610da95780638b3b57a414610d7257806390a4cb9b14610d20578063a135c3e814610c91578063b239a41214610c5a578063c428a27814610baa578063c5ad404314610b73578063e09a1094146100d75763eb0cde1d146100ac57600080fd5b346100d457806003193601126100d4576002546040516001600160a01b039091168152602090f35b80fd5b506101a03660031901126100d4576024356001600160401b038111610b6f57610104903690600401611412565b6044356001600160401b038111610b5b57610123903690600401611412565b906064356001600160401b038111610b5757610143903690600401611412565b926084356001600160401b038111610b6f5736602382011215610b6f5780600401359061016f82611609565b9161017d604051938461139f565b8083526024602084019160051b83010191368311610b1957602401905b828210610b5f5750505060a4356001600160401b038111610b5b576101c3903690600401611620565b9460c4356001600160401b038111610b57576101e3903690600401611620565b9060e435906001600160401b038211610b195736602383011215610b1957816004013561020f81611609565b9261021d604051948561139f565b8184526024602085019260051b82010190368211610b2857602401915b818310610b3557505050610104356001600160a01b0381169003610b30576101243515156101243503610b30576001600160401b036101643511610b19576102883661016435600401611430565b6001600160401b036101843511610b2c576101206101843536036003190112610b2c5761012435610aaa575b50506004358552846020526040852096600435885586516001600160401b0381116109db576102e660018a01546114e9565b601f8111610a65575b50806020601f82116001146109fa5788916109ef575b508160011b916000199060031b1c19161760018901555b8051906001600160401b0382116109db57819061033c60028b01546114e9565b601f811161098a575b50602090601f831160011461091b578892610910575b50508160011b916000199060031b1c19161760028801555b8051906001600160401b0382116108fc57819061039360038a01546114e9565b601f81116108ab575b50602090601f831160011461083c578792610831575b50508160011b916000199060031b1c19161760038701555b60078601805460ff19166001179055835b8351811015610779576103ee818561185d565b516103f9828a61185d565b5190610405838661185d565b516001600160a01b03610418858761185d565b511690604051928360c08101106001600160401b0360c0860111176105c25760c08401604052835260208301938452604083015260608201528660808201528660a0820152610467838761185d565b51875260048901602052604087209181518355518051906001600160401b03821161069a57819061049b60018601546114e9565b601f8111610728575b50602090601f83116001146106b9578a926106ae575b50508160011b916000199060031b1c19161760018301555b60408101518051906001600160401b03821161069a576104f560028501546114e9565b601f8111610655575b50602090601f83116001146105e35791806005949260a0948c926105d8575b50508160011b916000199060031b1c19161760028501555b60038401600180841b036060830151166bffffffffffffffffffffffff841b825416179055608081015160048501550151910155610573818561185d565b5190600588015491600160401b8310156105c2576105a08360016105bd950160058c015560058b0161149d565b819291549060031b600019811b9283911b16911916179055611838565b6103db565b634e487b7160e01b600052604160045260246000fd5b01519050388061051d565b90600285018a5260208a20918a5b601f198516811061063d5750926005949260019260a09583601f19811610610624575b505050811b016002850155610535565b015160001960f88460031b161c19169055388080610614565b919260206001819286850151815501940192016105f1565b600285018a5260208a20601f840160051c810160208510610693575b601f830160051c820181106106875750506104fe565b60008155600101610671565b5080610671565b634e487b7160e01b89526041600452602489fd5b0151905038806104ba565b9250600185018a5260208a20908a935b601f198416851061070d576001945083601f198116106106f4575b505050811b0160018301556104d2565b015160001960f88460031b161c191690553880806106e4565b818101518355602094850194600190930192909101906106c9565b909150600185018a5260208a20601f840160051c810160208510610772575b90849392915b601f830160051c820181106107635750506104a4565b6000815585945060010161074d565b5080610747565b50505082600154600160401b8110156105c257600181018060015581101561081b577f2fceaf42a6664f3294222799a359650844542179732d12b26b6926bd338479a591610804916001600052600435907fb10e2d527612073b26eecdfd717e6a320cf44b4afac2b0732d9fcbe2b7fa0cf601556108156040519283926040845260408401906115c9565b8281036020840152600435956114b5565b0390a280f35b634e487b7160e01b600052603260045260246000fd5b0151905038806103b2565b9250600389018752602087209087935b601f1984168510610890576001945083601f19811610610877575b505050811b0160038701556103ca565b015160001960f88460031b161c19169055388080610867565b8181015183556020948501946001909301929091019061084c565b90915060038901875260208720601f840160051c8101602085106108f5575b90849392915b601f830160051c820181106108e657505061039c565b600081558594506001016108d0565b50806108ca565b634e487b7160e01b86526041600452602486fd5b01519050388061035b565b925060028a018852602088209088935b601f198416851061096f576001945083601f19811610610956575b505050811b016002880155610373565b015160001960f88460031b161c19169055388080610946565b8181015183556020948501946001909301929091019061092b565b90915060028a01885260208820601f840160051c8101602085106109d4575b90849392915b601f830160051c820181106109c5575050610345565b600081558594506001016109af565b50806109a9565b634e487b7160e01b87526041600452602487fd5b905088015138610305565b915060018a0188526020882088925b8a601f1984168510610a4e57506001935082601f19811610610a35575b5050811b01600189015561031c565b8a015160001960f88460031b161c191690553880610a26565b810151825560209384019360019092019101610a09565b60018a01885260208820601f830160051c810160208410610aa3575b601f830160051c82018110610a975750506102ef565b60008155600101610a81565b5080610a81565b6002546001600160a01b031690813b15610b2857918791610af1936040518095819482936339624a6b60e21b845261018435600401916101043561014435600487016116f2565b039134905af18015610b1d57908691156102b457610b0e90611371565b610b195784386102b4565b8480fd5b6040513d88823e3d90fd5b8780fd5b8680fd5b600080fd5b82356001600160a01b0381169003610b2857823581526020928301920161023a565b8380fd5b8280fd5b813581526020918201910161019a565b5080fd5b50346100d457610b823661145d565b507f0de2355f73246cb2852175af9385f91c8205be026c831a20ada4062931abdec08280a280f35b50346100d45760203660031901126100d457604090600435815280602052208054610bd760018301611523565b9160ff610be660028301611523565b610c3b610bf560038501611523565b610c2d6007600687015496015493610c1f604051998a998a5260e060208b015260e08a01906115c9565b9088820360408a01526115c9565b9086820360608801526115c9565b926080850152818116151560a085015260081c16151560c08301520390f35b50346100d457610c693661145d565b507f0e82eab4cbddb8a38b9fb81ba86a4a05ec8aa2c55dbea69d2e72857b4f90e9548280a280f35b50346100d457806003193601126100d45760405180918260018054928385526020809501918082527fb10e2d527612073b26eecdfd717e6a320cf44b4afac2b0732d9fcbe2b7fa0cf6915b86868210610d0a578590610cf28287038361139f565b610d066040519282849384528301906114b5565b0390f35b8354855288955090930192918101918101610cdc565b50346100d45760203660031901126100d457600435600154811015610b6f5760209060016000527fb10e2d527612073b26eecdfd717e6a320cf44b4afac2b0732d9fcbe2b7fa0cf60154604051908152f35b50346100d457610d813661145d565b507fdcad6660d3e34a68718474b3d2dfb7da8a012d967dfe595b0123a6112667f0688280a280f35b50346100d457610de4610dbb3661145d565b60409291925190610dcb82611384565b6001928284809452602092603b60f81b848301526118e1565b805190610df082611609565b91610dfe604051938461139f565b808352610e0d601f1991611609565b01875b818110610faf575050839087915b610f10575b5050848652858252600660408720015486935b610e64575b86867faf7b59e6c86cd7c8ea4dfcc3926826a19ee85cd219eaf4e1a1cfca41a9cc798d8280a280f35b8151841015610f0b578587528683526004604088200190610e8b85600560408b200161149d565b929054600393841b1c895284528780808060408120956064610ec08b8b610eb760048c0154928d61185d565b51015190611871565b0496879160018060a01b0391015416828215610f02575bf115610ef757610ef091610eea91611884565b93611838565b9284610e36565b6040513d89823e3d90fd5b506108fc610ed7565b610e3b565b809192945051821015610fa757610f49610f2a838361185d565b5160405190610f3882611384565b878252600b60fa1b868301526118e1565b80511561081b578381015192815187101561081b578693610f706040610f9e940151611aea565b60405191610f7d83611384565b825286820152610f8d828861185d565b52610f98818761185d565b50611838565b90829492610e1e565b849391610e23565b849192939550604051610fc181611384565b606081528983820152828288010152019085949291610e10565b50600319906080368301126100d4576001600160a01b0360043581811691828203610b30576001600160401b039060443582811161111357611021903690600401611430565b919096606435938411610b2c57610120908436030112611113576002541660c48301359663ffffffff97888116809103610b285760030280988116036110ff576110798798637fffffff989798489160011c16611871565b823b15610b2c5786946110a9604051978896879586946339624a6b60e21b865260040192602435600487016116f2565b03925af180156110f4576110e0575b50807f9ca0de0709c575c61710159cf212e68fa7f9bd8d600cb008ae8c028b7e54b70591a280f35b6110e990611371565b610b6f5781386110b8565b6040513d84823e3d90fd5b634e487b7160e01b87526011600452602487fd5b8580fd5b5060031960a036820112610b6f57600435906001600160a01b0390602435908282168203610b305784926001600160401b039160643583811161111357611162903690600401611430565b929091608435948511610b2c57610120908536030112611113576002541690813b156111135785936111b1604051968795869485946339624a6b60e21b865260040192604435600487016116f2565b039134905af180156110f457611205575b50819052816020526007604083200161010061ff00198254161790557fa9e5ea555a64d717f026f961abe3fa55f2cdfc8f3c9dcb6e9ae55edec249ff318280a280f35b61120e90611371565b610b6f5781386111c2565b506003199060c0368301126100d457600435916024358015158103610b5b57604435916001600160a01b03908184168403610b19576001600160401b0391608435838111610b2c5761126f903690600401611430565b94909260a435948511610b2857610120908536030112610b2c57878752866020526007604088200160ff1981541690556112cd575b85877fe9f7d7fd0b133404f0ccff737d6f3594748e04bc5507adfaed35835ef98937118280a280f35b6002541691823b15611113579085939291611305604051968795869485946339624a6b60e21b865260040192606435600487016116f2565b039134905af180156110f45761131f575b808080806112a4565b61132890611371565b38611316565b50346100d45760203660031901126100d457600435906001600160401b0382116100d45760206113696113643660048601611412565b611aea565b604051908152f35b6001600160401b0381116105c257604052565b604081019081106001600160401b038211176105c257604052565b90601f801991011681019081106001600160401b038211176105c257604052565b6001600160401b0381116105c257601f01601f191660200190565b9291926113e7826113c0565b916113f5604051938461139f565b829481845281830111610b30578281602093846000960137010152565b9080601f83011215610b305781602061142d933591016113db565b90565b9181601f84011215610b30578235916001600160401b038311610b305760208381860195010111610b3057565b906040600319830112610b305760043591602435906001600160401b038211610b305780602383011215610b305781602461142d936004013591016113db565b805482101561081b5760005260206000200190600090565b90815180825260208080930193019160005b8281106114d5575050505090565b8351855293810193928101926001016114c7565b90600182811c92168015611519575b602083101461150357565b634e487b7160e01b600052602260045260246000fd5b91607f16916114f8565b9060405191826000825492611537846114e9565b9081845260019485811690816000146115a65750600114611563575b50506115619250038361139f565b565b9093915060005260209081600020936000915b81831061158e57505061156193508201013880611553565b85548884018501529485019487945091830191611576565b91505061156194506020925060ff191682840152151560051b8201013880611553565b919082519283825260005b8481106115f5575050826000602080949584010152601f8019910116010190565b6020818301810151848301820152016115d4565b6001600160401b0381116105c25760051b60200190565b9080601f83011215610b305781359061163882611609565b92611646604051948561139f565b828452602092838086019160051b83010192808411610b3057848301915b8483106116745750505050505090565b82356001600160401b038111610b3057869161169584848094890101611412565b815201920191611664565b908060209392818452848401376000828201840152601f01601f1916010190565b9035601e1982360301811215610b305701602081359101916001600160401b038211610b30578136038313610b3057565b9081526001600160a01b03909116602082015260806040820181905290939261171e92918501916116a0565b9160608184039101526117ba61179f61178461176961174e61174086806116c1565b610120808a528901916116a0565b61175b60208701876116c1565b9088830360208a01526116a0565b61177660408601866116c1565b9087830360408901526116a0565b61179160608501856116c1565b9086830360608801526116a0565b6117ac60808401846116c1565b9085830360808701526116a0565b9160a08201356bffffffffffffffffffffffff60a01b8116809103610b305760a082015260c082013563ffffffff8116809103610b305761142d936118199160c084015261180b60e08501856116c1565b9084830360e08601526116a0565b9161182a61010091828101906116c1565b9290918185039101526116a0565b60001981146118475760010190565b634e487b7160e01b600052601160045260246000fd5b805182101561081b5760209160051b010190565b8181029291811591840414171561184757565b9190820391821161184757565b90815181101561081b570160200190565b906118ac826113c0565b6118b9604051918261139f565b82815280926118ca601f19916113c0565b0190602036910137565b9190820180921161184757565b91909160019060005b8151811015611940576001600160f81b0319806119078385611891565b51169086511561081b576020870151161461192b575b61192690611838565b6118ea565b9161193861192691611838565b92905061191d565b5061194a82611609565b91611958604051938461139f565b808352611967601f1991611609565b0160005b818110611ad95750506000918290835b8351811015611a5c576001600160f81b0319806119988387611891565b511688511561081b578160208a015116146119bd575b506119b890611838565b61197b565b966119d56119d085849594999899611884565b6118a2565b6119df888461185d565b526119ea878361185d565b506119f5878361185d565b519560005b8751811015611a3557808a611a1b611a15611a30948a6118d4565b8a611891565b511660001a611a2a828b611891565b53611838565b6119fa565b50969195509650611a47919250611838565b926001820180831161184757916119b86119ae565b509392611a8f919550611a736119d0878551611884565b611a7d828761185d565b52611a88818661185d565b508461185d565b519160005b8351811015611ad157611acc906001600160f81b0319611abd611ab7838a6118d4565b86611891565b511660001a611a2a8287611891565b611a94565b509350505090565b80606060208093870101520161196b565b90600091825b8151841015611bd2576001600160f81b0319600360fc1b81611b128786611891565b511610159081611bb7575b5015611b6757600a9081810291818304149015171561184757602f19611b438584611891565b5160f81c0160ff9182821161184757611b6192610eea9216906118d4565b92611af0565b60405162461bcd60e51b815260206004820152602260248201527f4e6f6e2d6e756d657269632063686172616374657220656e636f756e74657265604482015261321760f11b6064820152608490fd5b603960f81b9150611bc88685611891565b5116111538611b1d565b9192505060648111611be15790565b60405162461bcd60e51b815260206004820152601d60248201527f4e756d626572206f7574206f662065787065637465642072616e67652e0000006044820152606490fdfea264697066735822122028ce8fa6fb2784a23abd60d339a7aa786d137ab89573e685058a00a15680c1a564736f6c63430008110033",
  "devdoc": {
    "author": "arjanjohan",
    "kind": "dev",
    "methods": {},
    "version": 1
  },
  "userdoc": {
    "kind": "user",
    "methods": {},
    "notice": "A smart contract for cross-chain quadratic voting developed during EthDam 24. This contract supports various types of funding curves and ensures privacy and security through integration with the Secret Network.",
    "version": 1
  },
  "storageLayout": {
    "storage": [
      {
        "astId": 50,
        "contract": "contracts/Funding.sol:Funding",
        "label": "fundingRounds",
        "offset": 0,
        "slot": "0",
        "type": "t_mapping(t_uint256,t_struct(FundingRound)40_storage)"
      },
      {
        "astId": 53,
        "contract": "contracts/Funding.sol:Funding",
        "label": "roundIds",
        "offset": 0,
        "slot": "1",
        "type": "t_array(t_uint256)dyn_storage"
      },
      {
        "astId": 56,
        "contract": "contracts/Funding.sol:Funding",
        "label": "gatewayContract",
        "offset": 0,
        "slot": "2",
        "type": "t_contract(IGateway)2692"
      }
    ],
    "types": {
      "t_address_payable": {
        "encoding": "inplace",
        "label": "address payable",
        "numberOfBytes": "20"
      },
      "t_array(t_uint256)dyn_storage": {
        "base": "t_uint256",
        "encoding": "dynamic_array",
        "label": "uint256[]",
        "numberOfBytes": "32"
      },
      "t_bool": {
        "encoding": "inplace",
        "label": "bool",
        "numberOfBytes": "1"
      },
      "t_contract(IGateway)2692": {
        "encoding": "inplace",
        "label": "contract IGateway",
        "numberOfBytes": "20"
      },
      "t_mapping(t_uint256,t_struct(FundingRound)40_storage)": {
        "encoding": "mapping",
        "key": "t_uint256",
        "label": "mapping(uint256 => struct Funding.FundingRound)",
        "numberOfBytes": "32",
        "value": "t_struct(FundingRound)40_storage"
      },
      "t_mapping(t_uint256,t_struct(Project)17_storage)": {
        "encoding": "mapping",
        "key": "t_uint256",
        "label": "mapping(uint256 => struct Funding.Project)",
        "numberOfBytes": "32",
        "value": "t_struct(Project)17_storage"
      },
      "t_string_storage": {
        "encoding": "bytes",
        "label": "string",
        "numberOfBytes": "32"
      },
      "t_struct(FundingRound)40_storage": {
        "encoding": "inplace",
        "label": "struct Funding.FundingRound",
        "members": [
          {
            "astId": 19,
            "contract": "contracts/Funding.sol:Funding",
            "label": "id",
            "offset": 0,
            "slot": "0",
            "type": "t_uint256"
          },
          {
            "astId": 21,
            "contract": "contracts/Funding.sol:Funding",
            "label": "name",
            "offset": 0,
            "slot": "1",
            "type": "t_string_storage"
          },
          {
            "astId": 23,
            "contract": "contracts/Funding.sol:Funding",
            "label": "description",
            "offset": 0,
            "slot": "2",
            "type": "t_string_storage"
          },
          {
            "astId": 25,
            "contract": "contracts/Funding.sol:Funding",
            "label": "curveType",
            "offset": 0,
            "slot": "3",
            "type": "t_string_storage"
          },
          {
            "astId": 30,
            "contract": "contracts/Funding.sol:Funding",
            "label": "projects",
            "offset": 0,
            "slot": "4",
            "type": "t_mapping(t_uint256,t_struct(Project)17_storage)"
          },
          {
            "astId": 33,
            "contract": "contracts/Funding.sol:Funding",
            "label": "projectIds",
            "offset": 0,
            "slot": "5",
            "type": "t_array(t_uint256)dyn_storage"
          },
          {
            "astId": 35,
            "contract": "contracts/Funding.sol:Funding",
            "label": "totalContributions",
            "offset": 0,
            "slot": "6",
            "type": "t_uint256"
          },
          {
            "astId": 37,
            "contract": "contracts/Funding.sol:Funding",
            "label": "isOpen",
            "offset": 0,
            "slot": "7",
            "type": "t_bool"
          },
          {
            "astId": 39,
            "contract": "contracts/Funding.sol:Funding",
            "label": "isDistributed",
            "offset": 1,
            "slot": "7",
            "type": "t_bool"
          }
        ],
        "numberOfBytes": "256"
      },
      "t_struct(Project)17_storage": {
        "encoding": "inplace",
        "label": "struct Funding.Project",
        "members": [
          {
            "astId": 6,
            "contract": "contracts/Funding.sol:Funding",
            "label": "id",
            "offset": 0,
            "slot": "0",
            "type": "t_uint256"
          },
          {
            "astId": 8,
            "contract": "contracts/Funding.sol:Funding",
            "label": "name",
            "offset": 0,
            "slot": "1",
            "type": "t_string_storage"
          },
          {
            "astId": 10,
            "contract": "contracts/Funding.sol:Funding",
            "label": "description",
            "offset": 0,
            "slot": "2",
            "type": "t_string_storage"
          },
          {
            "astId": 12,
            "contract": "contracts/Funding.sol:Funding",
            "label": "projectAddress",
            "offset": 0,
            "slot": "3",
            "type": "t_address_payable"
          },
          {
            "astId": 14,
            "contract": "contracts/Funding.sol:Funding",
            "label": "totalContributions",
            "offset": 0,
            "slot": "4",
            "type": "t_uint256"
          },
          {
            "astId": 16,
            "contract": "contracts/Funding.sol:Funding",
            "label": "totalSquareRoots",
            "offset": 0,
            "slot": "5",
            "type": "t_uint256"
          }
        ],
        "numberOfBytes": "192"
      },
      "t_uint256": {
        "encoding": "inplace",
        "label": "uint256",
        "numberOfBytes": "32"
      }
    }
  }
}