{
  "_format": "hh-sol-artifact-1",
  "contractName": "Funding",
  "sourceName": "contracts/Funding.sol",
  "abi": [
    {
      "inputs": [
        {
          "internalType": "address",
          "name": "gatewayAddress",
          "type": "address"
        }
      ],
      "stateMutability": "nonpayable",
      "type": "constructor"
    },
    {
      "anonymous": false,
      "inputs": [
        {
          "indexed": true,
          "internalType": "address",
          "name": "contributor",
          "type": "address"
        }
      ],
      "name": "ContributionReceived",
      "type": "event"
    },
    {
      "anonymous": false,
      "inputs": [
        {
          "indexed": true,
          "internalType": "uint256",
          "name": "roundId",
          "type": "uint256"
        }
      ],
      "name": "ContributionReceivedInSecret",
      "type": "event"
    },
    {
      "anonymous": false,
      "inputs": [
        {
          "indexed": true,
          "internalType": "uint256",
          "name": "roundId",
          "type": "uint256"
        }
      ],
      "name": "DistributedTokens",
      "type": "event"
    },
    {
      "anonymous": false,
      "inputs": [
        {
          "indexed": true,
          "internalType": "uint256",
          "name": "roundId",
          "type": "uint256"
        }
      ],
      "name": "DistributedTokensInSecret",
      "type": "event"
    },
    {
      "anonymous": false,
      "inputs": [
        {
          "indexed": true,
          "internalType": "uint256",
          "name": "roundId",
          "type": "uint256"
        }
      ],
      "name": "RoundClosed",
      "type": "event"
    },
    {
      "anonymous": false,
      "inputs": [
        {
          "indexed": true,
          "internalType": "uint256",
          "name": "roundId",
          "type": "uint256"
        }
      ],
      "name": "RoundClosedInSecret",
      "type": "event"
    },
    {
      "anonymous": false,
      "inputs": [
        {
          "indexed": true,
          "internalType": "uint256",
          "name": "roundId",
          "type": "uint256"
        },
        {
          "indexed": false,
          "internalType": "string",
          "name": "name",
          "type": "string"
        },
        {
          "indexed": false,
          "internalType": "uint256[]",
          "name": "projectIds",
          "type": "uint256[]"
        }
      ],
      "name": "RoundCreated",
      "type": "event"
    },
    {
      "anonymous": false,
      "inputs": [
        {
          "indexed": true,
          "internalType": "uint256",
          "name": "roundId",
          "type": "uint256"
        }
      ],
      "name": "RoundCreatedInSecret",
      "type": "event"
    },
    {
      "inputs": [
        {
          "internalType": "uint256",
          "name": "roundId",
          "type": "uint256"
        },
        {
          "internalType": "bool",
          "name": "sendToSecret",
          "type": "bool"
        },
        {
          "internalType": "address",
          "name": "userAddress",
          "type": "address"
        },
        {
          "internalType": "bytes32",
          "name": "payloadHash",
          "type": "bytes32"
        },
        {
          "internalType": "string",
          "name": "routingInfo",
          "type": "string"
        },
        {
          "components": [
            {
              "internalType": "bytes",
              "name": "user_key",
              "type": "bytes"
            },
            {
              "internalType": "bytes",
              "name": "user_pubkey",
              "type": "bytes"
            },
            {
              "internalType": "string",
              "name": "routing_code_hash",
              "type": "string"
            },
            {
              "internalType": "string",
              "name": "task_destination_network",
              "type": "string"
            },
            {
              "internalType": "string",
              "name": "handle",
              "type": "string"
            },
            {
              "internalType": "bytes12",
              "name": "nonce",
              "type": "bytes12"
            },
            {
              "internalType": "uint32",
              "name": "callback_gas_limit",
              "type": "uint32"
            },
            {
              "internalType": "bytes",
              "name": "payload",
              "type": "bytes"
            },
            {
              "internalType": "bytes",
              "name": "payload_signature",
              "type": "bytes"
            }
          ],
          "internalType": "struct IGateway.ExecutionInfo",
          "name": "info",
          "type": "tuple"
        }
      ],
      "name": "closeFundingRound",
      "outputs": [],
      "stateMutability": "payable",
      "type": "function"
    },
    {
      "inputs": [
        {
          "internalType": "uint256",
          "name": "roundId",
          "type": "uint256"
        },
        {
          "internalType": "bytes",
          "name": "json",
          "type": "bytes"
        }
      ],
      "name": "closedFundingRound",
      "outputs": [],
      "stateMutability": "nonpayable",
      "type": "function"
    },
    {
      "inputs": [
        {
          "internalType": "address",
          "name": "userAddress",
          "type": "address"
        },
        {
          "internalType": "bytes32",
          "name": "payloadHash",
          "type": "bytes32"
        },
        {
          "internalType": "string",
          "name": "routingInfo",
          "type": "string"
        },
        {
          "components": [
            {
              "internalType": "bytes",
              "name": "user_key",
              "type": "bytes"
            },
            {
              "internalType": "bytes",
              "name": "user_pubkey",
              "type": "bytes"
            },
            {
              "internalType": "string",
              "name": "routing_code_hash",
              "type": "string"
            },
            {
              "internalType": "string",
              "name": "task_destination_network",
              "type": "string"
            },
            {
              "internalType": "string",
              "name": "handle",
              "type": "string"
            },
            {
              "internalType": "bytes12",
              "name": "nonce",
              "type": "bytes12"
            },
            {
              "internalType": "uint32",
              "name": "callback_gas_limit",
              "type": "uint32"
            },
            {
              "internalType": "bytes",
              "name": "payload",
              "type": "bytes"
            },
            {
              "internalType": "bytes",
              "name": "payload_signature",
              "type": "bytes"
            }
          ],
          "internalType": "struct IGateway.ExecutionInfo",
          "name": "info",
          "type": "tuple"
        }
      ],
      "name": "contribute",
      "outputs": [],
      "stateMutability": "payable",
      "type": "function"
    },
    {
      "inputs": [
        {
          "internalType": "uint256",
          "name": "roundId",
          "type": "uint256"
        },
        {
          "internalType": "bytes",
          "name": "json",
          "type": "bytes"
        }
      ],
      "name": "contributed",
      "outputs": [],
      "stateMutability": "nonpayable",
      "type": "function"
    },
    {
      "inputs": [
        {
          "internalType": "uint256",
          "name": "id",
          "type": "uint256"
        },
        {
          "internalType": "string",
          "name": "name",
          "type": "string"
        },
        {
          "internalType": "string",
          "name": "description",
          "type": "string"
        },
        {
          "internalType": "string",
          "name": "curveType",
          "type": "string"
        },
        {
          "internalType": "uint256[]",
          "name": "projectIds",
          "type": "uint256[]"
        },
        {
          "internalType": "string[]",
          "name": "projectNames",
          "type": "string[]"
        },
        {
          "internalType": "string[]",
          "name": "projectDescriptions",
          "type": "string[]"
        },
        {
          "internalType": "address payable[]",
          "name": "projectAddresses",
          "type": "address[]"
        },
        {
          "internalType": "address",
          "name": "userAddress",
          "type": "address"
        },
        {
          "internalType": "bool",
          "name": "sendToSecret",
          "type": "bool"
        },
        {
          "internalType": "bytes32",
          "name": "payloadHash",
          "type": "bytes32"
        },
        {
          "internalType": "string",
          "name": "routingInfo",
          "type": "string"
        },
        {
          "components": [
            {
              "internalType": "bytes",
              "name": "user_key",
              "type": "bytes"
            },
            {
              "internalType": "bytes",
              "name": "user_pubkey",
              "type": "bytes"
            },
            {
              "internalType": "string",
              "name": "routing_code_hash",
              "type": "string"
            },
            {
              "internalType": "string",
              "name": "task_destination_network",
              "type": "string"
            },
            {
              "internalType": "string",
              "name": "handle",
              "type": "string"
            },
            {
              "internalType": "bytes12",
              "name": "nonce",
              "type": "bytes12"
            },
            {
              "internalType": "uint32",
              "name": "callback_gas_limit",
              "type": "uint32"
            },
            {
              "internalType": "bytes",
              "name": "payload",
              "type": "bytes"
            },
            {
              "internalType": "bytes",
              "name": "payload_signature",
              "type": "bytes"
            }
          ],
          "internalType": "struct IGateway.ExecutionInfo",
          "name": "info",
          "type": "tuple"
        }
      ],
      "name": "createFundingRound",
      "outputs": [],
      "stateMutability": "payable",
      "type": "function"
    },
    {
      "inputs": [
        {
          "internalType": "uint256",
          "name": "roundId",
          "type": "uint256"
        },
        {
          "internalType": "bytes",
          "name": "json",
          "type": "bytes"
        }
      ],
      "name": "createdFundingRound",
      "outputs": [],
      "stateMutability": "nonpayable",
      "type": "function"
    },
    {
      "inputs": [
        {
          "internalType": "uint256",
          "name": "roundId",
          "type": "uint256"
        },
        {
          "internalType": "address",
          "name": "userAddress",
          "type": "address"
        },
        {
          "internalType": "bytes32",
          "name": "payloadHash",
          "type": "bytes32"
        },
        {
          "internalType": "string",
          "name": "routingInfo",
          "type": "string"
        },
        {
          "components": [
            {
              "internalType": "bytes",
              "name": "user_key",
              "type": "bytes"
            },
            {
              "internalType": "bytes",
              "name": "user_pubkey",
              "type": "bytes"
            },
            {
              "internalType": "string",
              "name": "routing_code_hash",
              "type": "string"
            },
            {
              "internalType": "string",
              "name": "task_destination_network",
              "type": "string"
            },
            {
              "internalType": "string",
              "name": "handle",
              "type": "string"
            },
            {
              "internalType": "bytes12",
              "name": "nonce",
              "type": "bytes12"
            },
            {
              "internalType": "uint32",
              "name": "callback_gas_limit",
              "type": "uint32"
            },
            {
              "internalType": "bytes",
              "name": "payload",
              "type": "bytes"
            },
            {
              "internalType": "bytes",
              "name": "payload_signature",
              "type": "bytes"
            }
          ],
          "internalType": "struct IGateway.ExecutionInfo",
          "name": "info",
          "type": "tuple"
        }
      ],
      "name": "distributeFunding",
      "outputs": [],
      "stateMutability": "payable",
      "type": "function"
    },
    {
      "inputs": [
        {
          "internalType": "uint256",
          "name": "roundId",
          "type": "uint256"
        },
        {
          "internalType": "bytes",
          "name": "json",
          "type": "bytes"
        }
      ],
      "name": "distributedFunding",
      "outputs": [],
      "stateMutability": "nonpayable",
      "type": "function"
    },
    {
      "inputs": [
        {
          "internalType": "uint256",
          "name": "",
          "type": "uint256"
        }
      ],
      "name": "fundingRounds",
      "outputs": [
        {
          "internalType": "uint256",
          "name": "id",
          "type": "uint256"
        },
        {
          "internalType": "string",
          "name": "name",
          "type": "string"
        },
        {
          "internalType": "string",
          "name": "description",
          "type": "string"
        },
        {
          "internalType": "string",
          "name": "curveType",
          "type": "string"
        },
        {
          "internalType": "uint256",
          "name": "totalContributions",
          "type": "uint256"
        },
        {
          "internalType": "bool",
          "name": "isOpen",
          "type": "bool"
        },
        {
          "internalType": "bool",
          "name": "isDistributed",
          "type": "bool"
        }
      ],
      "stateMutability": "view",
      "type": "function"
    },
    {
      "inputs": [],
      "name": "gatewayContract",
      "outputs": [
        {
          "internalType": "contract IGateway",
          "name": "",
          "type": "address"
        }
      ],
      "stateMutability": "view",
      "type": "function"
    },
    {
      "inputs": [
        {
          "internalType": "uint256",
          "name": "",
          "type": "uint256"
        }
      ],
      "name": "roundIds",
      "outputs": [
        {
          "internalType": "uint256",
          "name": "",
          "type": "uint256"
        }
      ],
      "stateMutability": "view",
      "type": "function"
    }
  ],
  "bytecode": "0x60803461007457601f61273438819003918201601f19168301916001600160401b038311848410176100795780849260209460405283398101031261007457516001600160a01b0381169081900361007457600280546001600160a01b0319169190911790556040516126a490816100908239f35b600080fd5b634e487b7160e01b600052604160045260246000fdfe608080604052600436101561001357600080fd5b600090813560e01c9081634a98b9021461134d5750806355aa2f8c1461124b578063763a3df6146111595780637faf8dcf14610d135780638b3b57a414610cdc57806390a4cb9b14610c8a578063b239a41214610c53578063c428a27814610ba3578063c5ad404314610b6c578063e09a1094146100c55763eb0cde1d1461009a57600080fd5b346100c257806003193601126100c2576002546040516001600160a01b039091168152602090f35b80fd5b506101a03660031901126100c2576024356001600160401b038111610b64576100f29036906004016116dd565b6044356001600160401b038111610b68576101119036906004016116dd565b906064356001600160401b038111610b50576101319036906004016116dd565b926084356001600160401b038111610b645736602382011215610b6457806004013561015c816116f8565b9161016a60405193846114ef565b818352602083016024819360051b83010191368311610b0e57602401905b828210610b545750505060a4356001600160401b038111610b50576101b190369060040161170f565b9560c4356001600160401b038111610b4c576101d190369060040161170f565b9160e435916001600160401b038311610b0e5736602384011215610b0e5782600401356101fd816116f8565b9361020b60405195866114ef565b8185526024602086019260051b82010190368211610b1d57602401915b818310610b2a57505050610104356001600160a01b0381169003610b2557610124358015158103610b2557610164356001600160401b038111610b215761027390369060040161145e565b90916001600160401b036101843511610b1d576101206101843536036003190112610b1d57610a9f575b50506004358652856020526040862097600435895587516001600160401b0381116109d0576102cf60018b01546115bd565b601f8111610a5a575b50806020601f82116001146109ef5789916109e4575b508160011b916000199060031b1c19161760018a01555b8051906001600160401b0382116109d057819061032560028c01546115bd565b601f811161097f575b50602090601f8311600114610910578992610905575b50508160011b916000199060031b1c19161760028901555b8051906001600160401b0382116108f157819061037c60038b01546115bd565b601f81116108a0575b50602090601f8311600114610831578892610826575b50508160011b916000199060031b1c19161760038801555b60078701805460ff19166001179055845b845181101561074c576103d78186611936565b516103e2828b611936565b51906103ee8387611936565b516001600160a01b036104018588611936565b51169060405192610411846114b9565b835260208301938452604083015260608201528760808201528760a082015261043a8388611936565b51885260048a01602052604088209181518355518051906001600160401b03821161066d57819061046e60018601546115bd565b601f81116106fb575b50602090601f831160011461068c578b92610681575b50508160011b916000199060031b1c19161760018301555b60408101518051906001600160401b03821161066d576104c860028501546115bd565b601f8111610628575b50602090601f83116001146105b65791806005949260a0948d926105ab575b50508160011b916000199060031b1c19161760028501555b60038401600180841b036060830151166bffffffffffffffffffffffff841b8254161790556080810151600485015501519101556105468186611936565b5190600589015491600160401b83101561059557610573836001610590950160058d015560058c016115a5565b819291549060031b600019811b9283911b16911916179055611927565b6103c4565b634e487b7160e01b600052604160045260246000fd5b0151905038806104f0565b90600285018b5260208b20918b5b601f19851681106106105750926005949260019260a09583601f198116106105f7575b505050811b016002850155610508565b015160001960f88460031b161c191690553880806105e7565b919260206001819286850151815501940192016105c4565b600285018b5260208b20601f840160051c810160208510610666575b601f830160051c8201811061065a5750506104d1565b60008155600101610644565b5080610644565b634e487b7160e01b8a52604160045260248afd5b01519050388061048d565b9250600185018b5260208b20908b935b601f19841685106106e0576001945083601f198116106106c7575b505050811b0160018301556104a5565b015160001960f88460031b161c191690553880806106b7565b8181015183556020948501946001909301929091019061069c565b909150600185018b5260208b20601f840160051c810160208510610745575b90849392915b601f830160051c82018110610736575050610477565b60008155859450600101610720565b508061071a565b85828887600154600160401b811015610595576001810180600155811015610810576001600052600435907fb10e2d527612073b26eecdfd717e6a320cf44b4afac2b0732d9fcbe2b7fa0cf6015560206107b16040519360408552604085019061169d565b91838303828501525191828152019290845b8181106107fa57505050807f2fceaf42a6664f3294222799a359650844542179732d12b26b6926bd338479a591600435930390a280f35b82518552602094850194909201916001016107c3565b634e487b7160e01b600052603260045260246000fd5b01519050388061039b565b925060038a018852602088209088935b601f1984168510610885576001945083601f1981161061086c575b505050811b0160038801556103b3565b015160001960f88460031b161c1916905538808061085c565b81810151835560209485019460019093019290910190610841565b90915060038a01885260208820601f840160051c8101602085106108ea575b90849392915b601f830160051c820181106108db575050610385565b600081558594506001016108c5565b50806108bf565b634e487b7160e01b87526041600452602487fd5b015190503880610344565b925060028b018952602089209089935b601f1984168510610964576001945083601f1981161061094b575b505050811b01600289015561035c565b015160001960f88460031b161c1916905538808061093b565b81810151835560209485019460019093019290910190610920565b90915060028b01895260208920601f840160051c8101602085106109c9575b90849392915b601f830160051c820181106109ba57505061032e565b600081558594506001016109a4565b508061099e565b634e487b7160e01b88526041600452602488fd5b9050890151386102ee565b915060018b0189526020892089925b8b601f1984168510610a4357506001935082601f19811610610a2a575b5050811b0160018a0155610305565b8b015160001960f88460031b161c191690553880610a1b565b8101518255602093840193600190920191016109fe565b60018b01895260208920601f830160051c810160208410610a98575b601f830160051c82018110610a8c5750506102d8565b60008155600101610a76565b5080610a76565b6002546001600160a01b031690813b15610b1d57918891610ae6936040518095819482936339624a6b60e21b845261018435600401916101043561014435600487016117e1565b039134905af18015610b12579087911561029d57610b039061148b565b610b0e57853861029d565b8580fd5b6040513d89823e3d90fd5b8880fd5b8780fd5b600080fd5b82356001600160a01b0381169003610b1d578235815260209283019201610228565b8480fd5b8380fd5b8135815260209182019101610188565b5080fd5b8280fd5b50346100c257610b7b36611562565b507f0de2355f73246cb2852175af9385f91c8205be026c831a20ada4062931abdec08280a280f35b50346100c25760203660031901126100c257604090600435815280602052208054610bd0600183016115f7565b9160ff610bdf600283016115f7565b610c34610bee600385016115f7565b610c266007600687015496015493610c18604051998a998a5260e060208b015260e08a019061169d565b9088820360408a015261169d565b90868203606088015261169d565b926080850152818116151560a085015260081c16151560c08301520390f35b50346100c257610c6236611562565b507f0e82eab4cbddb8a38b9fb81ba86a4a05ec8aa2c55dbea69d2e72857b4f90e9548280a280f35b50346100c25760203660031901126100c257600435600154811015610b645760209060016000527fb10e2d527612073b26eecdfd717e6a320cf44b4afac2b0732d9fcbe2b7fa0cf60154604051908152f35b50346100c257610ceb36611562565b507fdcad6660d3e34a68718474b3d2dfb7da8a012d967dfe595b0123a6112667f0688280a280f35b50346100c257610d2236611562565b91610d2c83611b20565b60001980820196935090861161114557600380960493610d4b856116f8565b94610d5960405196876114ef565b808652610d68601f19916116f8565b01815b818110611121575050805b855181101561104c5780880290888204810361103857600191808301908184116110245790610dbf91610dc960209283610db0828c611936565b5101519060609586918c611936565b510151908b6125e7565b926002918201809211610eb15790610dfd91610df384610de9848d611936565b510151928b611936565b510151908a6125e7565b858695808889948a935b610ec5575b5050505080610e7b575b50610e53575b92610e4e9360405192610e2e8461149e565b8352820152610e3d8289611936565b52610e488188611936565b50611927565b610d76565b83600003938085058714901517610e1c575b634e487b7160e01b600052601160045260246000fd5b604d8196929611610eb157600a0a818102919060008212600160ff1b821416610e65578183051490151715610e65579338610e16565b634e487b7160e01b87526011600452602487fd5b9091929881518a101561101e57891580610ffd575b610ff4575b610ee98a83611ace565b51603060f891821c101580610fdd575b15610fb15783610f88575b600a91828102928184051490151715610e6557610f218b84611ace565b51901c90602f19808301928084138716610f7457908d918301019283129112908015821691151617610f605790610f5a8493929a611927565b93610e07565b634e487b7160e01b8b52601160045260248bfd5b634e487b7160e01b8e52601160045260248efd5b92909993918515600014610f9c5750610e0c565b919399909294610fab90611af0565b94610f04565b99602e83929b610fc383889796611ace565b51901c14610fd5575b610f5a90611927565b839250610fcc565b506039610fea8c85611ace565b51821c1115610ef9565b94508294610edf565b50602d60f81b6001600160f81b03196110168c85611ace565b511614610eda565b98610e0c565b634e487b7160e01b85526011600452602485fd5b634e487b7160e01b83526011600452602483fd5b8588888481815260209281845260066040832001549282935b8184528386526005806040862001548610156110f85761109186600460408820019260408820016115a5565b905490851b1c855286526040842090848080806110ae8c87611957565b9588015486906001600160a01b03168282156110ef575bf1156110e4576110de916110d89161194a565b94611927565b93611065565b6040513d86823e3d90fd5b506108fc6110c5565b84837faf7b59e6c86cd7c8ea4dfcc3926826a19ee85cd219eaf4e1a1cfca41a9cc798d8280a280f35b6020906040516111308161149e565b60608152828581830152828a01015201610d6b565b634e487b7160e01b84526011600452602484fd5b50600319608036820112610b64576001600160a01b0360043581811692838203610b255784926001600160401b0391604435838111610b0e576111a090369060040161145e565b92909160643594851161124757610120908536030112610b0e576002541690813b15610b0e5785936111ef604051968795869485946339624a6b60e21b865260040192602435600487016117e1565b039134905af1801561123c57611228575b50807f9ca0de0709c575c61710159cf212e68fa7f9bd8d600cb008ae8c028b7e54b70591a280f35b6112319061148b565b610b64578138611200565b6040513d84823e3d90fd5b8680fd5b5060031960a036820112610b6457600435906001600160a01b0390602435908282168203610b255784926001600160401b0391606435838111610b0e5761129690369060040161145e565b92909160843594851161124757610120908536030112610b0e576002541690813b15610b0e5785936112e5604051968795869485946339624a6b60e21b865260040192604435600487016117e1565b039134905af1801561123c57611339575b50819052816020526007604083200161010061ff00198254161790557fa9e5ea555a64d717f026f961abe3fa55f2cdfc8f3c9dcb6e9ae55edec249ff318280a280f35b6113429061148b565b610b645781386112f6565b826003199160c083360112610b6457600435926024358015158103610b50576001600160a01b039160443591908383168303610b0e576001600160401b0393608435858111610b21576113a490369060040161145e565b93909260a435968711610b1d57610120908736030112610b2157888852876020526007604089200160ff198154169055611402575b86887fe9f7d7fd0b133404f0ccff737d6f3594748e04bc5507adfaed35835ef98937118280a280f35b6002541693843b15611247576114348694889694869485946339624a6b60e21b865260040192606435600487016117e1565b039134905af1801561123c5761144f575b80808080806113d9565b6114589061148b565b82611445565b9181601f84011215610b25578235916001600160401b038311610b255760208381860195010111610b2557565b6001600160401b03811161059557604052565b604081019081106001600160401b0382111761059557604052565b60c081019081106001600160401b0382111761059557604052565b606081019081106001600160401b0382111761059557604052565b90601f801991011681019081106001600160401b0382111761059557604052565b6001600160401b03811161059557601f01601f191660200190565b92919261153782611510565b9161154560405193846114ef565b829481845281830111610b25578281602093846000960137010152565b906040600319830112610b255760043591602435906001600160401b038211610b255780602383011215610b25578160246115a29360040135910161152b565b90565b80548210156108105760005260206000200190600090565b90600182811c921680156115ed575b60208310146115d757565b634e487b7160e01b600052602260045260246000fd5b91607f16916115cc565b906040519182600082549261160b846115bd565b90818452600194858116908160001461167a5750600114611637575b5050611635925003836114ef565b565b9093915060005260209081600020936000915b81831061166257505061163593508201013880611627565b8554888401850152948501948794509183019161164a565b91505061163594506020925060ff191682840152151560051b8201013880611627565b919082519283825260005b8481106116c9575050826000602080949584010152601f8019910116010190565b6020818301810151848301820152016116a8565b9080601f83011215610b25578160206115a29335910161152b565b6001600160401b0381116105955760051b60200190565b9080601f83011215610b2557813590611727826116f8565b9261173560405194856114ef565b828452602092838086019160051b83010192808411610b2557848301915b8483106117635750505050505090565b82356001600160401b038111610b25578691611784848480948901016116dd565b815201920191611753565b908060209392818452848401376000828201840152601f01601f1916010190565b9035601e1982360301811215610b255701602081359101916001600160401b038211610b25578136038313610b2557565b9081526001600160a01b03909116602082015260806040820181905290939261180d929185019161178f565b9160608184039101526118a961188e61187361185861183d61182f86806117b0565b610120808a5289019161178f565b61184a60208701876117b0565b9088830360208a015261178f565b61186560408601866117b0565b90878303604089015261178f565b61188060608501856117b0565b90868303606088015261178f565b61189b60808401846117b0565b90858303608087015261178f565b9160a08201356bffffffffffffffffffffffff60a01b8116809103610b255760a082015260c082013563ffffffff8116809103610b25576115a2936119089160c08401526118fa60e08501856117b0565b9084830360e086015261178f565b9161191961010091828101906117b0565b92909181850391015261178f565b6000198114610e655760010190565b80518210156108105760209160051b010190565b91908203918211610e6557565b9060005b8151811015611a755761196e8183611936565b5151805160208092012060018086019060405190816000845494611991866115bd565b9081845288840196898682169182600014611a56575050600114611a19575b50506119be925003826114ef565b519020146119d557506119d090611927565b61195b565b600493840154939290916119e891611936565b51015191828102928184041490151715611a0457506064900490565b601190634e487b7160e01b6000525260246000fd5b9150915060005285600020916000925b828410611a435750505081856119be9282010138806119b0565b8054858501890152928701928101611a29565b92509350506119be945060ff19168652151560051b82010138806119b0565b505050600090565b60405190611a8a826114d4565b60006040838281528260208201520152565b60405190611aa9826114b9565b8160a06000918281528260208201528260408201528260608201528260808201520152565b908151811015610810570160200190565b60ff1660ff8114610e655760010190565b8015610e65576000190190565b516005811015611b0a5790565b634e487b7160e01b600052602160045260246000fd5b611b28611a7d565b50611b31611a7d565b506040805192611b40846114d4565b600091828552602090818601908482528087016000199182825280516102a081018181106001600160401b038211176121b85782526014815285885b61028081106121a257505097845191611b93611a9c565b505b8a518251811015612194576001600160f81b031990611bb49084611ace565b5116607b60f81b8114808015612187575b6120db5750607d60f81b81148080156120ce575b611f505750601160f91b8114611f4357600160fd1b8181148015611f36575b8015611f29575b8015611f1c575b611f1557601d60f91b8214611eec57600b60fa1b8214611db157600360fc1b82101580611da3575b8015611d96575b8015611d89575b8015611d7c575b8015611d6f575b611c8b578110159081611c7c575b50611c6f575b611c688b51611927565b8b52611b95565b5060019950505050505050565b603f60f91b1015905038611c58565b5050918351858103611cf4575b50611ca4828b8d61247d565b80611ce95750611cb390611927565b918351858103611cc4575b50611c5e565b611cd060a0918c611936565b510160ff611ce081835116611adf565b16905238611cbe565b9a5050505050505050565b611cfe908b611936565b5180519060059081831015611d5b576001809314918215611d2c575b505015611c98579a5050505050505050565b8151919250811015611d5b576003149081611d4a575b503880611d1a565b60ff915060a0015116151538611d42565b634e487b7160e01b8c52602160045260248cfd5b50603760f91b8214611c4a565b50601d60fa1b8214611c43565b50603360f91b8214611c3c565b50602d60f81b8214611c35565b50603960f81b821115611c2e565b50508351858114159081611eca575b5080611e95575b15611c5e579592979896939094918251828101908111610f60575b611df5611def828b611936565b51611afd565b60059081811015611e8157600214908115611e61575b50611e1f575b611e1a90611af0565b611de2565b87611e2a828b611936565b510151151580611e4b575b15611e11578994979193969295989a9952611c5e565b506080611e58828b611936565b51015115611e35565b9050611e70611def838c611936565b90811015611d5b5760011438611e0b565b634e487b7160e01b8d52602160045260248dfd5b50611ea4611def85518c611936565b6005811015611eb65760011415611dc7565b634e487b7160e01b8a52602160045260248afd5b611ed99150611def908c611936565b6005811015611eb6576002141538611dc0565b50508551858101908111611f01578452611c5e565b634e487b7160e01b8a52601160045260248afd5b5050611c5e565b50600560fa1b8214611c06565b50600960f91b8214611bff565b50601160f81b8214611bf8565b5091611ca4828b8d612261565b9050899691989594999a9792939a506000146120c6576001995b81518581019081116120b2575b611f81818a611936565b518a8101511515806120a6575b611fa15750611f9c90611af0565b611f77565b9b90919493989b9a95969992979a51600580821015611e8157821015611d5b5703612084578585528b51600190818101809111612092576080611ff5848f85946060611fed8484611936565b510152611936565b5101521561208457805b612043575b80156120105750611c5e565b61201a818c611936565b518281015115159081612036575b5015611cbe57845238611cbe565b6080915001511538612028565b61204d818c611936565b518281015115159081612077575b5061206f5761206990611af0565b80611fff565b808552612004565b608091500151153861205b565b5060019a5050505050505050565b634e487b7160e01b8c52601160045260248cfd5b50608081015115611f8e565b634e487b7160e01b88526011600452602488fd5b600299611f6a565b50605d60f81b8214611bd9565b936120e69150611927565b926120f18b8d6121cc565b9190156121785785518c888203612152575b50501561214b5760015b60058110156121375781528b51888201526001908201528551858101908111611f01578452611c5e565b634e487b7160e01b8b52602160045260248bfd5b600261210d565b60a09161215e91611936565b510160ff61216e81835116611adf565b169052388c612103565b5060039b505050505050505050565b50605b60f81b8214611bc5565b505093519698505050505050565b6121aa611a9c565b828285010152018690611b7c565b634e487b7160e01b89526041600452602489fd5b6020909291926121da611a9c565b50018051835180911015612242575061222f604051936121f9856114b9565b600080865280602087015280604087015280606087015280608087015260a0860152825190856122298383611936565b52611936565b5061223a8151611927565b905260019190565b919291600019810191508111610e655761225b91611936565b51600091565b92919083519161226f611a9c565b5061227a8551611927565b85525b84518151811015612472576122929082611ace565b516001600160f81b031990601160f91b90828116821461241d5760f81c605c14806123f2575b6122d05750505b6122c98551611927565b855261227d565b816122e76122de8951611927565b808a5285611ace565b5116149081156123d6575b81156123ba575b811561239e575b8115612382575b8115612366575b811561234a575b811561232e575b506000036122bf575050909152600190565b8651601d60fa1b92506123419084611ace565b5116143861231c565b9050603160f91b8161235d885185611ace565b51161490612315565b9050603760f91b81612379885185611ace565b5116149061230e565b9050603960f91b81612395885185611ace565b51161490612307565b9050603360f91b816123b1885185611ace565b51161490612300565b9050601760fa1b816123cd885185611ace565b511614906122f9565b9050602f60f81b816123e9885185611ace565b511614906122f2565b50865160018101809111612408578351116122b8565b60246000634e487b7160e01b81526011600452fd5b5050505061242d908493946121cc565b919015612469576001908181018091116124085760a0935190600384526020840152816040840152606083015260808201526000918291015290565b91905052600390565b505050909152600290565b929190600084519261248d611a9c565b505b855181518110156125dc576124a49082611ace565b516001600160f81b03198116600160fd1b81149081156125ce575b81156125c0575b81156125b2575b81156125a4575b8115612596575b8115612588575b506125225760f81c60208110908115612517575b5061250c576125058651611927565b865261248f565b505050909152600190565b607f915011386124f6565b5050506001939192935b156125815761253b90826121cc565b901561257a5760a090829360009351906004835260208301526001604083015260608201526001608082015201526125738151611af0565b9052600090565b5052600390565b5052600290565b605d60f81b149050386124e2565b607d60f81b811491506124db565b600b60fa1b811491506124d4565b600d60f81b811491506124cd565b600560f91b811491506124c6565b600960f81b811491506124bf565b50509391929361252c565b92916125f3828261194a565b916125fd83611510565b9261260b60405194856114ef565b80845261261a601f1991611510565b01366020850137805b82811061263257509193505050565b612669906001600160f81b03196126498289611ace565b5116612663612658858461194a565b9160001a9187611ace565b53611927565b61262356fea2646970667358221220a22d11f840dc853d1ac293a9c63d9e2343122cb4c565c0fa021e9f9e54e585de64736f6c63430008110033",
  "linkReferences": {},
  "deployedLinkReferences": {}
}