{
  "_format": "hh-sol-artifact-1",
  "contractName": "Funding",
  "sourceName": "contracts/Funding.sol",
  "abi": [
    {
      "inputs": [],
      "stateMutability": "nonpayable",
      "type": "constructor"
    },
    {
      "anonymous": false,
      "inputs": [
        {
          "indexed": true,
          "internalType": "address",
          "name": "contributor",
          "type": "address"
        }
      ],
      "name": "ContributionReceived",
      "type": "event"
    },
    {
      "anonymous": false,
      "inputs": [
        {
          "indexed": true,
          "internalType": "address",
          "name": "contributor",
          "type": "address"
        },
        {
          "indexed": true,
          "internalType": "uint256",
          "name": "roundId",
          "type": "uint256"
        }
      ],
      "name": "ContributionReceivedInSecret",
      "type": "event"
    },
    {
      "anonymous": false,
      "inputs": [
        {
          "indexed": true,
          "internalType": "uint256",
          "name": "roundId",
          "type": "uint256"
        }
      ],
      "name": "RoundClosed",
      "type": "event"
    },
    {
      "anonymous": false,
      "inputs": [
        {
          "indexed": true,
          "internalType": "uint256",
          "name": "roundId",
          "type": "uint256"
        }
      ],
      "name": "RoundClosedInSecret",
      "type": "event"
    },
    {
      "anonymous": false,
      "inputs": [
        {
          "indexed": true,
          "internalType": "uint256",
          "name": "roundId",
          "type": "uint256"
        },
        {
          "indexed": false,
          "internalType": "string",
          "name": "name",
          "type": "string"
        },
        {
          "indexed": false,
          "internalType": "uint256[]",
          "name": "projectIds",
          "type": "uint256[]"
        }
      ],
      "name": "RoundCreated",
      "type": "event"
    },
    {
      "anonymous": false,
      "inputs": [
        {
          "indexed": true,
          "internalType": "uint256",
          "name": "roundId",
          "type": "uint256"
        },
        {
          "indexed": false,
          "internalType": "string",
          "name": "name",
          "type": "string"
        },
        {
          "indexed": false,
          "internalType": "uint256[]",
          "name": "projectIds",
          "type": "uint256[]"
        }
      ],
      "name": "RoundCreatedInSecret",
      "type": "event"
    },
    {
      "inputs": [
        {
          "internalType": "uint256",
          "name": "roundId",
          "type": "uint256"
        },
        {
          "internalType": "bool",
          "name": "sendToSecret",
          "type": "bool"
        },
        {
          "internalType": "bytes32",
          "name": "payloadHash",
          "type": "bytes32"
        },
        {
          "internalType": "string",
          "name": "routingInfo",
          "type": "string"
        },
        {
          "components": [
            {
              "internalType": "bytes",
              "name": "user_key",
              "type": "bytes"
            },
            {
              "internalType": "bytes",
              "name": "user_pubkey",
              "type": "bytes"
            },
            {
              "internalType": "string",
              "name": "routing_code_hash",
              "type": "string"
            },
            {
              "internalType": "string",
              "name": "task_destination_network",
              "type": "string"
            },
            {
              "internalType": "string",
              "name": "handle",
              "type": "string"
            },
            {
              "internalType": "bytes12",
              "name": "nonce",
              "type": "bytes12"
            },
            {
              "internalType": "uint32",
              "name": "callback_gas_limit",
              "type": "uint32"
            },
            {
              "internalType": "bytes",
              "name": "payload",
              "type": "bytes"
            },
            {
              "internalType": "bytes",
              "name": "payload_signature",
              "type": "bytes"
            }
          ],
          "internalType": "struct IGateway.ExecutionInfo",
          "name": "info",
          "type": "tuple"
        }
      ],
      "name": "closeFundingRound",
      "outputs": [],
      "stateMutability": "payable",
      "type": "function"
    },
    {
      "inputs": [
        {
          "internalType": "uint256",
          "name": "roundId",
          "type": "uint256"
        }
      ],
      "name": "closedFundingRound",
      "outputs": [],
      "stateMutability": "nonpayable",
      "type": "function"
    },
    {
      "inputs": [
        {
          "internalType": "address",
          "name": "userAddress",
          "type": "address"
        },
        {
          "internalType": "bytes32",
          "name": "payloadHash",
          "type": "bytes32"
        },
        {
          "internalType": "string",
          "name": "routingInfo",
          "type": "string"
        },
        {
          "components": [
            {
              "internalType": "bytes",
              "name": "user_key",
              "type": "bytes"
            },
            {
              "internalType": "bytes",
              "name": "user_pubkey",
              "type": "bytes"
            },
            {
              "internalType": "string",
              "name": "routing_code_hash",
              "type": "string"
            },
            {
              "internalType": "string",
              "name": "task_destination_network",
              "type": "string"
            },
            {
              "internalType": "string",
              "name": "handle",
              "type": "string"
            },
            {
              "internalType": "bytes12",
              "name": "nonce",
              "type": "bytes12"
            },
            {
              "internalType": "uint32",
              "name": "callback_gas_limit",
              "type": "uint32"
            },
            {
              "internalType": "bytes",
              "name": "payload",
              "type": "bytes"
            },
            {
              "internalType": "bytes",
              "name": "payload_signature",
              "type": "bytes"
            }
          ],
          "internalType": "struct IGateway.ExecutionInfo",
          "name": "info",
          "type": "tuple"
        }
      ],
      "name": "contribute",
      "outputs": [],
      "stateMutability": "payable",
      "type": "function"
    },
    {
      "inputs": [
        {
          "internalType": "uint256",
          "name": "roundId",
          "type": "uint256"
        }
      ],
      "name": "contribute",
      "outputs": [],
      "stateMutability": "nonpayable",
      "type": "function"
    },
    {
      "inputs": [
        {
          "internalType": "uint256",
          "name": "id",
          "type": "uint256"
        },
        {
          "internalType": "string",
          "name": "name",
          "type": "string"
        },
        {
          "internalType": "string",
          "name": "description",
          "type": "string"
        },
        {
          "internalType": "string",
          "name": "curveType",
          "type": "string"
        },
        {
          "internalType": "uint256[]",
          "name": "projectIds",
          "type": "uint256[]"
        },
        {
          "internalType": "string[]",
          "name": "projectNames",
          "type": "string[]"
        },
        {
          "internalType": "string[]",
          "name": "projectDescriptions",
          "type": "string[]"
        },
        {
          "internalType": "address payable[]",
          "name": "projectAddresses",
          "type": "address[]"
        },
        {
          "internalType": "address",
          "name": "userAddress",
          "type": "address"
        },
        {
          "internalType": "bool",
          "name": "sendToSecret",
          "type": "bool"
        },
        {
          "internalType": "bytes32",
          "name": "payloadHash",
          "type": "bytes32"
        },
        {
          "internalType": "string",
          "name": "routingInfo",
          "type": "string"
        },
        {
          "components": [
            {
              "internalType": "bytes",
              "name": "user_key",
              "type": "bytes"
            },
            {
              "internalType": "bytes",
              "name": "user_pubkey",
              "type": "bytes"
            },
            {
              "internalType": "string",
              "name": "routing_code_hash",
              "type": "string"
            },
            {
              "internalType": "string",
              "name": "task_destination_network",
              "type": "string"
            },
            {
              "internalType": "string",
              "name": "handle",
              "type": "string"
            },
            {
              "internalType": "bytes12",
              "name": "nonce",
              "type": "bytes12"
            },
            {
              "internalType": "uint32",
              "name": "callback_gas_limit",
              "type": "uint32"
            },
            {
              "internalType": "bytes",
              "name": "payload",
              "type": "bytes"
            },
            {
              "internalType": "bytes",
              "name": "payload_signature",
              "type": "bytes"
            }
          ],
          "internalType": "struct IGateway.ExecutionInfo",
          "name": "info",
          "type": "tuple"
        }
      ],
      "name": "createFundingRound",
      "outputs": [],
      "stateMutability": "payable",
      "type": "function"
    },
    {
      "inputs": [
        {
          "internalType": "uint256",
          "name": "id",
          "type": "uint256"
        },
        {
          "internalType": "string",
          "name": "name",
          "type": "string"
        },
        {
          "internalType": "uint256[]",
          "name": "projectIds",
          "type": "uint256[]"
        }
      ],
      "name": "createdFundingRound",
      "outputs": [],
      "stateMutability": "nonpayable",
      "type": "function"
    },
    {
      "inputs": [
        {
          "internalType": "string",
          "name": "json",
          "type": "string"
        },
        {
          "internalType": "uint256",
          "name": "roundId",
          "type": "uint256"
        }
      ],
      "name": "distributeFunds",
      "outputs": [],
      "stateMutability": "nonpayable",
      "type": "function"
    },
    {
      "inputs": [
        {
          "internalType": "uint256",
          "name": "",
          "type": "uint256"
        }
      ],
      "name": "fundingRounds",
      "outputs": [
        {
          "internalType": "uint256",
          "name": "id",
          "type": "uint256"
        },
        {
          "internalType": "string",
          "name": "name",
          "type": "string"
        },
        {
          "internalType": "string",
          "name": "description",
          "type": "string"
        },
        {
          "internalType": "string",
          "name": "curveType",
          "type": "string"
        },
        {
          "internalType": "uint256",
          "name": "totalContributions",
          "type": "uint256"
        },
        {
          "internalType": "bool",
          "name": "isOpen",
          "type": "bool"
        }
      ],
      "stateMutability": "view",
      "type": "function"
    },
    {
      "inputs": [],
      "name": "gatewayAddressSepolia",
      "outputs": [
        {
          "internalType": "address",
          "name": "",
          "type": "address"
        }
      ],
      "stateMutability": "view",
      "type": "function"
    },
    {
      "inputs": [],
      "name": "gatewayContract",
      "outputs": [
        {
          "internalType": "contract IGateway",
          "name": "",
          "type": "address"
        }
      ],
      "stateMutability": "view",
      "type": "function"
    },
    {
      "inputs": [
        {
          "internalType": "uint256",
          "name": "",
          "type": "uint256"
        }
      ],
      "name": "roundIds",
      "outputs": [
        {
          "internalType": "uint256",
          "name": "",
          "type": "uint256"
        }
      ],
      "stateMutability": "view",
      "type": "function"
    }
  ],
  "bytecode": "0x6080806040523461004557733879e146140b627a5c858a08e507b171d9e4313960018060a01b03198181600354161760035560025416176002556126b9908161004b8239f35b600080fdfe608080604052600436101561001357600080fd5b600090813560e01c908163763a3df614610fe35750806390a4cb9b14610f91578063979c178314610f55578063c06d5ba914610dc2578063c1cbbca714610d85578063c428a27814610ce2578063c9640c0914610cb9578063e09a109414610192578063eb0cde1d14610169578063f7a22314146100e05763fa2f53c61461009a57600080fd5b346100dd5760403660031901126100dd576004356001600160401b0381116100d9576100cd6100d69136906004016112b1565b6024359061161b565b80f35b5080fd5b80fd5b50346100dd5760603660031901126100dd576001600160401b03602435818111610165576101129036906004016112b1565b906044359081116101655761015f61014f7fd2d3da9dad19c719463d609b0153dcd2470b4c48d6504ac8e94e56a782e539d592369060040161130f565b6040519182916004359583611588565b0390a280f35b8280fd5b50346100dd57806003193601126100dd576002546040516001600160a01b039091168152602090f35b506101a03660031901126100dd576024356001600160401b0381116100d9576101bf9036906004016112b1565b6044356001600160401b038111610165576101de9036906004016112b1565b906064356001600160401b038111610cb5576101fe9036906004016112b1565b926084356001600160401b0381116100d95761021e90369060040161130f565b60a4356001600160401b0381116101655761023d90369060040161136d565b9460c4356001600160401b038111610cb55761025d90369060040161136d565b9060e435906001600160401b038211610bdf5736602383011215610bdf578160040135610289816112f8565b92610297604051948561118f565b8184526024602085019260051b82010190368211610bee57602401915b818310610c9157505050610104356001600160a01b0381169003610c8c576101243515156101243503610c8c57610164356001600160401b038111610c88576103019036906004016110c7565b6001600160401b036101843511610c84576101206101843536036003190112610c845785518a518091149081610c79575b5080610c6e575b15610c29576004358752866020526040872054610bf25761012435610b70575b50506004358552846020526040852096600435885586516001600160401b038111610aa15761038b60018a015461110c565b601f8111610b2b575b50806020601f8211600114610ac0578891610ab5575b508160011b916000199060031b1c19161760018901555b8051906001600160401b038211610aa15781906103e160028b015461110c565b601f8111610a50575b50602090601f83116001146109e15788926109d6575b50508160011b916000199060031b1c19161760028801555b8051906001600160401b0382116109c257819061043860038a015461110c565b601f8111610971575b50602090601f83116001146109025787926108f7575b50508160011b916000199060031b1c19161760038701555b60078601805460ff19166001179055835b835181101561085e5761049381856115fa565b518552600487016020526040852054610825576104b081856115fa565b516104bb828a6115fa565b51906104c783866115fa565b516001600160a01b036104da85876115fa565b511690604051926104ea84611159565b835260208301938452604083015260608201528660808201528660a082015261051383876115fa565b51875260048901602052604087209181518355518051906001600160401b038211610746578190610547600186015461110c565b601f81116107d4575b50602090601f8311600114610765578a9261075a575b50508160011b916000199060031b1c19161760018301555b60408101518051906001600160401b038211610746576105a1600285015461110c565b601f8111610701575b50602090601f831160011461068f5791806005949260a0948c92610684575b50508160011b916000199060031b1c19161760028501555b60038401600180841b036060830151166bffffffffffffffffffffffff841b82541617905560808101516004850155015191015561061f81856115fa565b5190600588015491600160401b83101561066e5761064c836001610669950160058c015560058b016110f4565b819291549060031b600019811b9283911b169119161790556115d5565b610480565b634e487b7160e01b600052604160045260246000fd5b0151905038806105c9565b90600285018a5260208a20918a5b601f19851681106106e95750926005949260019260a09583601f198116106106d0575b505050811b0160028501556105e1565b015160001960f88460031b161c191690553880806106c0565b9192602060018192868501518155019401920161069d565b600285018a5260208a20601f840160051c81016020851061073f575b601f830160051c820181106107335750506105aa565b6000815560010161071d565b508061071d565b634e487b7160e01b89526041600452602489fd5b015190503880610566565b9250600185018a5260208a20908a935b601f19841685106107b9576001945083601f198116106107a0575b505050811b01600183015561057e565b015160001960f88460031b161c19169055388080610790565b81810151835560209485019460019093019290910190610775565b909150600185018a5260208a20601f840160051c81016020851061081e575b90849392915b601f830160051c8201811061080f575050610550565b600081558594506001016107f9565b50806107f3565b60405162461bcd60e51b815260206004820152601160248201527050726f6a6563742049442065786973747360781b6044820152606490fd5b848685600154600160401b81101561066e5760018101806001558110156108e1577f2fceaf42a6664f3294222799a359650844542179732d12b26b6926bd338479a59161015f916001600052600435907fb10e2d527612073b26eecdfd717e6a320cf44b4afac2b0732d9fcbe2b7fa0cf601556040519182916004359583611588565b634e487b7160e01b600052603260045260246000fd5b015190503880610457565b9250600389018752602087209087935b601f1984168510610956576001945083601f1981161061093d575b505050811b01600387015561046f565b015160001960f88460031b161c1916905538808061092d565b81810151835560209485019460019093019290910190610912565b90915060038901875260208720601f840160051c8101602085106109bb575b90849392915b601f830160051c820181106109ac575050610441565b60008155859450600101610996565b5080610990565b634e487b7160e01b86526041600452602486fd5b015190503880610400565b925060028a018852602088209088935b601f1984168510610a35576001945083601f19811610610a1c575b505050811b016002880155610418565b015160001960f88460031b161c19169055388080610a0c565b818101518355602094850194600190930192909101906109f1565b90915060028a01885260208820601f840160051c810160208510610a9a575b90849392915b601f830160051c82018110610a8b5750506103ea565b60008155859450600101610a75565b5080610a6f565b634e487b7160e01b87526041600452602487fd5b9050880151386103aa565b915060018a0188526020882088925b8a601f1984168510610b1457506001935082601f19811610610afb575b5050811b0160018901556103c1565b8a015160001960f88460031b161c191690553880610aec565b810151825560209384019360019092019101610acf565b60018a01885260208820601f830160051c810160208410610b69575b601f830160051c82018110610b5d575050610394565b60008155600101610b47565b5080610b47565b6002546001600160a01b031690813b15610bee57918791610bb7936040518095819482936339624a6b60e21b8452610184356004019161010435610144356004870161143f565b039134905af18015610be3579086911561035957610bd490611146565b610bdf578438610359565b8480fd5b6040513d88823e3d90fd5b8780fd5b60405162461bcd60e51b815260206004820152600f60248201526e526f756e642049442065786973747360881b6044820152606490fd5b60405162461bcd60e51b815260206004820152601760248201527f4d69736d61746368656420696e707574206172726179730000000000000000006044820152606490fd5b508451845114610339565b905085511438610332565b8680fd5b8580fd5b600080fd5b82356001600160a01b0381168103610cb1578152602092830192016102b4565b8880fd5b8380fd5b50346100dd57806003193601126100dd576003546040516001600160a01b039091168152602090f35b50346100dd5760203660031901126100dd57604090600435815280602052208054610d0f600183016111b0565b91610d1c600282016111b0565b610d74610d2b600384016111b0565b610d6660ff600760068701549601541693610d58604051988998895260c060208a015260c0890190611256565b908782036040890152611256565b908582036060870152611256565b916080840152151560a08301520390f35b50346100dd5760203660031901126100dd57600435337f0f341c4538c3af5f6f9502b5cb2e1ada31e4d65ec8f829cbe8ee009b6568b36b8380a380f35b5060031960a0368201126100d95760043590602435908115158203610c8c576001600160401b0391606435838111610c8857610e029036906004016110c7565b929060843591858311610bee57610120908336030112610c84578587528660205260ff60076040892001541615610f215785875260208781526040808920600701805460ff1916905551959086019081118682101761066e576040528685528692869015610f1357506002546001600160a01b0316803b15610cb557610ea9948493604051968794859384936339624a6b60e21b855260040191336044356004870161143f565b039134905af1918215610f06578492610eef575b5050610ec89161161b565b7fe9f7d7fd0b133404f0ccff737d6f3594748e04bc5507adfaed35835ef98937118280a280f35b610efa919250611146565b61016557818338610ebd565b50604051903d90823e3d90fd5b9350505050610ec89161161b565b60405162461bcd60e51b815260206004820152600c60248201526b149bdd5b990818db1bdcd95960a21b6044820152606490fd5b50346100dd5760203660031901126100dd576004357fdcad6660d3e34a68718474b3d2dfb7da8a012d967dfe595b0123a6112667f0688280a280f35b50346100dd5760203660031901126100dd576004356001548110156100d95760209060016000527fb10e2d527612073b26eecdfd717e6a320cf44b4afac2b0732d9fcbe2b7fa0cf60154604051908152f35b9050816003196080368201126100d957600435906001600160a01b038083168303610cb5576001600160401b0391604435838111610c88576110299036906004016110c7565b929091606435948511610c8457610120908536030112610c88576002541692833b15610c8857869485938493611073936339624a6b60e21b8652600401926024356004870161143f565b039134905af180156110bc576110ad575b50337f9ca0de0709c575c61710159cf212e68fa7f9bd8d600cb008ae8c028b7e54b7058280a280f35b6110b690611146565b38611084565b6040513d84823e3d90fd5b9181601f84011215610c8c578235916001600160401b038311610c8c5760208381860195010111610c8c57565b80548210156108e15760005260206000200190600090565b90600182811c9216801561113c575b602083101461112657565b634e487b7160e01b600052602260045260246000fd5b91607f169161111b565b6001600160401b03811161066e57604052565b60c081019081106001600160401b0382111761066e57604052565b606081019081106001600160401b0382111761066e57604052565b90601f801991011681019081106001600160401b0382111761066e57604052565b90604051918260008254926111c48461110c565b90818452600194858116908160001461123357506001146111f0575b50506111ee9250038361118f565b565b9093915060005260209081600020936000915b81831061121b5750506111ee935082010138806111e0565b85548884018501529485019487945091830191611203565b9150506111ee94506020925060ff191682840152151560051b82010138806111e0565b919082519283825260005b848110611282575050826000602080949584010152601f8019910116010190565b602081830181015184830182015201611261565b6001600160401b03811161066e57601f01601f191660200190565b81601f82011215610c8c578035906112c882611296565b926112d6604051948561118f565b82845260208383010111610c8c57816000926020809301838601378301015290565b6001600160401b03811161066e5760051b60200190565b81601f82011215610c8c57803591611326836112f8565b92611334604051948561118f565b808452602092838086019260051b820101928311610c8c578301905b82821061135e575050505090565b81358152908301908301611350565b9080601f83011215610c8c57813590611385826112f8565b92611393604051948561118f565b828452602092838086019160051b83010192808411610c8c57848301915b8483106113c15750505050505090565b82356001600160401b038111610c8c5786916113e2848480948901016112b1565b8152019201916113b1565b908060209392818452848401376000828201840152601f01601f1916010190565b9035601e1982360301811215610c8c5701602081359101916001600160401b038211610c8c578136038313610c8c57565b9081526001600160a01b03909116602082015260806040820181905290939261146b92918501916113ed565b9160608184039101526115076114ec6114d16114b661149b61148d868061140e565b610120808a528901916113ed565b6114a8602087018761140e565b9088830360208a01526113ed565b6114c3604086018661140e565b9087830360408901526113ed565b6114de606085018561140e565b9086830360608801526113ed565b6114f9608084018461140e565b9085830360808701526113ed565b9160a08201356bffffffffffffffffffffffff60a01b8116809103610c8c5760a082015260c082013563ffffffff8116809103610c8c57611585936115669160c084015261155860e085018561140e565b9084830360e08601526113ed565b91611577610100918281019061140e565b9290918185039101526113ed565b90565b9061159b90604083526040830190611256565b81810360209283015282518082529082019282019160005b8281106115c1575050505090565b8351855293810193928101926001016115b3565b60001981146115e45760010190565b634e487b7160e01b600052601160045260246000fd5b80518210156108e15760209160051b010190565b919082039182116115e457565b909161162682611b35565b8095925093909315611a415781600094939294526000602052600660406000200154926000925b856000526000602052600560406000200154841015611a3857600460406000200161167f8560056040600020016110f4565b90549060031b1c600052602052604060002095600060019081890193845493838516935b6000198d018d81116115e457811015611a20576116de60206116c5838b6115fa565b51015160606116d4848c6115fa565b510151908b6125fc565b602081519101206040516000816116f48a61110c565b80825291898015611a02576001146119c1575b6117139250038261118f565b60208151910120146117415760038101809111156116a357634e487b7160e01b600052601160045260246000fd5b935099979694509794925050600181018091116115e457806060611777602061176d61178195876115fa565b51015192856115fa565b51015190846125fc565b976000906000926000996000956000945b8d518610156119ae578c8e87158061198d575b611984575b60306117b68983611ae3565b5160f81c10158061196c575b1561193f5750611835575b600a9080828102058214811517156115e4576117ea8f8890611ae3565b5160f81c80602f198101136001166115e457602f198101602f19828585020101126000848402129080158216911516176115e457910201602f19019461182f906115d5565b94611792565b939c9199969486939c91999b989615600014611923575050505b806118f1575b50906118c8575b60048301548181029181830414901517156115e45760008080606481940480965b600301546001600160a01b03168282156118bf575bf1156118b3576118ab916118a59161160e565b946115d5565b92949061164d565b6040513d6000823e3d90fd5b506108fc611892565b80600003908082056000191490151761185c57634e487b7160e01b600052601160045260246000fd5b604d81116115e457600a0a818102919060008212600160ff1b8214166115e45781830514901517156115e45738611855565b949699919c9395979a98909b9261193990611b05565b956117cd565b602e91508761195091989398611ae3565b5160f81c14611963575b61182f906115d5565b60019c5061195a565b5060396119798983611ae3565b5160f81c11156117c2565b600199506117aa565b50602d60f81b6001600160f81b03196119a68a84611ae3565b5116146117a5565b939c5097999694919a509794925061184f565b5050896000526020600020906000915b8183106119e957505081602061171392820101611707565b80546020848601810191909152909201916001016119d1565b505060206117139260ff198c1682840152151560051b820101611707565b5097989350949881945060008093508092819261187d565b95505050505050565b60405162461bcd60e51b8152602060048201526024808201527f4a534f4e2070617273696e67206661696c6564206f72206e6f206461746120666044820152631bdd5b9960e21b6064820152608490fd5b60405190611a9f82611174565b60006040838281528260208201520152565b60405190611abe82611159565b8160a06000918281528260208201528260408201528260608201528260808201520152565b9081518110156108e1570160200190565b60ff1660ff81146115e45760010190565b80156115e4576000190190565b516005811015611b1f5790565b634e487b7160e01b600052602160045260246000fd5b611b3d611a92565b50611b46611a92565b506040805192611b5584611174565b600091828552602090818601908482528087016000199182825280516102a081018181106001600160401b038211176107465782526014815285885b61028081106121cb57505097845191611ba8611ab1565b505b8a5182518110156121bd576001600160f81b031990611bc99084611ae3565b5116607b60f81b81148080156121b0575b6121045750607d60f81b81148080156120f7575b611f795750601160f91b8114611f6c57600160fd1b8181148015611f5f575b8015611f52575b8015611f45575b611f3e57601d60f91b8214611f1557600b60fa1b8214611dc657600360fc1b82101580611db8575b8015611dab575b8015611d9e575b8015611d91575b8015611d84575b611ca0578110159081611c91575b50611c84575b611c7d8b516115d5565b8b52611baa565b5060019950505050505050565b603f60f91b1015905038611c6d565b5050918351858103611d09575b50611cb9828b8d612492565b80611cfe5750611cc8906115d5565b918351858103611cd9575b50611c73565b611ce560a0918c6115fa565b510160ff611cf581835116611af4565b16905238611cd3565b9a5050505050505050565b611d13908b6115fa565b5180519060059081831015611d70576001809314918215611d41575b505015611cad579a5050505050505050565b8151919250811015611d70576003149081611d5f575b503880611d2f565b60ff915060a0015116151538611d57565b634e487b7160e01b8c52602160045260248cfd5b50603760f91b8214611c5f565b50601d60fa1b8214611c58565b50603360f91b8214611c51565b50602d60f81b8214611c4a565b50603960f81b821115611c43565b50508351858114159081611ef3575b5080611ebe575b15611c73579592979896939094918251828101908111611eaa575b611e0a611e04828b6115fa565b51611b12565b60059081811015611e9657600214908115611e76575b50611e34575b611e2f90611b05565b611df7565b87611e3f828b6115fa565b510151151580611e60575b15611e26578994979193969295989a9952611c73565b506080611e6d828b6115fa565b51015115611e4a565b9050611e85611e04838c6115fa565b90811015611d705760011438611e20565b634e487b7160e01b8d52602160045260248dfd5b634e487b7160e01b8b52601160045260248bfd5b50611ecd611e0485518c6115fa565b6005811015611edf5760011415611ddc565b634e487b7160e01b8a52602160045260248afd5b611f029150611e04908c6115fa565b6005811015611edf576002141538611dd5565b50508551858101908111611f2a578452611c73565b634e487b7160e01b8a52601160045260248afd5b5050611c73565b50600560fa1b8214611c1b565b50600960f91b8214611c14565b50601160f81b8214611c0d565b5091611cb9828b8d612276565b9050899691989594999a9792939a506000146120ef576001995b81518581019081116120db575b611faa818a6115fa565b518a8101511515806120cf575b611fca5750611fc590611b05565b611fa0565b9b90919493989b9a95969992979a51600580821015611e9657821015611d7057036120ad578585528b516001908181018091116120bb57608061201e848f8594606061201684846115fa565b5101526115fa565b510152156120ad57805b61206c575b80156120395750611c73565b612043818c6115fa565b51828101511515908161205f575b5015611cd357845238611cd3565b6080915001511538612051565b612076818c6115fa565b5182810151151590816120a0575b506120985761209290611b05565b80612028565b80855261202d565b6080915001511538612084565b5060019a5050505050505050565b634e487b7160e01b8c52601160045260248cfd5b50608081015115611fb7565b634e487b7160e01b88526011600452602488fd5b600299611f93565b50605d60f81b8214611bee565b9361210f91506115d5565b9261211a8b8d6121e1565b9190156121a15785518c88820361217b575b5050156121745760015b60058110156121605781528b51888201526001908201528551858101908111611f2a578452611c73565b634e487b7160e01b8b52602160045260248bfd5b6002612136565b60a091612187916115fa565b510160ff61219781835116611af4565b169052388c61212c565b5060039b505050505050505050565b50605b60f81b8214611bda565b505093519698505050505050565b6121d3611ab1565b828285010152018690611b91565b6020909291926121ef611ab1565b5001805183518091101561225757506122446040519361220e85611159565b600080865280602087015280604087015280606087015280608087015260a08601528251908561223e83836115fa565b526115fa565b5061224f81516115d5565b905260019190565b9192916000198101915081116115e457612270916115fa565b51600091565b929190835191612284611ab1565b5061228f85516115d5565b85525b84518151811015612487576122a79082611ae3565b516001600160f81b031990601160f91b9082811682146124325760f81c605c1480612407575b6122e55750505b6122de85516115d5565b8552612292565b816122fc6122f389516115d5565b808a5285611ae3565b5116149081156123eb575b81156123cf575b81156123b3575b8115612397575b811561237b575b811561235f575b8115612343575b506000036122d4575050909152600190565b8651601d60fa1b92506123569084611ae3565b51161438612331565b9050603160f91b81612372885185611ae3565b5116149061232a565b9050603760f91b8161238e885185611ae3565b51161490612323565b9050603960f91b816123aa885185611ae3565b5116149061231c565b9050603360f91b816123c6885185611ae3565b51161490612315565b9050601760fa1b816123e2885185611ae3565b5116149061230e565b9050602f60f81b816123fe885185611ae3565b51161490612307565b5086516001810180911161241d578351116122cd565b60246000634e487b7160e01b81526011600452fd5b50505050612442908493946121e1565b91901561247e5760019081810180911161241d5760a0935190600384526020840152816040840152606083015260808201526000918291015290565b91905052600390565b505050909152600290565b92919060008451926124a2611ab1565b505b855181518110156125f1576124b99082611ae3565b516001600160f81b03198116600160fd1b81149081156125e3575b81156125d5575b81156125c7575b81156125b9575b81156125ab575b811561259d575b506125375760f81c6020811090811561252c575b506125215761251a86516115d5565b86526124a4565b505050909152600190565b607f9150113861250b565b5050506001939192935b156125965761255090826121e1565b901561258f5760a090829360009351906004835260208301526001604083015260608201526001608082015201526125888151611b05565b9052600090565b5052600390565b5052600290565b605d60f81b149050386124f7565b607d60f81b811491506124f0565b600b60fa1b811491506124e9565b600d60f81b811491506124e2565b600560f91b811491506124db565b600960f81b811491506124d4565b505093919293612541565b9291612608828261160e565b9161261283611296565b92612620604051948561118f565b80845261262f601f1991611296565b01366020850137805b82811061264757509193505050565b61267e906001600160f81b031961265e8289611ae3565b511661267861266d858461160e565b9160001a9187611ae3565b536115d5565b61263856fea26469706673582212207d8ff932f3ed857ebf398e8712f88647ea0499ad8152f463e4b5a4adbb2a346364736f6c63430008110033",
  "linkReferences": {},
  "deployedLinkReferences": {}
}