{
  "address": "0x0C5f513C471Dd702Af44a7BF82602308b1D66Ac3",
  "abi": [
    {
      "inputs": [
        {
          "internalType": "address",
          "name": "gatewayAddress",
          "type": "address"
        }
      ],
      "stateMutability": "nonpayable",
      "type": "constructor"
    },
    {
      "anonymous": false,
      "inputs": [
        {
          "indexed": true,
          "internalType": "address",
          "name": "contributor",
          "type": "address"
        }
      ],
      "name": "ContributionReceived",
      "type": "event"
    },
    {
      "anonymous": false,
      "inputs": [
        {
          "indexed": true,
          "internalType": "uint256",
          "name": "roundId",
          "type": "uint256"
        }
      ],
      "name": "ContributionReceivedInSecret",
      "type": "event"
    },
    {
      "anonymous": false,
      "inputs": [
        {
          "indexed": true,
          "internalType": "uint256",
          "name": "roundId",
          "type": "uint256"
        }
      ],
      "name": "DistributedTokens",
      "type": "event"
    },
    {
      "anonymous": false,
      "inputs": [
        {
          "indexed": true,
          "internalType": "uint256",
          "name": "roundId",
          "type": "uint256"
        }
      ],
      "name": "DistributedTokensInSecret",
      "type": "event"
    },
    {
      "anonymous": false,
      "inputs": [
        {
          "indexed": true,
          "internalType": "uint256",
          "name": "roundId",
          "type": "uint256"
        }
      ],
      "name": "RoundClosed",
      "type": "event"
    },
    {
      "anonymous": false,
      "inputs": [
        {
          "indexed": true,
          "internalType": "uint256",
          "name": "roundId",
          "type": "uint256"
        }
      ],
      "name": "RoundClosedInSecret",
      "type": "event"
    },
    {
      "anonymous": false,
      "inputs": [
        {
          "indexed": true,
          "internalType": "uint256",
          "name": "roundId",
          "type": "uint256"
        },
        {
          "indexed": false,
          "internalType": "string",
          "name": "name",
          "type": "string"
        },
        {
          "indexed": false,
          "internalType": "uint256[]",
          "name": "projectIds",
          "type": "uint256[]"
        }
      ],
      "name": "RoundCreated",
      "type": "event"
    },
    {
      "anonymous": false,
      "inputs": [
        {
          "indexed": true,
          "internalType": "uint256",
          "name": "roundId",
          "type": "uint256"
        }
      ],
      "name": "RoundCreatedInSecret",
      "type": "event"
    },
    {
      "inputs": [
        {
          "internalType": "uint256",
          "name": "roundId",
          "type": "uint256"
        },
        {
          "internalType": "bool",
          "name": "sendToSecret",
          "type": "bool"
        },
        {
          "internalType": "address",
          "name": "userAddress",
          "type": "address"
        },
        {
          "internalType": "bytes32",
          "name": "payloadHash",
          "type": "bytes32"
        },
        {
          "internalType": "string",
          "name": "routingInfo",
          "type": "string"
        },
        {
          "components": [
            {
              "internalType": "bytes",
              "name": "user_key",
              "type": "bytes"
            },
            {
              "internalType": "bytes",
              "name": "user_pubkey",
              "type": "bytes"
            },
            {
              "internalType": "string",
              "name": "routing_code_hash",
              "type": "string"
            },
            {
              "internalType": "string",
              "name": "task_destination_network",
              "type": "string"
            },
            {
              "internalType": "string",
              "name": "handle",
              "type": "string"
            },
            {
              "internalType": "bytes12",
              "name": "nonce",
              "type": "bytes12"
            },
            {
              "internalType": "uint32",
              "name": "callback_gas_limit",
              "type": "uint32"
            },
            {
              "internalType": "bytes",
              "name": "payload",
              "type": "bytes"
            },
            {
              "internalType": "bytes",
              "name": "payload_signature",
              "type": "bytes"
            }
          ],
          "internalType": "struct IGateway.ExecutionInfo",
          "name": "info",
          "type": "tuple"
        }
      ],
      "name": "closeFundingRound",
      "outputs": [],
      "stateMutability": "payable",
      "type": "function"
    },
    {
      "inputs": [
        {
          "internalType": "uint256",
          "name": "roundId",
          "type": "uint256"
        },
        {
          "internalType": "bytes",
          "name": "json",
          "type": "bytes"
        }
      ],
      "name": "closedFundingRound",
      "outputs": [],
      "stateMutability": "nonpayable",
      "type": "function"
    },
    {
      "inputs": [
        {
          "internalType": "address",
          "name": "userAddress",
          "type": "address"
        },
        {
          "internalType": "bytes32",
          "name": "payloadHash",
          "type": "bytes32"
        },
        {
          "internalType": "string",
          "name": "routingInfo",
          "type": "string"
        },
        {
          "components": [
            {
              "internalType": "bytes",
              "name": "user_key",
              "type": "bytes"
            },
            {
              "internalType": "bytes",
              "name": "user_pubkey",
              "type": "bytes"
            },
            {
              "internalType": "string",
              "name": "routing_code_hash",
              "type": "string"
            },
            {
              "internalType": "string",
              "name": "task_destination_network",
              "type": "string"
            },
            {
              "internalType": "string",
              "name": "handle",
              "type": "string"
            },
            {
              "internalType": "bytes12",
              "name": "nonce",
              "type": "bytes12"
            },
            {
              "internalType": "uint32",
              "name": "callback_gas_limit",
              "type": "uint32"
            },
            {
              "internalType": "bytes",
              "name": "payload",
              "type": "bytes"
            },
            {
              "internalType": "bytes",
              "name": "payload_signature",
              "type": "bytes"
            }
          ],
          "internalType": "struct IGateway.ExecutionInfo",
          "name": "info",
          "type": "tuple"
        }
      ],
      "name": "contribute",
      "outputs": [],
      "stateMutability": "payable",
      "type": "function"
    },
    {
      "inputs": [
        {
          "internalType": "uint256",
          "name": "roundId",
          "type": "uint256"
        },
        {
          "internalType": "bytes",
          "name": "json",
          "type": "bytes"
        }
      ],
      "name": "contributed",
      "outputs": [],
      "stateMutability": "nonpayable",
      "type": "function"
    },
    {
      "inputs": [
        {
          "internalType": "uint256",
          "name": "id",
          "type": "uint256"
        },
        {
          "internalType": "string",
          "name": "name",
          "type": "string"
        },
        {
          "internalType": "string",
          "name": "description",
          "type": "string"
        },
        {
          "internalType": "string",
          "name": "curveType",
          "type": "string"
        },
        {
          "internalType": "uint256[]",
          "name": "projectIds",
          "type": "uint256[]"
        },
        {
          "internalType": "string[]",
          "name": "projectNames",
          "type": "string[]"
        },
        {
          "internalType": "string[]",
          "name": "projectDescriptions",
          "type": "string[]"
        },
        {
          "internalType": "address payable[]",
          "name": "projectAddresses",
          "type": "address[]"
        },
        {
          "internalType": "address",
          "name": "userAddress",
          "type": "address"
        },
        {
          "internalType": "bool",
          "name": "sendToSecret",
          "type": "bool"
        },
        {
          "internalType": "bytes32",
          "name": "payloadHash",
          "type": "bytes32"
        },
        {
          "internalType": "string",
          "name": "routingInfo",
          "type": "string"
        },
        {
          "components": [
            {
              "internalType": "bytes",
              "name": "user_key",
              "type": "bytes"
            },
            {
              "internalType": "bytes",
              "name": "user_pubkey",
              "type": "bytes"
            },
            {
              "internalType": "string",
              "name": "routing_code_hash",
              "type": "string"
            },
            {
              "internalType": "string",
              "name": "task_destination_network",
              "type": "string"
            },
            {
              "internalType": "string",
              "name": "handle",
              "type": "string"
            },
            {
              "internalType": "bytes12",
              "name": "nonce",
              "type": "bytes12"
            },
            {
              "internalType": "uint32",
              "name": "callback_gas_limit",
              "type": "uint32"
            },
            {
              "internalType": "bytes",
              "name": "payload",
              "type": "bytes"
            },
            {
              "internalType": "bytes",
              "name": "payload_signature",
              "type": "bytes"
            }
          ],
          "internalType": "struct IGateway.ExecutionInfo",
          "name": "info",
          "type": "tuple"
        }
      ],
      "name": "createFundingRound",
      "outputs": [],
      "stateMutability": "payable",
      "type": "function"
    },
    {
      "inputs": [
        {
          "internalType": "uint256",
          "name": "roundId",
          "type": "uint256"
        },
        {
          "internalType": "bytes",
          "name": "json",
          "type": "bytes"
        }
      ],
      "name": "createdFundingRound",
      "outputs": [],
      "stateMutability": "nonpayable",
      "type": "function"
    },
    {
      "inputs": [
        {
          "internalType": "uint256",
          "name": "roundId",
          "type": "uint256"
        },
        {
          "internalType": "address",
          "name": "userAddress",
          "type": "address"
        },
        {
          "internalType": "bytes32",
          "name": "payloadHash",
          "type": "bytes32"
        },
        {
          "internalType": "string",
          "name": "routingInfo",
          "type": "string"
        },
        {
          "components": [
            {
              "internalType": "bytes",
              "name": "user_key",
              "type": "bytes"
            },
            {
              "internalType": "bytes",
              "name": "user_pubkey",
              "type": "bytes"
            },
            {
              "internalType": "string",
              "name": "routing_code_hash",
              "type": "string"
            },
            {
              "internalType": "string",
              "name": "task_destination_network",
              "type": "string"
            },
            {
              "internalType": "string",
              "name": "handle",
              "type": "string"
            },
            {
              "internalType": "bytes12",
              "name": "nonce",
              "type": "bytes12"
            },
            {
              "internalType": "uint32",
              "name": "callback_gas_limit",
              "type": "uint32"
            },
            {
              "internalType": "bytes",
              "name": "payload",
              "type": "bytes"
            },
            {
              "internalType": "bytes",
              "name": "payload_signature",
              "type": "bytes"
            }
          ],
          "internalType": "struct IGateway.ExecutionInfo",
          "name": "info",
          "type": "tuple"
        }
      ],
      "name": "distributeFunding",
      "outputs": [],
      "stateMutability": "payable",
      "type": "function"
    },
    {
      "inputs": [
        {
          "internalType": "uint256",
          "name": "roundId",
          "type": "uint256"
        },
        {
          "internalType": "bytes",
          "name": "json",
          "type": "bytes"
        }
      ],
      "name": "distributedFunding",
      "outputs": [],
      "stateMutability": "nonpayable",
      "type": "function"
    },
    {
      "inputs": [
        {
          "internalType": "uint256",
          "name": "",
          "type": "uint256"
        }
      ],
      "name": "fundingRounds",
      "outputs": [
        {
          "internalType": "uint256",
          "name": "id",
          "type": "uint256"
        },
        {
          "internalType": "string",
          "name": "name",
          "type": "string"
        },
        {
          "internalType": "string",
          "name": "description",
          "type": "string"
        },
        {
          "internalType": "string",
          "name": "curveType",
          "type": "string"
        },
        {
          "internalType": "uint256",
          "name": "totalContributions",
          "type": "uint256"
        },
        {
          "internalType": "bool",
          "name": "isOpen",
          "type": "bool"
        },
        {
          "internalType": "bool",
          "name": "isDistributed",
          "type": "bool"
        }
      ],
      "stateMutability": "view",
      "type": "function"
    },
    {
      "inputs": [],
      "name": "gatewayContract",
      "outputs": [
        {
          "internalType": "contract IGateway",
          "name": "",
          "type": "address"
        }
      ],
      "stateMutability": "view",
      "type": "function"
    },
    {
      "inputs": [],
      "name": "getAllRoundIds",
      "outputs": [
        {
          "internalType": "uint256[]",
          "name": "",
          "type": "uint256[]"
        }
      ],
      "stateMutability": "view",
      "type": "function"
    },
    {
      "inputs": [
        {
          "internalType": "uint256",
          "name": "",
          "type": "uint256"
        }
      ],
      "name": "roundIds",
      "outputs": [
        {
          "internalType": "uint256",
          "name": "",
          "type": "uint256"
        }
      ],
      "stateMutability": "view",
      "type": "function"
    }
  ],
  "transactionHash": "0x3e747d2c3a23d250dc705e91b345c71bc8242dc5ec6e8b32a5b5d2e64fbcb7b7",
  "args": [
    "0x4c14a6A0CD2DA2848D3C31285B828F6364087735"
  ],
  "numDeployments": 2,
  "solcInputHash": "42c7e770d140c073d14fd0800d8aade5",
  "bytecode": "0x60803461007457601f611e6b38819003918201601f19168301916001600160401b038311848410176100795780849260209460405283398101031261007457516001600160a01b0381169081900361007457600280546001600160a01b031916919091179055604051611ddb90816100908239f35b600080fd5b634e487b7160e01b600052604160045260246000fdfe608080604052600436101561001357600080fd5b600090813560e01c9081634a98b902146113e95750806355aa2f8c146112e7578063763a3df6146111ab5780637faf8dcf14610da25780638b3b57a414610d6b57806390a4cb9b14610d19578063a135c3e814610c8a578063b239a41214610c53578063c428a27814610ba3578063c5ad404314610b6c578063e09a1094146100d05763eb0cde1d146100a557600080fd5b346100cd57806003193601126100cd576002546040516001600160a01b039091168152602090f35b80fd5b506101a03660031901126100cd576024356001600160401b038111610b68576100fd90369060040161177b565b6044356001600160401b038111610b545761011c90369060040161177b565b906064356001600160401b038111610b505761013c90369060040161177b565b926084356001600160401b038111610b685736602382011215610b685780600401359061016882611796565b916101766040519384611559565b8083526024602084019160051b83010191368311610b1257602401905b828210610b585750505060a4356001600160401b038111610b54576101bc9036906004016117ad565b9460c4356001600160401b038111610b50576101dc9036906004016117ad565b9060e435906001600160401b038211610b125736602383011215610b1257816004013561020881611796565b926102166040519485611559565b8184526024602085019260051b82010190368211610b2157602401915b818310610b2e57505050610104356001600160a01b0381169003610b29576101243515156101243503610b29576001600160401b036101643511610b125761028136610164356004016114fe565b6001600160401b036101843511610b25576101206101843536036003190112610b255761012435610aa3575b50506004358552846020526040852096600435885586516001600160401b0381116109d4576102df60018a015461165b565b601f8111610a5e575b50806020601f82116001146109f35788916109e8575b508160011b916000199060031b1c19161760018901555b8051906001600160401b0382116109d457819061033560028b015461165b565b601f8111610983575b50602090601f8311600114610914578892610909575b50508160011b916000199060031b1c19161760028801555b8051906001600160401b0382116108f557819061038c60038a015461165b565b601f81116108a4575b50602090601f831160011461083557879261082a575b50508160011b916000199060031b1c19161760038701555b60078601805460ff19166001179055835b8351811015610772576103e781856119d4565b516103f2828a6119d4565b51906103fe83866119d4565b516001600160a01b0361041185876119d4565b511690604051928360c08101106001600160401b0360c0860111176105bb5760c08401604052835260208301938452604083015260608201528660808201528660a082015261046083876119d4565b51875260048901602052604087209181518355518051906001600160401b038211610693578190610494600186015461165b565b601f8111610721575b50602090601f83116001146106b2578a926106a7575b50508160011b916000199060031b1c19161760018301555b60408101518051906001600160401b038211610693576104ee600285015461165b565b601f811161064e575b50602090601f83116001146105dc5791806005949260a0948c926105d1575b50508160011b916000199060031b1c19161760028501555b60038401600180841b036060830151166bffffffffffffffffffffffff841b82541617905560808101516004850155015191015561056c81856119d4565b5190600588015491600160401b8310156105bb576105998360016105b6950160058c015560058b0161160f565b819291549060031b600019811b9283911b169119161790556119c5565b6103d4565b634e487b7160e01b600052604160045260246000fd5b015190503880610516565b90600285018a5260208a20918a5b601f19851681106106365750926005949260019260a09583601f1981161061061d575b505050811b01600285015561052e565b015160001960f88460031b161c1916905538808061060d565b919260206001819286850151815501940192016105ea565b600285018a5260208a20601f840160051c81016020851061068c575b601f830160051c820181106106805750506104f7565b6000815560010161066a565b508061066a565b634e487b7160e01b89526041600452602489fd5b0151905038806104b3565b9250600185018a5260208a20908a935b601f1984168510610706576001945083601f198116106106ed575b505050811b0160018301556104cb565b015160001960f88460031b161c191690553880806106dd565b818101518355602094850194600190930192909101906106c2565b909150600185018a5260208a20601f840160051c81016020851061076b575b90849392915b601f830160051c8201811061075c57505061049d565b60008155859450600101610746565b5080610740565b50505082600154600160401b8110156105bb576001810180600155811015610814577f2fceaf42a6664f3294222799a359650844542179732d12b26b6926bd338479a5916107fd916001600052600435907fb10e2d527612073b26eecdfd717e6a320cf44b4afac2b0732d9fcbe2b7fa0cf6015561080e60405192839260408452604084019061173b565b828103602084015260043595611627565b0390a280f35b634e487b7160e01b600052603260045260246000fd5b0151905038806103ab565b9250600389018752602087209087935b601f1984168510610889576001945083601f19811610610870575b505050811b0160038701556103c3565b015160001960f88460031b161c19169055388080610860565b81810151835560209485019460019093019290910190610845565b90915060038901875260208720601f840160051c8101602085106108ee575b90849392915b601f830160051c820181106108df575050610395565b600081558594506001016108c9565b50806108c3565b634e487b7160e01b86526041600452602486fd5b015190503880610354565b925060028a018852602088209088935b601f1984168510610968576001945083601f1981161061094f575b505050811b01600288015561036c565b015160001960f88460031b161c1916905538808061093f565b81810151835560209485019460019093019290910190610924565b90915060028a01885260208820601f840160051c8101602085106109cd575b90849392915b601f830160051c820181106109be57505061033e565b600081558594506001016109a8565b50806109a2565b634e487b7160e01b87526041600452602487fd5b9050880151386102fe565b915060018a0188526020882088925b8a601f1984168510610a4757506001935082601f19811610610a2e575b5050811b016001890155610315565b8a015160001960f88460031b161c191690553880610a1f565b810151825560209384019360019092019101610a02565b60018a01885260208820601f830160051c810160208410610a9c575b601f830160051c82018110610a905750506102e8565b60008155600101610a7a565b5080610a7a565b6002546001600160a01b031690813b15610b2157918791610aea936040518095819482936339624a6b60e21b8452610184356004019161010435610144356004870161187f565b039134905af18015610b1657908691156102ad57610b079061152b565b610b125784386102ad565b8480fd5b6040513d88823e3d90fd5b8780fd5b8680fd5b600080fd5b82356001600160a01b0381169003610b21578235815260209283019201610233565b8380fd5b8280fd5b8135815260209182019101610193565b5080fd5b50346100cd57610b7b366115cc565b507f0de2355f73246cb2852175af9385f91c8205be026c831a20ada4062931abdec08280a280f35b50346100cd5760203660031901126100cd57604090600435815280602052208054610bd060018301611695565b9160ff610bdf60028301611695565b610c34610bee60038501611695565b610c266007600687015496015493610c18604051998a998a5260e060208b015260e08a019061173b565b9088820360408a015261173b565b90868203606088015261173b565b926080850152818116151560a085015260081c16151560c08301520390f35b50346100cd57610c62366115cc565b507f0e82eab4cbddb8a38b9fb81ba86a4a05ec8aa2c55dbea69d2e72857b4f90e9548280a280f35b50346100cd57806003193601126100cd5760405180918260018054928385526020809501918082527fb10e2d527612073b26eecdfd717e6a320cf44b4afac2b0732d9fcbe2b7fa0cf6915b86868210610d03578590610ceb82870383611559565b610cff604051928284938452830190611627565b0390f35b8354855288955090930192918101918101610cd5565b50346100cd5760203660031901126100cd57600435600154811015610b685760209060016000527fb10e2d527612073b26eecdfd717e6a320cf44b4afac2b0732d9fcbe2b7fa0cf60154604051908152f35b50346100cd57610d7a366115cc565b507fdcad6660d3e34a68718474b3d2dfb7da8a012d967dfe595b0123a6112667f0688280a280f35b50346100cd57610db1366115cc565b90610dd6604051610dc18161153e565b60018152602093603b60f81b85830152611b9c565b8051610de181611796565b90610def6040519283611559565b808252610dfe601f1991611796565b01855b81811061117f575050845b82518110156110aa57610e42610e2282856119d4565b5160405190610e308261153e565b60018252600b60fa1b88830152611b9c565b908151156108145785820151918051600110156108145760400151928796889589968a918b915b885183101561109a57821580611079575b611070575b610e89838a611a93565b518a603060f892831c101580611059575b1561102d57610f3f575b600a91828102928184051490151715610f2957610ec1848b611a93565b51901c9081602f19810113600116610f15578d602f198383010192602f190183129112908015821691151617610f0157610efb90926119c5565b91610e69565b634e487b7160e01b8d52601160045260248dfd5b634e487b7160e01b8e52601160045260248efd5b634e487b7160e01b600052601160045260246000fd5b928c94959a92999198969b9c1560001461101357505050505b80610fc9575b50610fa0575b610f969260405191610f758361153e565b825285820152610f8582876119d4565b52610f9081866119d4565b506119c5565b9392909193610e0c565b826000039280840560001914901517610f6457634e487b7160e01b600052601160045260246000fd5b604d8195929511610fff57600a0a818102919060008212600160ff1b821416610f29578183051490151715610f29579238610f5e565b634e487b7160e01b8a52601160045260248afd5b929b9a959790989199949361102790611a86565b9b610ea4565b50602e9061103e858c969496611a93565b51901c14611050575b610efb906119c5565b60019950611047565b506039611066868d611a93565b51831c1115610e9a565b60019350610e7f565b50602d60f81b6001600160f81b0319611092858c611a93565b511614610e7a565b9694999a92939850965050610f58565b5082848682815280825260066040822001549181925b84835282825260059081604085200154851015611156576110ed856004604087200193604087200161160f565b929054600393841b1c8552835283808080604081209561110d8c88611a08565b96015486906001600160a01b031682821561114d575bf1156111425761113c91611136916119e8565b936119c5565b926110c0565b6040513d85823e3d90fd5b506108fc611123565b83867faf7b59e6c86cd7c8ea4dfcc3926826a19ee85cd219eaf4e1a1cfca41a9cc798d8280a280f35b9480939294956040516111918161153e565b606081528883820152828288010152019493919294610e01565b50600319906080368301126100cd576001600160a01b0360043581811691828203610b29576001600160401b03906044358281116112e3576111f19036906004016114fe565b919096606435938411610b25576101209084360301126112e3576002541660c48301359663ffffffff97888116809103610b215760030280988116036112cf576112498798637fffffff989798489160011c166119f5565b823b15610b25578694611279604051978896879586946339624a6b60e21b8652600401926024356004870161187f565b03925af180156112c4576112b0575b50807f9ca0de0709c575c61710159cf212e68fa7f9bd8d600cb008ae8c028b7e54b70591a280f35b6112b99061152b565b610b68578138611288565b6040513d84823e3d90fd5b634e487b7160e01b87526011600452602487fd5b8580fd5b5060031960a036820112610b6857600435906001600160a01b0390602435908282168203610b295784926001600160401b03916064358381116112e3576113329036906004016114fe565b929091608435948511610b25576101209085360301126112e3576002541690813b156112e3578593611381604051968795869485946339624a6b60e21b8652600401926044356004870161187f565b039134905af180156112c4576113d5575b50819052816020526007604083200161010061ff00198254161790557fa9e5ea555a64d717f026f961abe3fa55f2cdfc8f3c9dcb6e9ae55edec249ff318280a280f35b6113de9061152b565b610b68578138611392565b826003199160c083360112610b6857600435926024358015158103610b50576001600160a01b0391604435919083831683036112e3576001600160401b0393608435858111610b21576114409036906004016114fe565b93909260a4359687116114fa57610120908736030112610b2157888852876020526007604089200160ff19815416905561149e575b86887fe9f7d7fd0b133404f0ccff737d6f3594748e04bc5507adfaed35835ef98937118280a280f35b6002541693843b15610b25576114d08694889694869485946339624a6b60e21b8652600401926064356004870161187f565b039134905af180156112c4576114eb575b8080808080611475565b6114f49061152b565b826114e1565b8880fd5b9181601f84011215610b29578235916001600160401b038311610b295760208381860195010111610b2957565b6001600160401b0381116105bb57604052565b604081019081106001600160401b038211176105bb57604052565b90601f801991011681019081106001600160401b038211176105bb57604052565b6001600160401b0381116105bb57601f01601f191660200190565b9291926115a18261157a565b916115af6040519384611559565b829481845281830111610b29578281602093846000960137010152565b906040600319830112610b295760043591602435906001600160401b038211610b295780602383011215610b295781602461160c93600401359101611595565b90565b80548210156108145760005260206000200190600090565b90815180825260208080930193019160005b828110611647575050505090565b835185529381019392810192600101611639565b90600182811c9216801561168b575b602083101461167557565b634e487b7160e01b600052602260045260246000fd5b91607f169161166a565b90604051918260008254926116a98461165b565b90818452600194858116908160001461171857506001146116d5575b50506116d392500383611559565b565b9093915060005260209081600020936000915b8183106117005750506116d3935082010138806116c5565b855488840185015294850194879450918301916116e8565b9150506116d394506020925060ff191682840152151560051b82010138806116c5565b919082519283825260005b848110611767575050826000602080949584010152601f8019910116010190565b602081830181015184830182015201611746565b9080601f83011215610b295781602061160c93359101611595565b6001600160401b0381116105bb5760051b60200190565b9080601f83011215610b29578135906117c582611796565b926117d36040519485611559565b828452602092838086019160051b83010192808411610b2957848301915b8483106118015750505050505090565b82356001600160401b038111610b295786916118228484809489010161177b565b8152019201916117f1565b908060209392818452848401376000828201840152601f01601f1916010190565b9035601e1982360301811215610b295701602081359101916001600160401b038211610b29578136038313610b2957565b9081526001600160a01b0390911660208201526080604082018190529093926118ab929185019161182d565b91606081840391015261194761192c6119116118f66118db6118cd868061184e565b610120808a5289019161182d565b6118e8602087018761184e565b9088830360208a015261182d565b611903604086018661184e565b90878303604089015261182d565b61191e606085018561184e565b90868303606088015261182d565b611939608084018461184e565b90858303608087015261182d565b9160a08201356bffffffffffffffffffffffff60a01b8116809103610b295760a082015260c082013563ffffffff8116809103610b295761160c936119a69160c084015261199860e085018561184e565b9084830360e086015261182d565b916119b7610100918281019061184e565b92909181850391015261182d565b6000198114610f295760010190565b80518210156108145760209160051b010190565b91908203918211610f2957565b81810292918115918404141715610f2957565b9160005b8251811015611a7057611a1f81846119d4565b51518051602080920120611a338654611aa4565b82815191012014611a4d5750611a48906119c5565b611a0c565b611a63606494926004611a6c95970154936119d4565b510151906119f5565b0490565b50915050600090565b91908201809211610f2957565b8015610f29576000190190565b908151811015610814570160200190565b8015611b4c5780816000925b611b385750611abe8261157a565b91611acc6040519384611559565b808352601f19611adb8261157a565b013660208501376000198101908111610f295790805b611afa57505090565b600a906030928282068401809411610f2957611b30611b1882611a86565b9460f81b6001600160f81b03191660001a9186611a93565b530480611af1565b91611b44600a916119c5565b920480611ab0565b50604051611b598161153e565b60018152600360fc1b602082015290565b90611b748261157a565b611b816040519182611559565b8281528092611b92601f199161157a565b0190602036910137565b91909160019060005b8151811015611bfb576001600160f81b031980611bc28385611a93565b5116908651156108145760208701511614611be6575b611be1906119c5565b611ba5565b91611bf3611be1916119c5565b929050611bd8565b50611c0582611796565b91611c136040519384611559565b808352611c22601f1991611796565b0160005b818110611d945750506000918290835b8351811015611d17576001600160f81b031980611c538387611a93565b5116885115610814578160208a01511614611c78575b50611c73906119c5565b611c36565b96611c90611c8b858495949998996119e8565b611b6a565b611c9a88846119d4565b52611ca587836119d4565b50611cb087836119d4565b519560005b8751811015611cf057808a611cd6611cd0611ceb948a611a79565b8a611a93565b511660001a611ce5828b611a93565b536119c5565b611cb5565b50969195509650611d029192506119c5565b9260018201808311610f295791611c73611c69565b509392611d4a919550611d2e611c8b8785516119e8565b611d3882876119d4565b52611d4381866119d4565b50846119d4565b519160005b8351811015611d8c57611d87906001600160f81b0319611d78611d72838a611a79565b86611a93565b511660001a611ce58287611a93565b611d4f565b509350505090565b806060602080938701015201611c2656fea2646970667358221220f9caf84ec9e0a5435217ed559d064996d6b3163dfde7f2d0e7df7e32258b34a964736f6c63430008110033",
  "devdoc": {
    "author": "arjanjohan",
    "kind": "dev",
    "methods": {},
    "version": 1
  },
  "userdoc": {
    "kind": "user",
    "methods": {},
    "notice": "A smart contract for cross-chain quadratic voting developed during EthDam 24. This contract supports various types of funding curves and ensures privacy and security through integration with the Secret Network.",
    "version": 1
  },
  "storageLayout": {
    "storage": [
      {
        "astId": 50,
        "contract": "contracts/Funding.sol:Funding",
        "label": "fundingRounds",
        "offset": 0,
        "slot": "0",
        "type": "t_mapping(t_uint256,t_struct(FundingRound)40_storage)"
      },
      {
        "astId": 53,
        "contract": "contracts/Funding.sol:Funding",
        "label": "roundIds",
        "offset": 0,
        "slot": "1",
        "type": "t_array(t_uint256)dyn_storage"
      },
      {
        "astId": 56,
        "contract": "contracts/Funding.sol:Funding",
        "label": "gatewayContract",
        "offset": 0,
        "slot": "2",
        "type": "t_contract(IGateway)2825"
      }
    ],
    "types": {
      "t_address_payable": {
        "encoding": "inplace",
        "label": "address payable",
        "numberOfBytes": "20"
      },
      "t_array(t_uint256)dyn_storage": {
        "base": "t_uint256",
        "encoding": "dynamic_array",
        "label": "uint256[]",
        "numberOfBytes": "32"
      },
      "t_bool": {
        "encoding": "inplace",
        "label": "bool",
        "numberOfBytes": "1"
      },
      "t_contract(IGateway)2825": {
        "encoding": "inplace",
        "label": "contract IGateway",
        "numberOfBytes": "20"
      },
      "t_mapping(t_uint256,t_struct(FundingRound)40_storage)": {
        "encoding": "mapping",
        "key": "t_uint256",
        "label": "mapping(uint256 => struct Funding.FundingRound)",
        "numberOfBytes": "32",
        "value": "t_struct(FundingRound)40_storage"
      },
      "t_mapping(t_uint256,t_struct(Project)17_storage)": {
        "encoding": "mapping",
        "key": "t_uint256",
        "label": "mapping(uint256 => struct Funding.Project)",
        "numberOfBytes": "32",
        "value": "t_struct(Project)17_storage"
      },
      "t_string_storage": {
        "encoding": "bytes",
        "label": "string",
        "numberOfBytes": "32"
      },
      "t_struct(FundingRound)40_storage": {
        "encoding": "inplace",
        "label": "struct Funding.FundingRound",
        "members": [
          {
            "astId": 19,
            "contract": "contracts/Funding.sol:Funding",
            "label": "id",
            "offset": 0,
            "slot": "0",
            "type": "t_uint256"
          },
          {
            "astId": 21,
            "contract": "contracts/Funding.sol:Funding",
            "label": "name",
            "offset": 0,
            "slot": "1",
            "type": "t_string_storage"
          },
          {
            "astId": 23,
            "contract": "contracts/Funding.sol:Funding",
            "label": "description",
            "offset": 0,
            "slot": "2",
            "type": "t_string_storage"
          },
          {
            "astId": 25,
            "contract": "contracts/Funding.sol:Funding",
            "label": "curveType",
            "offset": 0,
            "slot": "3",
            "type": "t_string_storage"
          },
          {
            "astId": 30,
            "contract": "contracts/Funding.sol:Funding",
            "label": "projects",
            "offset": 0,
            "slot": "4",
            "type": "t_mapping(t_uint256,t_struct(Project)17_storage)"
          },
          {
            "astId": 33,
            "contract": "contracts/Funding.sol:Funding",
            "label": "projectIds",
            "offset": 0,
            "slot": "5",
            "type": "t_array(t_uint256)dyn_storage"
          },
          {
            "astId": 35,
            "contract": "contracts/Funding.sol:Funding",
            "label": "totalContributions",
            "offset": 0,
            "slot": "6",
            "type": "t_uint256"
          },
          {
            "astId": 37,
            "contract": "contracts/Funding.sol:Funding",
            "label": "isOpen",
            "offset": 0,
            "slot": "7",
            "type": "t_bool"
          },
          {
            "astId": 39,
            "contract": "contracts/Funding.sol:Funding",
            "label": "isDistributed",
            "offset": 1,
            "slot": "7",
            "type": "t_bool"
          }
        ],
        "numberOfBytes": "256"
      },
      "t_struct(Project)17_storage": {
        "encoding": "inplace",
        "label": "struct Funding.Project",
        "members": [
          {
            "astId": 6,
            "contract": "contracts/Funding.sol:Funding",
            "label": "id",
            "offset": 0,
            "slot": "0",
            "type": "t_uint256"
          },
          {
            "astId": 8,
            "contract": "contracts/Funding.sol:Funding",
            "label": "name",
            "offset": 0,
            "slot": "1",
            "type": "t_string_storage"
          },
          {
            "astId": 10,
            "contract": "contracts/Funding.sol:Funding",
            "label": "description",
            "offset": 0,
            "slot": "2",
            "type": "t_string_storage"
          },
          {
            "astId": 12,
            "contract": "contracts/Funding.sol:Funding",
            "label": "projectAddress",
            "offset": 0,
            "slot": "3",
            "type": "t_address_payable"
          },
          {
            "astId": 14,
            "contract": "contracts/Funding.sol:Funding",
            "label": "totalContributions",
            "offset": 0,
            "slot": "4",
            "type": "t_uint256"
          },
          {
            "astId": 16,
            "contract": "contracts/Funding.sol:Funding",
            "label": "totalSquareRoots",
            "offset": 0,
            "slot": "5",
            "type": "t_uint256"
          }
        ],
        "numberOfBytes": "192"
      },
      "t_uint256": {
        "encoding": "inplace",
        "label": "uint256",
        "numberOfBytes": "32"
      }
    }
  }
}